:1000000099C30000C8C30000C6C30000C4C30000F9
:10001000C2C30000C0C30000BEC30000BCC30000D8
:10002000BAC30000B8C30000B6C30000B4C30000E8
:10003000B2C30000B0C30000AEC30000ACC30000F8
:10004000AAC30000A8C30000A6C30000A4C3000008
:10005000A2C30000A0C300009EC300000C940815BA
:100060009AC300000C9467180C949D1894C3000068
:1000700092C3000090C300008EC300008CC3000038
:100080008AC3000088C3000086C3000084C3000048
:1000900082C3000080C300007EC3000064C400006F
:1000A0007AC3000078C3000076C3000074C3000068
:1000B00072C3000070C300006EC300006CC3000078
:1000C0006AC3000068C3000066C3000064C3000088
:1000D00062C3000060C300005EC300005CC3000098
:1000E0005AC300002616291618161C16221660166A
:1000F0002D16311637163B163F16451649164D1666
:100100006016531657165B1600000000003E5B4F4A
:100110005B3E3E6B4F6B3E1C3E7C3E1C183C7E3C67
:10012000181C577D571C1C5E7F5E1C00183C180075
:10013000FFE7C3E7FF0018241800FFE7DBE7FF3005
:10014000483A060E2629792926407F050507407F73
:1001500005253F5A3CE73C5A7F3E1C1C08081C1CE6
:100160003E7F14227F22145F5F005F5F06097F01DC
:100170007F006689956A606060606094A2FFA294C7
:1001800008047E040810207E201008082A1C080895
:100190001C2A08081E101010100C1E0C1E0C3038E3
:1001A0003E3830060E3E0E06000000000000005FE4
:1001B00000000007000700147F147F14242A7F2A00
:1001C00012231308646236495620500008070300C2
:1001D000001C2241000041221C002A1C7F1C2A080E
:1001E000083E080800807030000808080808000071
:1001F00060600020100804023E5149453E00427FE5
:10020000400072494949462141494D331814127F33
:100210001027454545393C4A4949314121110907D3
:100220003649494936464949291E00001400000054
:100230004034000000081422411414141414004126
:1002400022140802015909063E415D594E7C1211E3
:10025000127C7F494949363E414141227F4141411B
:100260003E7F494949417F090909013E4141517396
:100270007F0808087F00417F41002040413F017F07
:10028000081422417F404040407F021C027F7F04CF
:1002900008107F3E4141413E7F090909063E415118
:1002A000215E7F09192946264949493203017F0108
:1002B000033F4040403F1F2040201F3F4038403F09
:1002C000631408146303047804036159494D43001F
:1002D0007F4141410204081020004141417F040256
:1002E00001020440404040400003070800205454ED
:1002F00078407F28444438384444442838444428CB
:100300007F385454541800087E090218A4A49C781D
:100310007F0804047800447D40002040403D007F79
:100320001028440000417F40007C047804787C0859
:100330000404783844444438FC182424181824242D
:1003400018FC7C08040408485454542404043F4412
:10035000243C4040207C1C2040201C3C4030403C41
:1003600044281028444C9090907C4464544C4400A1
:100370000836410000007700000041360800020105
:100380000204023C2623263C1EA1A161123A4040F1
:10039000207A38545455592155557941225454786E
:1003A00042215554784020545579400C1E52721207
:1003B0003955555559395454545939555454580090
:1003C00000457C410002457D420001457C407D1294
:1003D00011127DF0282528F07C54554500205454F6
:1003E0007C547C0A097F4932494949323A444444A1
:1003F0003A324A4848303A4141217A3A42402078DC
:10040000009DA0A07D3D4242423D3D4040403D3CDC
:1004100024FF2424487E4943662B2FFC2F2BFF0901
:1004200029F620C0887E09032054547941000044F5
:100430007D413048484A32384040227A007A0A0AE0
:10044000727D0D19317D2629292F28262929292653
:1004500030484D4020380808080808080808382F98
:1004600010C8ACBA2F102834FA00007B0000081422
:100470002A142222142A14085500550055AA55AAF8
:1004800055AAFF55FF55FF000000FF00101010FF98
:1004900000141414FF001010FF00FF1010F010F0F3
:1004A000141414FC001414F700FF0000FF00FF14E4
:1004B00014F404FC141417101F10101F101F141430
:1004C000141F00101010F0000000001F101010107A
:1004D0001F10101010F010000000FF10101010106E
:1004E00010101010FF10000000FF140000FF00FFAC
:1004F00000001F10170000FC04F414141710171448
:1005000014F404F40000FF00F71414141414141469
:10051000F700F7141414171410101F101F141414DC
:10052000F4141010F010F000001F101F0000001F46
:1005300014000000FC140000F010F01010FF10FF79
:10054000141414FF141010101F00000000F010FF0E
:10055000FFFFFFFFF0F0F0F0F0FFFFFF00000000F2
:1005600000FFFF0F0F0F0F0F3844443844FC4A4A76
:100570004A347E02020606027E027E02635549412B
:10058000633844443C04407E201E2006027E020262
:1005900099A5E7A5991C2A492A1C4C7201724C3076
:1005A0004A4D4D303048784830BC625A463D3E494D
:1005B0004949007E0101017E2A2A2A2A2A44445FF1
:1005C000444440514A444040444A51400000FF01E5
:1005D00003E080FF000008086B6B083612362436F3
:1005E000060F090F06000018180000001010003058
:1005F00040FF0101001F01011E00191D1712003CE0
:100600003C3C3C000000000000000A0B02090C0DFD
:100610000E080703040100000000000000000000B5
:1006200000000000000000000000000000000000CA
:100630000000000012111000000000000000000087
:1006400000000000000000000000000000000102A7
:1006500010202008081020401020408002010201D4
:10066000080402010102040810204080804020108C
:1006700008040201800402018040201008040201E5
:10068000080402010102040810204080010204084D
:100690001020408005050505070508080808020226
:1006A00002020A0A0808040404040101010101010C
:1006B00001010303030303030303040707070C0CEF
:1006C0000C0C0C0C0C0C02020202060606060606B6
:1006D00006060B0B0B0B0B0B0B0B00002000230073
:1006E000260029002C002F00320000010000030129
:1006F0000601090100002200250028002B002E0021
:100700003100340002010000050108010B01000066
:100710002100240027002A002D00300033000101B1
:100720000000040107010A01EA038704C711A112AE
:10073000E013CF1811241FBECFEFD1E2DEBFCDBF33
:1007400000E00CBF13E0A0E0B2E0ECEEFAE300E062
:100750000BBF02C007900D92A239B107D9F725E06F
:10076000A2E9B3E001C01D92A433B207E1F717E09C
:10077000C4E3D7E000E006C022970109FE010BBFE9
:100780000E946C1DC832D10780E00807A9F70E94BB
:1007900013190C94741D34CC26E040E855E260E057
:1007A00070E087E994E00E94071883E993E00C94D5
:1007B000EC148091930390919403019751F482E992
:1007C00093E00E947F12AB01BC0183E993E00C949B
:1007D000BD13089583E993E00E94A71282E993E094
:1007E0000C9463128091C40390E02091C503821B96
:1007F000910908952091C5038091C403281750F4EE
:10080000E22FF0E0EA53FC4F808190E02F5F2093CD
:10081000C50308958FEF9FEF0895E091C503809180
:10082000C403E81730F4F0E0EA53FC4F808190E015
:1008300008958FEF9FEF08950895CF92DF92EF9282
:10084000FF920F931F93CF93DF937C01CB018A011B
:100850002091A103222389F0EB016B01C40ED51E68
:10086000CC15DD0561F06991D701ED91FC91019006
:10087000F081E02DC7011995F3CF642F4BD0C8014B
:10088000DF91CF911F910F91FF90EF90DF90CF906C
:100890000895CF93DF931F92CDB7DEB76983209180
:1008A000A1032223D1F02091A203203240F021E0C5
:1008B00030E0FC013383228380E090E014C080911B
:1008C000A303E82FF0E0EC55FC4F998190838F5FF4
:1008D0008093A3038093A20304C061E0CE0101963C
:1008E00019D081E090E00F90DF91CF910895FC0145
:1008F0001382128248EE53E060E070E04483558337
:100900006683778382E192E091838083089585E90D
:1009100093E0EDCF613298F420915304243089F4B0
:1009200060930804FC018AE094E0DC012A2F281B74
:10093000261718F421912D93F9CF80E0089581E0D6
:10094000089582E0089585ED8093BC008091BC00FD
:1009500084FDFCCF10925304089585EC8093BC0075
:100960001092530408951F920F920FB60F92112404
:100970000BB60F922F933F934F935F936F937F9399
:100980008F939F93AF93BF93EF93FF938091B900A1
:10099000887F803609F49DC070F5883209F45CC008
:1009A00090F4803109F455C038F4882309F4F3C079
:1009B000883009F44EC0F2C0883109F44DC080324D
:1009C00009F45EC0EBC0803409F469C050F4803390
:1009D00009F456C0883309F0E1C08093E603BDDF17
:1009E000DDC0803509F44FC0883509F45DC0883416
:1009F00009F0D4C0D2C0883909F4C3C0A8F488373C
:100A000009F467C038F4883609F463C0803709F404
:100A100060C0C4C0883809F4B4C0803909F45FC02C
:100A2000803809F0BBC05BC0803B09F482C038F459
:100A3000803A09F466C0883A09F47BC0AFC0803CB4
:100A400009F4A3C0883C09F4A0C0883B09F486C01F
:100A5000A5C08091520410C090912B0480912A046B
:100A6000981770F5E0912B0481E08E0F80932B0492
:100A7000F0E0E45DFB4F80818093BB0085EC82C099
:100A80008093E6038AC0E0912B0481E08E0F80936F
:100A90002B048091BB00F0E0E45DFB4F80839091DC
:100AA0002B0480912A046AC0E0912B0481E08E0F10
:100AB00080932B048091BB00F0E0E45DFB4F8083CA
:100AC00080915104811169C081E08093500484EACF
:100AD0005DC083E0809353041092E703CFCF8091F1
:100AE000E703803208F04DC0E091E70381E08E0F0C
:100AF0008093E7038091BB00F0E0E851FC4F8083D6
:100B0000BDCF2BDF8091E703803230F4E091E70323
:100B1000F0E0E851FC4F10826091E70370E0E09153
:100B20004C04F0914D0488EE93E019951092E70380
:100B300035C084E080935304109209041092080495
:100B4000E0914E04F0914F041995809108048111B1
:100B500005C081E08093080410920A04E091090422
:100B600081E08E0F80930904F0E0E65FFB4F808107
:100B70008093BB009091090480910804981708F4B1
:100B80007DCF85E88093BC0009C085EC8093BC00D4
:100B90001092530403C01092E603D5DEFF91EF914B
:100BA000BF91AF919F918F917F916F915F914F9185
:100BB0003F912F910F900BBE0F900FBE0F901F9083
:100BC0001895CF93CFB7F89480915704811127C01F
:100BD000E9ECF6E08491E3E8F6E09491E82FF0E0A8
:100BE000EE0FFF1FE25FF84FA591B4918C9189231E
:100BF00021F461E085E30E949A1661E085E30E949A
:100C000061168CB580618CBD8CB580648CBD61E053
:100C100084E30E94611661E083E30E946116809183
:100C200057048F5F80935704CFBFCF9108952F92C1
:100C30003F924F925F926F927F928F929F92AF926C
:100C4000BF92CF92DF92EF92FF920F931F93CF93B9
:100C5000DF9300D01F92CDB7DEB74C017C836B834E
:100C60006A015901C8018701AC014C195D0957FFA0
:100C700003C051954195510995016B817C81261BDB
:100C8000370B37FF03C03195219531092224239476
:100C9000312C2417350714F0212C312C2114310468
:100CA00059F03A2D2B2D5C01832F922F3B812C8103
:100CB000DC82CB82C32ED22EAB81BC81AA16BB06AE
:100CC0005CF43C2D2D2D6C01832F922F3B812C81C8
:100CD000BC82AB82A32EB22E2501EB81FC814E1A81
:100CE0005F0A3C016C187D0877FE03C07194619423
:100CF0007108720157FE03C0FFEFEF1AFF0AF59467
:100D0000E794C816D9062CF421E030E03A83298311
:100D100024C06FEF7FEF7A8369831FC0D401ED9108
:100D2000FC910480F581E02D980121143104D9F063
:100D30004B815C81B601C4011995E618F708F7FEEE
:100D400006C0E981FA81CE0EDF1EE40CF51C2B8172
:100D50003C812F5F3F4F3C832B836B817C81A616A8
:100D6000B706E4F604C0A6016B817C81E4CF0F9046
:100D70000F900F900F90DF91CF911F910F91FF90E7
:100D8000EF90DF90CF90BF90AF909F908F907F902B
:100D90006F905F904F903F902F9008956F927F9249
:100DA0008F929F92AF92BF92CF92DF92EF92FF927B
:100DB0000F931F93CF93DF93EC015B016A0139011D
:100DC0004801E881F9810284F385E02D87011995B6
:100DD000E881F981A601480D591D4150510902844D
:100DE000F385E02D9301B501CE011995E881F981D4
:100DF0000084F185E02D9401A601B501CE0119957D
:100E0000E881F981B501660D771D61507109008493
:100E1000F185E02D9401A601CE011995DF91CF91C6
:100E20001F910F91FF90EF90DF90CF90BF90AF9008
:100E30009F908F907F906F900895EF92FF920F9305
:100E40001F93DC01ED91FC91240F351F21503109D6
:100E50000680F781E02D780189019B0119951F918A
:100E60000F91FF90EF900895EF92FF920F931F93D1
:100E7000DC01ED91FC91260F371F215031090680CE
:100E8000F781E02D78018A0119951F910F91FF904C
:100E9000EF9008956F927F928F929F92AF92BF9240
:100EA000CF92DF92EF92FF920F931F93CF93DF9336
:100EB0005C014A0169013801EB01C60ED71ECC1551
:100EC000DD0574F4D501ED91FC910084F185E02DF0
:100ED00087019301A401BE01C50119952196EFCFA9
:100EE000DF91CF911F910F91FF90EF90DF90CF9006
:100EF000BF90AF909F908F907F906F900895EF92EA
:100F0000FF920F931F93DC01ED91FC9111971A96BC
:100F10000D911C911B9718962D913C911997068461
:100F2000F785E02D7B0140E050E060E070E019952E
:100F30001F910F91FF90EF9008950895FC01138287
:100F4000128282E292E09183808375836483578367
:100F500046837187608753874287158A1586148672
:100F60001786168621E0248B8FEF9FEF938B828B61
:100F7000918B808B268B178A118E108E08952F925D
:100F80003F924F925F926F927F928F929F92AF9219
:100F9000BF92CF92DF92EF92FF920F931F93CF9366
:100FA000DF93CDB7DEB7AE970FB6F894DEBF0FBEB6
:100FB000CDBF98878F834B013A0129011EA70DA74A
:100FC000B701DA82C982BE8AAD8A041715074CF4CC
:100FD000872D38014DA78EA7982D892D4901492EBF
:100FE000582E2DA53EA549815A81421753075CF41E
:100FF0009DA58EA55EA74DA799838A83942D852DE7
:101000002B01692F782F8DA59EA5861597055CF479
:10101000962D872D6DA47EA49DA78EA7982D892D32
:101020004201492E582EA981BA816A167B0619F50C
:10103000481459042CF0942D852D2401892E982EC6
:10104000641575052CF0861697060CF44B01B20159
:10105000AF81B885ED91FC9111979401261B370B58
:101060002F5F3F4F0284F385E02D0D891E89A30178
:10107000CD01199552C1C201881999092DA53EA526
:1010800026193709FB01E819F909FA87E987498127
:101090005A81461957095E874D87DB01A419B509A6
:1010A000BA8BA98BE981FA814DA55EA5E41BF50BEE
:1010B000F88FEF8B69817A814617570729F04150E5
:1010C00051095C8F4B8F04C0ADA5BEA5BC8FAB8F03
:1010D0001301A12CB12C65011B821C821D821E8272
:1010E000A901662757FD6095762F4D8F5E8F6F8F14
:1010F00078A32D853E85442737FD4095542F29A39D
:101100003AA34BA35CA3AC01662757FD6095762FED
:101110004DA35EA36FA378A769857A85882777FD9D
:101120008095982F69A77AA78BA79CA7EB8DFC8D3C
:10113000E215F3050CF44EC06B817C818D819E819C
:101140002D8D3E8D4F8D58A10E944A1D7401E20ED7
:10115000F31EC601B50129A13AA14BA15CA10E94D1
:101160004A1DB401620F731F8B819C81AD81BE81CA
:101170002DA13EA14FA158A5820F931FA41FB51FFB
:101180008B839C83AD83BE8389A59AA5ABA5BCA5A3
:10119000A80EB91ECA1EDB1E6E157F052CF0962FF9
:1011A000872FB701E92EF82EAF81B885ED91FC911C
:1011B00011979701261B370B2F5F3F4F0284F38552
:1011C000E02D0D891E89A101CD011995BFEF2B1AC4
:1011D0003B0AACCF91014DA55EA5241B350B698957
:1011E0007A89629FC001639F900D729F900D1124B8
:1011F0009C01442737FD4095542F2B833C834D831E
:101200005E83C1018619970949855A85489F600107
:10121000499FD00C589FD00C1124EE24D7FCE094A9
:10122000FE2C6F89788D882777FD8095982F6F8B9E
:10123000788F898F9A8F8D859E85AA2797FDA09597
:10124000BA2F8D879E87AF87B88B29893A89442723
:1012500037FD4095542F298B3A8B4B8B5C8B4985FE
:101260005A85662757FD6095762F49875A876B8781
:101270007C87E981FA81E215F3050CF44EC06B819D
:101280007C818D819E812F89388D498D5A8D0E9458
:101290004A1D5201A20EB31EC701B6012D853E851F
:1012A0004F8558890E944A1DB401620F731F8B81BC
:1012B0009C81AD81BE8129893A894B895C89820FE5
:1012C000931FA41FB51F8B839C83AD83BE83898529
:1012D0009A85AB85BC85C80ED91EEA1EFB1E6A1511
:1012E0007B052CF0962F872FB501A92EB82EAF8144
:1012F000B885ED91FC9111979501261B370B2F5F57
:101300003F4F0284F385E02D0D891E89A101CD0197
:101310001995BFEF2B1A3B0AACCFAE960FB6F894D7
:10132000DEBF0FBECDBFDF91CF911F910F91FF9018
:10133000EF90DF90CF90BF90AF909F908F907F9075
:101340006F905F904F903F902F9008952F923F9213
:101350004F925F926F927F928F929F92AF92BF92C5
:10136000CF92DF92EF92FF920F931F93CF93DF9371
:10137000CDB7DEB76A970FB6F894DEBF0FBECDBF0C
:101380001C0158874F831C870B87FA86E986CC821D
:10139000DC0158964D915C9159974115510509F022
:1013A000A6C018968D919C911997681779070CF033
:1013B00056C11A968D919C911B97EF81F885E8177D
:1013C000F9070CF04CC1D12CCB013C81F6E03F9FDA
:1013D000800D911D1124181619060CF040C1C6018C
:1013E00003E0880F991F0A95E1F74F815885840F14
:1013F000951F181619060CF032C157968C91811161
:1014000003C0203B08F02F5F7E876D874B01198258
:1014100018E0A12E11E0B12EA61AB70A55E0259FBB
:10142000A00CB11C11248981853039F0ED85FE8531
:10143000EA0DFB1D94919A8301C01A826F80788413
:101440002301A8E0AD83BA81B0FF12C0D101ED91B4
:10145000FC91BC81B13031F40480F581E02D2B8505
:101460003C8518C00684F785E02DEB84FC841DC004
:10147000E985FA852B853C85E217F307E1F0D10178
:10148000ED91FC91BC81B13059F40480F581E02DDF
:1014900029853A85A2016D857E85C10119950BC00C
:1014A0000684F785E02DE984FA8486019601A3017C
:1014B000B401C1011995EA81E695EA83FD81F150F5
:1014C000FD836C0C7D1C2FEF421A520AF111BBCF29
:1014D00039813F5F39838C0C9D1C4D855E854F5F44
:1014E0005F4F5E874D87363009F09DCFB8C0FA0157
:1014F00034963491329785919491231BA7E02A9FCB
:10150000800D911D1124FA0125913491398B288B7E
:10151000FC01459154915A8F498FFC0132965491A8
:1015200059873196A491AF873196E491FC013596A5
:10153000249131968491BC81B23050F0622E772490
:1015400067FC7094E82FFF27E7FDF095FE87ED8795
:10155000FC81CF2ED12C6C9C40016D9C900C7C9C0E
:10156000900C1124860E971EA12C1982DE8ACD8A3A
:10157000AB01420F511D27FD5A955E834D83AF810C
:10158000B885A80FB11D87FDBA95B88FAF8B59816B
:101590008F85581708F063C0852F90E02D853E8514
:1015A000280F391F2C9DD0012D9DB00D3C9DB00DF5
:1015B0001124EF81F885EA0FFB1FFB83EA836D801E
:1015C0007E802401FA2D2D81F21BFA8B4F89588DD4
:1015D000480F591F5C8B4B8B9A89960D862D2D8158
:1015E000821B39858317B0F5977061F4898D9A8DC8
:1015F0000196E889F989298D3A8DE20FF31FB4909D
:101600009A8F898FB7FE1DC0D101ED91FC91BC81ED
:10161000B13059F40480F581E02D2B853C854B8950
:101620005C89B301C10119950CC00684F785E02DD2
:10163000EB84FC84860196014A815B81B201C10181
:101640001995BB0CED89FE894E0E5F1EFFEF6F1AD8
:101650007F0AC2CFA30E49814F5F498398CF6A9614
:101660000FB6F894DEBF0FBECDBFDF91CF911F91B3
:101670000F91FF90EF90DF90CF90BF90AF909F9031
:101680008F907F906F905F904F903F902F90089534
:10169000AF92BF92CF92EF92FF920F931F93CF938F
:1016A000DF93EC01262F888D998D009709F041C0BA
:1016B0006A3069F42C898E859F8538E0239F800DE0
:1016C000911D11249F878E871D861C86A9C06D30B1
:1016D00009F4A6C08E898823C1F03C898C859D853C
:1016E00046E0349F800D911D11244885598584174B
:1016F00095075CF01D861C868E859F85E8E03E9FE1
:10170000800D911D11249F878E87EA88FB880889A8
:1017100019894E855F856C857D85CC88CE0116DE66
:101720002C898C859D85F6E02F9F800D911D1124BD
:1017300041C06A3079F41D861C864C89FC013696BE
:1017400084912E853F85489F200D311D11243F87B0
:101750002E8766C06D3009F463C0AC014C5F5F4FEB
:10176000FA013491631708F45BC03196E491E617EF
:1017700008F456C0FA014491362F341BFC0132960E
:10178000A590B490F7E03F9FA00CB11C1124F50187
:101790003296A4913196E491AA2311F0E1110DC083
:1017A000F5013496A4902C898C859D85A29E800D90
:1017B000911D11249D878C8733C0F5013596E491E6
:1017C0003E89332309F13C89B0E0AE0FB11DE7FD3E
:1017D000BA953A9FA0013B9F500D11246C857D85E1
:1017E000460F571F68857985461757076CF01D8689
:1017F0001C86FC01369684914E855F85389F400D8E
:10180000511D11245F874E87EA88FB880889198952
:101810004E855F856C857D85CC88CE0197DDC0CFF8
:1018200081E090E0DF91CF911F910F91FF90EF90B9
:10183000CF90BF90AF900895FC017587648757875C
:1018400046870895611101C061E0FC01648B089531
:10185000FC01738B628B718B608B0895FC01718B23
:10186000608B538B428B0895EF92FF920F931F93DF
:10187000DC01ED91FC9111971A960D911C911B972B
:1018800018962D913C9119970684F785E02D7B01E0
:1018900040E050E060E070E019951F910F91FF90DB
:1018A000EF90089520915604222399F03FB7F894C1
:1018B00020915604213059F42DB3209354044DB394
:1018C00020915504209524232DBB3FBF02C03093A7
:1018D00054048CBD9DBD089580915604882361F009
:1018E0009FB7F8942091560480915404213019F444
:1018F0008DBB9FBF08958FBF0895AF92BF92CF92C7
:10190000EF92FF920F931F93CF93DF931F92CDB768
:10191000DEB75C01F62E142F40E451E060EF70E07A
:1019200029830CDB8AE392E0F50191838083F7A29F
:1019300010A7298122A7C3A604A7E1A6138E0F90A2
:10194000DF91CF911F910F91FF90EF90CF90BF90BB
:10195000AF900895FC01838D811122C088E090E052
:1019600030E8A58DB68D25A5432F462321F04C9157
:10197000422B4C9304C04C91209524232C93A78D8B
:10198000B0A12C9146A5242B2C93A78DB0A14C91EE
:1019900026A5209524232C933695019711F70895B9
:1019A0006EBD0DB407FEFDCF0895CF93DF93EC011C
:1019B000E9A1FAA1908188A9809589238083EDA16E
:1019C000FEA190818FA5809589238083CE01C2DFFF
:1019D000EDA1FEA180819FA5892B8083DF91CF910E
:1019E00008950F931F93CF93DF931F92CDB7DEB768
:1019F0008C01FC01838D882329F080E591E06983C7
:101A000051DF6981662311F061E201C060E2C80123
:101A1000CCDFF801838D882331F00F90DF91CF91D7
:101A20001F910F9159CF0F90DF91CF911F910F917F
:101A30000895CF93DF93EC01E9A1FAA1808198A9E1
:101A4000892B8083EDA1FEA190818FA580958923AC
:101A50008083CE017FDFEDA1FEA180819FA5892B30
:101A60008083DF91CF910895CF93DF93EC0189A517
:101A700018163CF461E00E94611660E089A50E949E
:101A80009A1661E088A50E94611661E08FA10E940C
:101A900061168FA1992787FD9095FC01EC56F94FAF
:101AA000E491F0E0EE0FFF1FEC50F94F25913491D7
:101AB0003EA32DA3FC01E25BF94F84918FA788A57B
:101AC000992787FD9095FC01EC56F94FE491F0E0E1
:101AD000EE0FFF1FEC50F94F259134913AA329A343
:101AE000FC01E25BF94F849188AB8B8D882311F068
:101AF00068D844C061E08CA50E94611661E08AA5A7
:101B00000E94611660E08BA50E9461168CA5992742
:101B100087FD9095FC01EC56F94FE491F0E0EE0F53
:101B2000FF1FEC50F94FA591B491B8A3AF8FFC0102
:101B3000E25BF94F84918EA78AA5992787FD90953E
:101B4000FC01EC56F94FE491F0E0EE0FFF1FEC5072
:101B5000F94F259134913E8F2D8FFC01E25BF94FB7
:101B600084918DA78C919EA5909589238C93ED8D62
:101B7000FE8D90818DA580958923808389A5181677
:101B8000D4F461E00E949A1665E070E080E090E095
:101B9000ACD760E089A50E949A1664E170E080E00D
:101BA00090E0A3D761E089A50E949A1666E970E0EB
:101BB00080E090E09AD78B8D882319F080E591E042
:101BC00071DE6FEECE01F1DE63E0CE0132DF60E860
:101BD000CE012FDF62E0CE012CDF6FECCE01E5DE1F
:101BE00060E0CE0126DF61ECCE0123DF60E3CE01B1
:101BF00020DF6DEECE01D9DE64E6CE011ADF63E0B0
:101C0000CE0117DF62E1CE0114DF61E8CE0111DF02
:101C100068EECE01CADE65E8CE010BDF60E0CE01E2
:101C200008DF68E7CE0105DF6BECCE01BEDE69E3BD
:101C3000CE01FFDE6CE2CE01FCDE60E0CE01F9DE1B
:101C400064E3CE01F6DE62E0CE01F3DE67EFCE01A3
:101C5000ACDE60E2CE01EDDE6AEECE01A6DE60E033
:101C6000CE01E7DE60E0CE01E4DE60ECCE019DDE79
:101C700063E2CE01DEDE61ECCE0197DE60E1CE01F3
:101C8000D8DE65ECCE0191DE6EE3CE01D2DE68E2F5
:101C9000CE01CFDE67ECCE0188DE66E8CE01C9DE7C
:101CA00066E3CE0182DE68E4CE01C3DE6AE3CE01E4
:101CB0007CDE65E5CE01BDDE61EBCE0176DE60E067
:101CC000CE01B7DE68E1CE01B4DE66EBCE016DDE9B
:101CD00068E0CE01AEDE62E8CE01ABDE67E2CE01A7
:101CE000A8DE62EFCE0161DE60E0CE01A2DE66E238
:101CF000CE015BDE61E0CE019CDE60EECE0155DE02
:101D00006FE0CE0196DE61E3CE0193DE6BE2CE01A1
:101D100090DE6CE0CE018DDE6EE0CE018ADE68E002
:101D2000CE0187DE6EE4CE0184DE61EFCE0181DE7E
:101D300067E3CE017EDE67E0CE017BDE60E1CE01AF
:101D400078DE63E0CE0175DE6EE0CE0172DE69E022
:101D5000CE016FDE60E0CE016CDE61EECE0125DEED
:101D600060E0CE0166DE6EE0CE0163DE64E1CE01AE
:101D700060DE63E0CE015DDE61E1CE015ADE67E048
:101D8000CE0157DE61E3CE0154DE61ECCE0151DEBF
:101D900068E4CE014EDE68E0CE014BDE6FE0CE019E
:101DA00048DE6CE0CE0145DE61E3CE0142DE66E353
:101DB000CE013FDE6FE0CE013CDE61E1CE01F5DD1C
:101DC0008B8D811189DD68E770E080E090E08DD631
:101DD0008B8D882319F080E591E064DD69E2CE0106
:101DE000E4DD8B8D882319F0DF91CF9175CDDF91E4
:101DF000CF910895CF92DF92FF920F931F93CF93CD
:101E0000DF9300D01F921F92CDB7DEB76C01F62E84
:101E10006AE22B833A834D835C837983C6DD7981C3
:101E2000672FC60106DE6F2DC60103DE3A81632FE0
:101E3000C601FFDD2B81622FC601FBDD6BE2C6010F
:101E4000B4DD5C81652FC601F4DD4D81642FC601D0
:101E5000F0DD612FC601EDDD602FC601EADD6CE229
:101E6000C6010F900F900F900F900F90DF91CF91C0
:101E70001F910F91FF90DF90CF9097CDAF92BF92BF
:101E8000CF92DF92EF92FF920F931F93CF93DF9346
:101E90001F921F92CDB7DEB75C017B01D22EC32EFD
:101EA00077FD5EC0DC0118968D919C91199768179B
:101EB00079070CF055C057FD53C01A968D919C912F
:101EC0001B97481759070CF04BC05B968C918823E1
:101ED00039F080E591E049835A83E4DC5A814981F5
:101EE0008A010F5F1F4F97012F5F3F4FB701C50159
:101EF00081DFD5019196ED91FC9192978081D096EA
:101F00009C91D097892B80839596ED91FC91969723
:101F100090819F968C918095892380836C2DC5013B
:101F200019DD6D2DC50116DDD5019596ED91FC915C
:101F3000969780819F969C919F97892B80835B9633
:101F40008C91882369F00F900F90DF91CF911F91B2
:101F50000F91FF90EF90DF90CF90BF90AF90BCCCEF
:101F60000F900F90DF91CF911F910F91FF90EF9005
:101F7000DF90CF90BF90AF9008958F929F92AF92D5
:101F8000BF92CF92DF92EF92FF920F931F93CF9366
:101F9000DF931F921F92CDB7DEB74C016B01790121
:101FA000B02EA12EDC0118968D919C91199768177F
:101FB00079070CF065C01A968D919C911B97481774
:101FC00059070CF05DC09A012E0D3F1D8217930733
:101FD0001CF47C01E41AF50AF401838D882339F09E
:101FE00080E591E049835A835DDC5A8149818A0109
:101FF0000E0D1F1D015011099601B601C401FADE34
:10200000D4019196ED91FC9192978081D0969C910C
:10201000D097892B80839596ED91FC91969790812E
:102020009F968C91809589238083E114F10451F06F
:102030006A2DC4018FDC6B2DC4018CDCB1E0EB1A7E
:10204000F108F3CFD4019596ED91FC91969780819C
:102050009F969C919F97892B80835B968C91882378
:1020600079F00F900F90DF91CF911F910F91FF901A
:10207000EF90DF90CF90BF90AF909F908F902CCC3F
:102080000F900F90DF91CF911F910F91FF90EF90E4
:10209000DF90CF90BF90AF909F908F9008958F92D8
:1020A0009F92AF92BF92CF92DF92EF92FF920F93E7
:1020B0001F93CF93DF931F921F92CDB7DEB74C01D2
:1020C0007B016901B02EA12EDC0118968D919C91A7
:1020D0001997681779070CF065C01A962D913C91F5
:1020E0001B97421753070CF05DC09B012C0D3D1D43
:1020F000821793071CF46C01C61AD70AF401838D6A
:10210000882339F080E591E049835A83CBDB5A81FB
:10211000498197012C0D3D1D215031098A01B701DC
:10212000C40168DED4019196ED91FC919297808173
:10213000D0969C91D097892B80839596ED91FC91B8
:10214000969790819F968C91809589238083C11466
:10215000D10451F06A2DC401FDDB6B2DC401FADB03
:10216000B1E0CB1AD108F3CFD4019596ED91FC9153
:10217000969780819F969C919F97892B80835B96F1
:102180008C91882379F00F900F90DF91CF911F9160
:102190000F91FF90EF90DF90CF90BF90AF909F9006
:1021A0008F909ACB0F900F90DF91CF911F910F914D
:1021B000FF90EF90DF90CF90BF90AF909F908F9067
:1021C00008956F927F928F929F92AF92BF92CF921B
:1021D000DF92EF92FF920F931F93CF93DF931F92A3
:1021E0001F92CDB7DEB73C016B0159014801DC01FC
:1021F00018962D913C911997621773070CF07BC0CC
:102200001A968D919C911B97481759070CF073C033
:102210006A0D7B1D261737071CF45901AC18BD0841
:102220009A01280D391D821793071CF44C01841A5A
:10223000950AF301838D882339F080E591E0498385
:102240005A8330DB5A8149818A01080D191D0150DA
:10225000110996012A0D3B1D21503109B601C30118
:10226000C9DDD3019196ED91FC9192978081D09632
:102270009C91D097892B80839596ED91FC919697B0
:1022800090819F968C9180958923808318141904DE
:1022900094F465011C141D0454F46F2DC3015ADB22
:1022A0006E2DC30157DBB1E0CB1AD108F3CFE1E0CB
:1022B0008E1A9108EBCFD3019596ED91FC919697EC
:1022C00080819F969C919F97892B80835B968C91B0
:1022D000882389F00F900F90DF91CF911F910F917C
:1022E000FF90EF90DF90CF90BF90AF909F908F9036
:1022F0007F906F90F1CA0F900F90DF91CF911F9157
:102300000F91FF90EF90DF90CF90BF90AF909F9094
:102310008F907F906F9008951F93CF93DF93EC0180
:10232000162F8B8D882319F080E591E0BBDA66E3E8
:10233000CE013BDB612F63706D8B623041F0633007
:1023400081F0613011F068E403C068E20BC068E816
:10235000CE016FDB80EF90E09987888780E491E081
:1023600009C068EECE0165DB80E491E0998788873B
:1023700080EF90E09B878A878B8D882321F0DF9107
:10238000CF911F91A9CADF91CF911F91089580E548
:1023900080935804109259040895CF93DF93EC0171
:1023A000842F68834A83298361E08BD461E088812C
:1023B00088D460E0898185D461E08A81DF91CF9102
:1023C000B9C4DF92EF92FF920F931F93CF93DF93E5
:1023D0008C01D12CC7E0D0E0EE24E394F12C60E036
:1023E000F8018081A7D48FE99FE00197F1F700C041
:1023F0000000F8018181D3D4892B39F097010C2E8C
:1024000001C0220F0A94EAF7D22A61E0F801808124
:1024100091D48FE99FE00197F1F700C00000219768
:10242000F0F68D2DDF91CF911F910F91FF90EF90DE
:10243000DF9008950F931F93CF93DF93EC0160E03B
:102440008A8178D48FE99FE00197F1F700C00000FE
:10245000CE01B7DF082F10E0102F0027CE01B1DF2B
:10246000082B61E08A8166D402FD11C0B80193E0B7
:10247000769567959A95E1F780E090E00E940B1CB5
:1024800020E030E040E85EE30E94C11C04C060E050
:1024900070E080EC9FE7DF91CF911F910F9108953D
:1024A000C9DF20E030E040E151E40E94C11C20E09F
:1024B00030E040EA50E40E94721B20E030E040E04F
:1024C00052E40C940A1BCF93DF93EC0161E08FE29E
:1024D000F8D361E08DE2F5D361E08FE22BD460E0C8
:1024E0008DE228D461E087E125D461E085E2E9D37B
:1024F00061E08CE2E6D31882DF91CF910895CF920C
:10250000DF92EF92FF926EE472E087E994E0D5D615
:102510008AE594E0C5DF6B017C0122E030E0AB018D
:10252000BC0187E994E00E94F91A64E670E080E05B
:1025300090E0DBD2C701B601FF90EF90DF90CF9023
:10254000089521E347E165E38AE594E026CF22E0A0
:1025500030E0FC01318320830895AF92BF92CF9287
:10256000DF92EF92FF920F931F934AE050E06CE3EB
:1025700070E08DE594E060D960E070E08DE594E076
:1025800067D962E08DE594E05DD962EE72E08DE599
:1025900094E09ED6A12CB12C8EE1C82ED12C99E1CD
:1025A000E92EF12C0AE010E029E130E044E150E0AE
:1025B0006AE070E08DE594E00E94BF0740E550E0DE
:1025C00066E470E08DE594E037D960E070E08DE579
:1025D00094E03ED962E08DE594E034D965EF72E095
:1025E0008DE594E075D644E650E066E470E08DE554
:1025F00094E022D960E070E08DE594E029D962E0B2
:102600008DE594E01FD960910C0270910D024AE0B3
:1026100050E08DE594E000D740E550E068EC70E0D4
:102620008DE594E009D960E070E08DE594E010D983
:1026300062E08DE594E006D96AEF72E08DE594E002
:1026400047D644E650E068EC70E08DE594E0F4D8BD
:1026500060E070E08DE594E0FBD862E08DE594E009
:10266000F1D860910802709109024AE050E08DE5CE
:1026700094E0D2D64AEA50E066E470E08DE594E05A
:10268000DBD860E070E08DE594E0E2D862E08DE5B3
:1026900094E0D8D860910A0270910B024AE050E0B1
:1026A0008DE594E0B9D629EBC22ED12C32E3E32E8E
:1026B000F12C0AEA10E02CE330E04AEA50E068E24C
:1026C00070E08DE594E00E94BF074AEAC42ED12C49
:1026D0005BE7E52EF12C09EB10E025E830E049EB53
:1026E00050E061E770E08DE594E00E94BF074AEAA0
:1026F00050E068EC70E08DE594E09ED860E070E01A
:102700008DE594E0A5D862E08DE594E09BD86091DA
:102710000602709107024AE050E08DE594E07CD615
:1027200069EBC62ED12C74EBE72EF12C0AEA10E0EF
:102730002EEB30E04AEA50E06AEA70E08DE594E082
:102740000E94BF07EAEACE2ED12CFDEFEF2EF12C2E
:1027500009EB10E027E031E049EB50E063EF70E077
:102760008DE594E00E94BF071F910F91FF90EF90BD
:10277000DF90CF90BF90AF900895CF92DF92EF920D
:10278000FF926A017B014EE650E068EC70E08DE557
:1027900094E052D84FEF5FEF60E070E08DE594E099
:1027A0005DD862E08DE594E04DD822E030E0B701DD
:1027B000A6018DE594E0FF90EF90DF90CF9019C7D0
:1027C000CF92EF920F93A7E0CA2EB8E0EB2E06E06F
:1027D00029E04EE265E08DE594E08FD80F91EF900F
:1027E000CF90089563E08DE594E096DD60E070E0C1
:1027F0008DE594E039D84CE350E06CE370E08DE572
:1028000094E01AD86FEF7FEF8DE594E021D863E074
:102810008DE594E017D86EEF72E08DE594E058D521
:1028200044E650E068E270E08DE594E005D86FEF93
:102830007FEF8DE594E00CD862E08DE594E002D85E
:102840006AE073E08DE594E043D5E1C06FEF7FEF80
:102850008DE594E009D84AE050E06AE070E08DE54B
:1028600094E00E941C0C60E070E08DE594E00E9412
:10287000280C62E08DE594E00E94220C60E273E097
:102880008DE594E025D54EE150E06AE070E08DE5FD
:1028900094E00E941C0C60E070E08DE594E00E94E2
:1028A000280C62E08DE594E00E94220C63E373E063
:1028B0008DE594E00DD542E350E06AE070E08DE5EF
:1028C00094E00E941C0C60E070E08DE594E00E94B2
:1028D000280C62E08DE594E00E94220C67E473E02E
:1028E0008DE594E0F5D44AE550E064E170E08DE5D3
:1028F00094E00E941C0C4FEF5FEF60E070E08DE50C
:1029000094E00E942E0C62E08DE594E00E94220C7F
:1029100068E573E08DE594E0DBD44AE550E068ECCF
:1029200070E08DE594E00E941C0C60E070E08DE5A5
:1029300094E00E94280C62E08DE594E00E94220C55
:1029400022E030E040E050E063ED72E48DE594E099
:1029500050D64EE650E064E170E08DE594E00E94D0
:102960001C0C60E070E08DE594E00E94280C62E0B1
:102970008DE594E00E94220C65E673E08DE594E01D
:10298000A7C4CF93DF931F921F92CDB7DEB7FC0190
:102990007183608382E090E09A838983613071055E
:1029A00059F06230710571F0672B89F41182108241
:1029B000CE010196D2DD0BC071836083CE010196FA
:1029C00045DF05C071836083CE0101960BDF0F9058
:1029D0000F90DF91CF910895CF93DF93EC018DE5B8
:1029E00094E042D86FEF7FEF8DE594E00E94340CC5
:1029F00063E08DE594E090DC61E070E0CE01C1DF42
:102A000068EE73E080E090E0DF91CF916EC00895B2
:102A10001F920F920FB60F9211242F933F938F9313
:102A20009F93AF93BF9380918F0490919004A09156
:102A30009104B091920430918E0423E0230F2D373E
:102A400020F40196A11DB11D05C026E8230F0296B2
:102A5000A11DB11D20938E0480938F049093900448
:102A6000A0939104B0939204809193049091940464
:102A7000A0919504B09196040196A11DB11D80937B
:102A8000930490939404A0939504B0939604BF91FB
:102A9000AF919F918F913F912F910F900FBE0F900B
:102AA0001F9018953FB7F8948091930490919404E7
:102AB000A0919504B091960426B5A89B05C02F3F20
:102AC00019F00196A11DB11D3FBF6627782F892FF0
:102AD0009A2F620F711D811D911D42E0660F771FB5
:102AE000881F991F4A95D1F708958F929F92AF92B0
:102AF000BF92CF92DF92EF92FF926B017C01D2DF07
:102B00004B015C01C114D104E104F104E1F07FDF69
:102B1000C9DF681979098A099B09683E73408105F4
:102B2000910580F321E0C21AD108E108F10888EE8E
:102B3000880E83E0981EA11CB11CC114D104E104CD
:102B4000F10431F7DFCFFF90EF90DF90CF90BF908F
:102B5000AF909F908F900895789484B5826084BDE3
:102B600084B5816084BD85B5826085BD85B5816091
:102B700085BDEEE6F0E0808181608083E1E8F0E0F1
:102B80001082808182608083808181608083E0E820
:102B9000F0E0808181608083E1EBF0E080818460FF
:102BA0008083E0EBF0E0808181608083E1E9F0E008
:102BB000808182608083808181608083E0E9F0E0B1
:102BC000808181608083E1EAF0E08081826080839F
:102BD000808181608083E0EAF0E080818160808391
:102BE000E1E2F1E080818260808380818160808386
:102BF000E0E2F1E0808181608083EAE7F0E08081BB
:102C00008460808380818260808380818160808312
:102C10008081806880831092C100089590E0FC015B
:102C20003197E231F10508F04BC0EE58FF4F4EC727
:102C3000809180008F7703C0809180008F7D80938A
:102C40008000089580918000877FF9CF84B58F77C9
:102C500002C084B58F7D84BD08958091B0008F77C8
:102C600003C08091B0008F7D8093B0000895809163
:102C700090008F7707C0809190008F7D03C0809176
:102C80009000877F8093900008958091A0008F77B7
:102C900007C08091A0008F7D03C08091A000877F36
:102CA0008093A0000895809120018F7707C08091C4
:102CB00020018F7D03C080912001877F80932001B8
:102CC0000895CF93DF9390E0FC01E25BF94F2491EC
:102CD000FC01EC56F94F8491882349F190E0880F6C
:102CE000991FFC01E25FF84FA591B4918C50994F68
:102CF000FC01C591D4919FB7611108C0F8948C91E3
:102D0000209582238C93888182230AC0623051F4FB
:102D1000F8948C91322F309583238C938881822B69
:102D2000888304C0F8948C91822B8C939FBFDF9191
:102D3000CF9108950F931F93CF93DF931F92CDB739
:102D4000DEB7282F30E0F901E85FF94F8491F901EF
:102D5000E25BF94F1491F901EC56F94F049100230D
:102D6000C1F0882319F0698359DF6981E02FF0E011
:102D7000EE0FFF1FEC50F94FA591B4919FB7F89457
:102D80008C91611103C01095812301C0812B8C931C
:102D90009FBF0F90DF91CF911F910F910895CF9317
:102DA000DF93282F30E0F901E85FF94F8491F901B2
:102DB000E25BF94FD491F901EC56F94FC491CC2361
:102DC00089F081112BDFEC2FF0E0EE0FFF1FE652B0
:102DD000F94FA591B4912C912D2381E090E021F43D
:102DE00080E002C080E090E0DF91CF91089578D636
:102DF000FC01818D228D90E0805C9F4F821B9109A8
:102E00008F7399270895FC01918D828D981731F069
:102E1000828DE80FF11D858D90E008958FEF9FEF73
:102E20000895FC01918D828D981761F0828DDF01EC
:102E3000A80FB11D5D968C91928D9F5F9F73928FAD
:102E400090E008958FEF9FEF089586EC98E1892B2D
:102E500039F080E090E0892B19F098D1811125C0DC
:102E600080E090E0892B41F080E090E0892B21F018
:102E70000E94000081111CC080E090E0892B41F08D
:102E800080E090E0892B21F00E940000811113C0A6
:102E900080E090E0892BA1F080E090E0892B81F028
:102EA0000E94000081110AC008950E940000D8CF3E
:102EB0000E940000E1CF0E940000EACF0C940000C5
:102EC0000895FC01848DDF01A80FB11DA35ABF4FE7
:102ED0002C91848D90E001968F739927848FA68919
:102EE000B7892C93A089B1898C9180648C93938D40
:102EF000848D981306C00288F389E02D80818F7D30
:102F000080830895CF93DF93EC01888D8823C1F0EF
:102F1000EA89FB89808185FD05C0A889B9898C91E2
:102F200086FD0EC00FB607FCF5CF808185FFF2CF7E
:102F3000A889B9898C9185FFEDCFCE01C2DFE8CF9A
:102F4000DF91CF910895CF92DF92FF920F931F935D
:102F5000CF93DF931F92CDB7DEB76C0181E0D6012E
:102F600058968C9358975B969C915B975C968C9146
:102F70005C97981307C05096ED91FC915197808112
:102F800085FD2DC0F601038D10E00F5F1F4F0F73FD
:102F90001127F02EF601848DF81210C00FB607FC31
:102FA000F9CFD6015096ED91FC915197808185FF24
:102FB000F1CFC601698385DF6981ECCF838DE80F8E
:102FC000F11DE35AFF4F6083D6015B960C935B972C
:102FD0005296ED91FC915397808180620CC0D6018E
:102FE0005696ED91FC91579760835096ED91FC9128
:102FF000519780818064808381E090E00F90DF9121
:10300000CF911F910F91FF90DF90CF900895BF92C5
:10301000CF92DF92EF92FF92CF93DF93EC016A01A0
:103020007B01B22EE889F98982E08083411581EE27
:1030300058076105710599F060E079E08DE390E053
:10304000A701960105D5215031094109510956952D
:10305000479537952795211580E1380790F0E88945
:10306000F989108260E874E88EE190E0A70196018A
:10307000EFD42150310941095109569547953795AB
:103080002795EC85FD853083EE85FF852083188E9E
:10309000EC89FD89B082EA89FB8980818061808327
:1030A000EA89FB89808188608083EA89FB89808145
:1030B00080688083EA89FB8980818F7D8083DF91AE
:1030C000CF91FF90EF90DF90CF90BF9008951F9227
:1030D0000F920FB60F9211240BB60F922F938F936E
:1030E0009F93EF93FF93E091A704F091A804808150
:1030F000E091AD04F091AE0482FD12C09081809108
:10310000B0048F5F8F732091B104821751F0E0916A
:10311000B004F0E0E956FB4F958F8093B00401C0F6
:103120008081FF91EF919F918F912F910F900BBE16
:103130000F900FBE0F901F9018951F920F920FB611
:103140000F9211240BB60F922F933F934F935F93DF
:103150006F937F938F939F93AF93BF93EF93FF935F
:1031600087E994E0AEDEFF91EF91BF91AF919F911F
:103170008F917F916F915F914F913F912F910F9020
:103180000BBE0F900FBE0F901F90189587E994E02B
:103190002FDE21E0892B09F420E0822F0895109280
:1031A0009A041092990488EE93E0A0E0B0E0809336
:1031B0009B0490939C04A0939D04B0939E0487E786
:1031C00093E0909398048093970485EC90E090931B
:1031D000A4048093A30484EC90E09093A6048093CD
:1031E000A50480EC90E09093A8048093A70481EC60
:1031F00090E09093AA048093A90482EC90E09093CD
:10320000AC048093AB0486EC90E09093AE04809382
:10321000AD041092B0041092B1041092B204109256
:10322000B3040895089598DCFDDF0E94CC03C5E245
:10323000D7E10E94D9032097E1F307DEFACFCF92BE
:10324000DF92EF92FF920F931F93CF93DF937C0156
:103250006A01EB0100E010E00C151D0571F06991A9
:10326000D701ED91FC910190F081E02DC7011995F6
:10327000892B19F00F5F1F4FEFCFC801DF91CF915E
:103280001F910F91FF90EF90DF90CF9008956115FF
:10329000710581F0DB010D900020E9F7AD0141508F
:1032A0005109461B570BDC01ED91FC910280F38123
:1032B000E02D199480E090E00895E9CFDC01ED91D4
:1032C000FC910190F081E02D199463E873E0DFCF69
:1032D0000F931F93CF93DF93EC01D9DF8C01CE01C5
:1032E000F4DF800F911FDF91CF911F910F9108950F
:1032F0008F929F92AF92BF92DF92EF92FF920F93C5
:103300001F93CF93DF93CDB7DEB7A1970FB6F89495
:10331000DEBF0FBECDBF7C01F42FD52ECB0119A28D
:10332000223008F42AE08E010F5D1F4F822E912C6F
:10333000A12CB12C6F2F7D2DA501940189D3F22FE3
:10334000D32ECA01015011096A3014F4E0E301C020
:10335000E7E3E60FD801EC93232B242B252B51F721
:10336000B801C70194DFA1960FB6F894DEBF0FBE77
:10337000CDBFDF91CF911F910F91FF90EF90DF9024
:10338000BF90AF909F908F900895CF92DF92EF9271
:10339000FF920F931F93CF93DF93EC016A017B01A0
:1033A0002115310579F4E881F9810190F081E02D52
:1033B000642FDF91CF911F910F91FF90EF90DF90DD
:1033C000CF9019942A303105D9F477FF18C06DE2F7
:1033D00075DF8C0144275527BA014C195D096E0928
:1033E0007F092AE0CE0184DF800F911FDF91CF910A
:1033F0001F910F91FF90EF90DF90CF9008952AE0FA
:10340000B701A601CE01DF91CF911F910F91FF90DF
:10341000EF90DF90CF906CCF0F931F93CF93DF93FC
:10342000EC019A01AB01662757FD6095762FADDF61
:103430008C01CE014ADF800F911FDF91CF911F9148
:103440000F9108954F925F926F927F928F929F9209
:10345000AF92BF92CF92DF92EF92FF920F931F93A2
:10346000CF93DF93EC016A017B01B22E9A01AB018D
:10347000C701B601E9D2882319F066E873E024C0D9
:1034800026013701E89477F82FEF3FEF4FE75FE72A
:10349000C301B201D9D281110CC02FEF3FEF4FE72A
:1034A0005FE7C301B2011AD118161CF46AE873E091
:1034B0000BC02FEF3FEF4FE75FE4C701B6015DD2CE
:1034C0001816A4F46EE873E0CE01DF91CF911F913E
:1034D0000F91FF90EF90DF90CF90BF90AF909F90B3
:1034E0008F907F906F905F904F90D1CE2FEF3FEFF6
:1034F0004FE75FECC701B601F1D087FDE3CF20E0D5
:1035000030E0A901C701B601E9D087FF09C06DE22B
:10351000CE01D4DE8C01F7FAF094F7F8F09402C0F3
:1035200000E010E0A12C60E070E080E09FE3AB14CD
:1035300039F020E030E040E251E4D4D0A394F7CF5A
:103540009B01AC01C701B60165D06B017C0137D18D
:103550002B013C0160D19B01AC01C701B60159D0E0
:103560006B017C012AE0B301A201CE01C1DE080F8C
:10357000191FBB2031F06EE173E0CE0188DE080F29
:10358000191F7B2C772019F120E030E040E251E454
:10359000C701B601F6D16B017C010CD14B01AA2405
:1035A00097FCA094BA2C2AE030E0B501A401CE012A
:1035B000ECDE080F191FC501B4012FD19B01AC012E
:1035C000C701B60126D06B017C017A94DBCFC8011C
:1035D000DF91CF911F910F91FF90EF90DF90CF90EF
:1035E000BF90AF909F908F907F906F905F904F9023
:1035F00008950F931F93CF93DF93EC0123DF8C018A
:10360000CE0163DE800F911FDF91CF911F910F914B
:1036100008955058BB27AA270ED075C166D130F047
:103620006BD120F031F49F3F11F41EF45BC10EF416
:10363000E095E7FB51C1E92F77D180F3BA17620714
:1036400073078407950718F071F49EF58FC10EF487
:10365000E0950B2EBA2FA02D0B01B90190010C01A2
:10366000CA01A0011124FF27591B99F0593F50F4BA
:10367000503E68F11A16F040A22F232F342F442712
:10368000585FF3CF469537952795A795F04053950A
:10369000C9F77EF41F16BA0B620B730B840BBAF0DA
:1036A0009150A1F0FF0FBB1F661F771F881FC2F745
:1036B0000EC0BA0F621F731F841F48F48795779559
:1036C0006795B795F7959E3F08F0B3CF9395880F10
:1036D00008F09927EE0F979587950895D9D008F4AB
:1036E00081E008950CD00FC107D140F0FED030F03A
:1036F00021F45F3F19F0F0C0511139C1F3C014D16A
:1037000098F39923C9F35523B1F3951B550BBB27A8
:10371000AA2762177307840738F09F5F5F4F220F55
:10372000331F441FAA1FA9F333D00E2E3AF0E0E84E
:1037300030D091505040E695001CCAF729D0FE2F9A
:1037400027D0660F771F881FBB1F2617370748072C
:10375000AB07B0E809F0BB0B802DBF01FF279358E2
:103760005F4F2AF09E3F510568F0B6C000C15F3F31
:10377000ECF3983EDCF3869577956795B795F795CA
:103780009F5FC9F7880F911D9695879597F90895C2
:10379000E1E0660F771F881FBB1F6217730784075E
:1037A000BA0720F0621B730B840BBA0BEE1F88F76D
:1037B000E095089504D06894B111D9C00895BCD0A3
:1037C00088F09F5790F0B92F9927B751A0F0D1F00A
:1037D000660F771F881F991F1AF0BA95C9F712C094
:1037E000B13081F0C3D0B1E00895C0C0672F782F09
:1037F0008827B85F39F0B93FCCF386957795679500
:10380000B395D9F73EF490958095709561957F4F6B
:103810008F4F9F4F0895E89409C097FB3EF4909511
:103820008095709561957F4F8F4F9F4F9923A9F099
:10383000F92F96E9BB279395F69587957795679528
:10384000B795F111F8CFFAF4BB0F11F460FF1BC06C
:103850006F5F7F4F8F4F9F4F16C0882311F096E9FF
:1038600011C0772321F09EE8872F762F05C06623AD
:1038700071F096E8862F70E060E02AF09A95660F66
:10388000771F881FDAF7880F9695879597F908951F
:10389000990F0008550FAA0BE0E8FEEF1616170661
:1038A000E807F907C0F012161306E407F50798F0C9
:1038B000621B730B840B950B39F40A2661F0232BE2
:1038C000242B252B21F408950A2609F4A140A6955E
:1038D0008FEF811D811D089597F99F6780E870E043
:1038E00060E008959FEF80EC089500240A94161676
:1038F000170618060906089500240A9412161306DE
:10390000140605060895092E0394000C11F488236B
:1039100052F0BB0F40F4BF2B11F460FF04C06F5F87
:103920007F4F8F4F9F4F089557FD9058440F551F5D
:1039300059F05F3F71F04795880F97FB991F61F031
:103940009F3F79F087950895121613061406551FA8
:10395000F2CF4695F1DF08C0161617061806991F14
:10396000F1CF86957105610508940895E894BB2709
:1039700066277727CB0197F908958ADF08F48FEF40
:1039800008950BD0C0CFB1DF28F0B6DF18F0952333
:1039900009F0A2CFA7CF1124EACFC6DFA0F3959FED
:1039A000D1F3950F50E0551F629FF001729FBB2726
:1039B000F00DB11D639FAA27F00DB11DAA1F649FD2
:1039C0006627B00DA11D661F829F2227B00DA11D85
:1039D000621F739FB00DA11D621F839FA00D611D0B
:1039E000221F749F3327A00D611D231F849F600D2C
:1039F000211D822F762F6A2F11249F5750408AF065
:103A0000E1F088234AF0EE0FFF1FBB1F661F771FF0
:103A1000881F91505040A9F79E3F510570F05CCF30
:103A2000A6CF5F3FECF3983EDCF3869577956795DC
:103A3000B795F795E7959F5FC1F7FE2B880F911D0E
:103A40009695879597F9089523DF880B990B08952C
:103A5000A1E21A2EAA1BBB1BFD010DC0AA1FBB1F92
:103A6000EE1FFF1FA217B307E407F50720F0A21B04
:103A7000B30BE40BF50B661F771F881F991F1A9471
:103A800069F760957095809590959B01AC01BD019B
:103A9000CF010895052E97FB16F400940FD057FD23
:103AA00005D0D6DF07FC02D046F408C050954095FB
:103AB000309521953F4F4F4F5F4F089590958095DA
:103AC000709561957F4F8F4F9F4F0895EE0FFF1FA9
:103AD0000590F491E02D19940790F691E02D19943A
:0C3AE00081E090E0F89400C0F894FFCF63
:103AEC000000340580002D002300C8009600000063
:103AFC00000049041D04F203FA030D041C04000029
:103B0C000000480B1F19F71617061D073407CE06C1
:103B1C004A077F079D0700000000480B1F193E0F46
:103B2C001706BD0F4F10CE06E110340CF10C546586
:103B3C006D70202846293A20005365636F6E6461CE
:103B4C0072792068656174696E6720656C656D6556
:103B5C006E7420686173206265656E207475726E78
:103B6C006564206F66662E00526F617374206973F2
:103B7C0020646F6E65210054656D70206973206739
:103B8C00726561746572207468616E203231322006
:103B9C00646567726565732046210054656D7020FD
:103BAC006973206E6F74206772656174657220741E
:103BBC0068616E20323132206465677265657320EE
:103BCC0046004C69766520526F61737420436F6EAA
:103BDC0074726F6C0054656D700046616E005269B2
:103BEC0067687420526F6173740057616974696EF1
:103BFC0067206F6E20636F6D6D616E642E2E2E00CC
:103C0C004E616D653A204672656E636820526F6135
:103C1C007374004265616E20547970653A2050656A
:103C2C0072757669616E00526F617374205479708D
:103C3C00653A204461726B0054617267657420545C
:103C4C00656D703A0043757272656E742054656DC3
:103C5C00703A0000000000A3171F19F81611170383
:103C6C001782170D0A006E616E00696E66006F7622
:023C7C006600E0
:00000001FF
