:100000000C94F4120C9416510C9441510C946C51B4
:100010000C9497510C94C2510C94ED510C941852BD
:100020000C9443520C9425130C9425130C94251313
:100030000C9425130C9425130C9425130C94251360
:100040000C9425130C9425130C9425130C94251350
:100050000C9425130C9425130C9425130C946E52B8
:100060000C9425130C94DB550C9411560C94251309
:100070000C9425130C9425130C9425130C94251320
:100080000C9425130C9425130C9425130C94251310
:100090000C9425130C9425130C9425130C944A15D9
:1000A0000C9425130C9425130C9425130C942513F0
:1000B0000C9425130C9425130C9425130C942513E0
:1000C0000C9425130C9425130C9425130C942513D0
:1000D0000C9425130C9425130C9425130C942513C0
:1000E0000C942513B916CC16BB16BD16BF16C11637
:1000F000C316C5163247FF46F64611470647034763
:10010000B146CD46C95093509B50A750B450D550DE
:10011000E2500651FC50FE500051025108510A5164
:1001200099539C538B538F539553D353A053A4533C
:10013000AA53AE53B253B853BC53C053D353C65350
:10014000CA53CE5300000000003E5B4F5B3E3E6B47
:100150004F6B3E1C3E7C3E1C183C7E3C181C577D61
:10016000571C1C5E7F5E1C00183C1800FFE7C3E7AD
:10017000FF0018241800FFE7DBE7FF30483A060EBF
:100180002629792926407F050507407F05253F5A06
:100190003CE73C5A7F3E1C1C08081C1C3E7F142276
:1001A0007F22145F5F005F5F06097F017F00668921
:1001B000956A606060606094A2FFA29408047E0467
:1001C0000810207E201008082A1C08081C2A08088D
:1001D0001E101010100C1E0C1E0C30383E3830064D
:1001E0000E3E0E06000000000000005F0000000749
:1001F000000700147F147F14242A7F2A1223130877
:10020000646236495620500008070300001C224152
:10021000000041221C002A1C7F1C2A08083E0808F6
:1002200000807030000808080808000060600020A6
:10023000100804023E5149453E00427F4000724989
:100240004949462141494D331814127F102745452D
:1002500045393C4A49493141211109073649494943
:1002600036464949291E00001400000040340000B1
:10027000000814224114141414140041221408021A
:10028000015909063E415D594E7C1211127C7F498D
:100290004949363E414141227F4141413E7F4949E2
:1002A00049417F090909013E414151737F0808080E
:1002B0007F00417F41002040413F017F08142241DF
:1002C0007F404040407F021C027F7F0408107F3E39
:1002D0004141413E7F090909063E4151215E7F09A6
:1002E000192946264949493203017F01033F40400D
:1002F000403F1F2040201F3F4038403F63140814F8
:100300006303047804036159494D43007F4141412F
:100310000204081020004141417F04020102044010
:1003200040404040000307080020545478407F2894
:100330004444383844444428384444287F3854548A
:10034000541800087E090218A4A49C787F080404AD
:100350007800447D40002040403D007F102844004C
:1003600000417F40007C047804787C0804047838DD
:1003700044444438FC1824241818242418FC7C080D
:10038000040408485454542404043F44243C40408A
:10039000207C1C2040201C3C4030403C442810283D
:1003A000444C9090907C4464544C44000836410086
:1003B0000000770000004136080002010204023C00
:1003C0002623263C1EA1A161123A4040207A3854CF
:1003D0005455592155557941225454784221555448
:1003E000784020545579400C1E527212395555559B
:1003F00059395454545939555454580000457C4186
:100400000002457D420001457C407D1211127DF0C5
:10041000282528F07C545545002054547C547C0AEF
:10042000097F4932494949323A4444443A324A48B8
:1004300048303A4141217A3A42402078009DA0A0BC
:100440007D3D4242423D3D4040403D3C24FF24240E
:10045000487E4943662B2FFC2F2BFF0929F620C02D
:10046000887E090320545479410000447D4130487E
:10047000484A32384040227A007A0A0A727D0D19C1
:10048000317D2629292F28262929292630484D4023
:1004900020380808080808080808382F10C8ACBA1F
:1004A0002F102834FA00007B000008142A1422229E
:1004B000142A14085500550055AA55AA55AAFF55E7
:1004C000FF55FF000000FF00101010FF001414146F
:1004D000FF001010FF00FF1010F010F0141414FCB7
:1004E000001414F700FF0000FF00FF1414F404FCD4
:1004F000141417101F10101F101F1414141F0010B5
:100500001010F0000000001F101010101F1010102D
:1005100010F010000000FF1010101010101010103C
:10052000FF10000000FF140000FF00FF00001F107C
:10053000170000FC04F414141710171414F404F436
:100540000000FF00F714141414141414F700F71427
:100550001414171410101F101F141414F414101076
:10056000F010F000001F101F0000001F140000001A
:10057000FC140000F010F01010FF10FF141414FF12
:10058000141010101F00000000F010FFFFFFFFFF0D
:10059000F0F0F0F0F0FFFFFF0000000000FFFF0FA1
:1005A0000F0F0F0F3844443844FC4A4A4A347E0245
:1005B000020606027E027E026355494163384444C6
:1005C0003C04407E201E2006027E020299A5E7A57B
:1005D000991C2A492A1C4C7201724C304A4D4D30EC
:1005E0003048784830BC625A463D3E494949007E11
:1005F0000101017E2A2A2A2A2A44445F44444051A8
:100600004A444040444A51400000FF0103E080FF5B
:10061000000008086B6B083612362436060F090FE7
:1006200006000018180000001010003040FF010103
:10063000001F01011E00191D1712003C3C3C3C002C
:1006400000000000436F6E6E656374696F6E206614
:1006500061696C6564000D0A00417574686F7269A8
:100660007A6174696F6E3A204A57542065794A302E
:10067000655841694F694A4B563151694C434A6844
:10068000624763694F694A49557A49314E694A3927
:100690002E65794A66615751694F6949314E7A68CA
:1006A0006C595451324E4449334E475A6C4D444173
:1006B000344D6A557959545933596D49694C434AF7
:1006C0003163325679626D46745A534936496B56D6
:1006D0006959586C30595734694C434A7759584EC8
:1006E0007A643239795A43493649695179595351B3
:1006F000784D43524E636B5A45563264745A48469D
:1007000043553051355547387557585A484E7A59E0
:10071000755646425A5330683459337069656E468F
:100720006D526E5271525446745A303144597A5255
:100730006A5A555979536E464661534973496D5605
:100740007459576C73496A6F6961575632595735F6
:100750006959586C30595735415A32316861577769
:1007600075593239744969776958313932496A6F34
:10077000774C434A796232467A64476C755A334201
:100780007962325A706247567A496A706258537772
:1007900069636D39686333526C6369493665794AB8
:1007A000796232467A6447567956556C45496A6F84
:1007B000694D54497A4E434A394C434A7959585203
:1007C00070626D63694F6E736959585A6E556D4604
:1007D000306157356E496A6F774C434A3062335205
:1007E000686245466A59314A6864476C755A794966
:1007F000364D437769626E5674596D567962325A36
:100800005359585270626D647A496A6F77665830EE
:100810002E58486C616934426E3465714E54497A81
:10082000654274543234694752653378706839329E
:10083000673659425334474D56475377000D0A00E7
:10084000486F73743A200020485454502F312E3191
:100850000D0A00504F53542000436F6E6E65637451
:10086000696F6E206661696C6564000D0A004175F0
:1008700074686F72697A6174696F6E3A204A57546E
:100880002065794A30655841694F694A4B56315164
:10089000694C434A68624763694F694A49557A49D6
:1008A000314E694A392E65794A66615751694F69F7
:1008B00049314E7A686C595451324E4449334E474F
:1008C0005A6C4D4441344D6A557959545933596DD8
:1008D00049694C434A3163325679626D46745A53C2
:1008E0004936496B566959586C30595734694C43ED
:1008F0004A7759584E7A643239795A4349364969A8
:100900005179595351784D43524E636B5A45563283
:1009100064745A48464355305135554738755758D1
:100920005A484E7A59755646425A533068345933AC
:100930007069656E466D526E5271525446745A30EB
:100940003144597A526A5A555979536E4646615321
:100950004973496D567459576C73496A6F69615789
:1009600056325957356959586C30595735415A32B2
:1009700031686157777559323974496977695831E7
:100980003932496A6F774C434A796232467A644712
:100990006C755A33427962325A706247567A496AA4
:1009A000706258537769636D39686333526C636959
:1009B000493665794A796232467A6447567956559E
:1009C0006C45496A6F694D54497A4E434A394C43E4
:1009D0004A7959585270626D63694F6E73695958FC
:1009E0005A6E556D46306157356E496A6F774C4384
:1009F0004A30623352686245466A59314A686447F0
:100A00006C755A7949364D437769626E5674596DE3
:100A1000567962325A5359585270626D647A496AF3
:100A20006F776658302E58486C616934426E346571
:100A3000714E54497A654274543234694752653371
:100A40007870683932673659425334474D564753A8
:100A500077000D0A00486F73743A20002048545400
:100A6000502F312E310D0A00504F53542000436F48
:100A70006E6E656374696F6E206661696C65640093
:100A80000D0A00417574686F72697A6174696F6EDE
:100A90003A204A57542065794A30655841694F6970
:100AA0004A4B563151694C434A68624763694F6902
:100AB0004A49557A49314E694A392E65794A666103
:100AC0005751694F6949314E7A686C595451324EC9
:100AD0004449334E475A6C4D4441344D6A55795917
:100AE000545933596D49694C434A316332567962DE
:100AF0006D46745A534936496B566959586C30598A
:100B00005734694C434A7759584E7A643239795A86
:100B100043493649695179595351784D43524E638F
:100B20006B5A45563264745A4846435530513555D0
:100B300047387557585A484E7A59755646425A534F
:100B400030683459337069656E466D526E52715219
:100B50005446745A303144597A526A5A5559795325
:100B60006E464661534973496D567459576C7349C3
:100B70006A6F69615756325957356959586C3059FF
:100B80005735415A3231686157777559323974494E
:100B900069776958313932496A6F774C434A7962CB
:100BA00032467A64476C755A33427962325A7062BF
:100BB00047567A496A706258537769636D3968633A
:100BC00033526C6369493665794A796232467A6490
:100BD00047567956556C45496A6F694D54497A4E66
:100BE000434A394C434A7959585270626D63694F90
:100BF0006E736959585A6E556D46306157356E4956
:100C00006A6F774C434A30623352686245466A598C
:100C1000314A6864476C755A7949364D4377696241
:100C20006E5674596D567962325A535958527062E1
:100C30006D647A496A6F776658302E58486C6169DE
:100C400034426E3465714E54497A6542745432347C
:100C50006947526533787068393267365942533480
:100C6000474D56475377000D0A00486F73743A207A
:100C70000020485454502F312E310D0A00504F534C
:100C8000542000436F756C646E2774207265736F17
:100C90006C76652100202D3E20000D0A0041757400
:100CA000686F72697A6174696F6E3A204A5754208E
:100CB00065794A30655841694F694A4B56315169E7
:100CC0004C434A68624763694F694A49557A4931DA
:100CD0004E694A392E65794A66615751694F6949AB
:100CE000314E7A5A685A5745795A6D466B4F444986
:100CF00030593249314D5755334E3255795A57494B
:100D0000694C434A3163325679626D46745A53498D
:100D100036496B566959586C30595734694C434AB7
:100D20007759584E7A643239795A4349364969516C
:100D300079595351784D43517A5348466B57484E31
:100D40004F5A6E4A7055485A6F4D55646E4D7A42EF
:100D500051614851755555786B64566859635664AE
:100D6000714E693534646D3948557A4A795A554619
:100D700075566D686B656C6C6E4F57395861534989
:100D800073496D567459576C73496A6F6961575648
:100D9000325957356959586C30595735415A3231A3
:100DA00068615777755932397449697769583139AB
:100DB00032496A6F774C434A796232467A64476CAB
:100DC000755A33427962325A706247567A496A706C
:100DD00062496B356C64794246626D64735957356C
:100DE0006B49697769546D5633494556755A32785F
:100DF00068626D516958537769636D39686333521E
:100E00006C6369493665794A796232467A64476C1F
:100E1000755A314E305958523163794936496E4EC0
:100E20003059584A304C58426C626D5270626D6352
:100E3000694C434A796232467A6445526864474550
:100E4000694F694A4F5A5863675257356E62474631
:100E5000755A434A394C434A7959585270626D6306
:100E6000694F6E736959585A6E556D4630615735E2
:100E70006E496A6F774C434A306233526862454626
:100E80006A59314A6864476C755A7949364D4377D7
:100E900069626E5674596D567962325A5359585276
:100EA00070626D647A496A6F776658302E76703357
:100EB000377766786A6B5848634E52545F6C554872
:100EC000417164442D76455843534E364C43387730
:100ED000627843652D637967000D0A00486F73746B
:100EE0003A200020485454502F312E310D0A005022
:100EF0004F535420000D0A00417574686F72697A6F
:100F00006174696F6E3A204A57542065794A30659A
:100F10005841694F694A4B563151694C434A68629E
:100F20004763694F694A49557A49314E694A392EB2
:100F300065794A66615751694F6949314E7A5A68F5
:100F40005A5745795A6D466B4F44493059324931A9
:100F50004D5755334E3255795A5749694C434A31AA
:100F600063325679626D46745A534936496B5669F5
:100F700059586C30595734694C434A7759584E7A0E
:100F8000643239795A43493649695179595351780C
:100F90004D43517A5348466B57484E4F5A6E4A70EC
:100FA00055485A6F4D55646E4D7A4251614851759E
:100FB0005555786B64566859635664714E6935347B
:100FC000646D3948557A4A795A554675566D686B3D
:100FD000656C6C6E4F57395861534973496D56743F
:100FE00059576C73496A6F69615756325957356959
:100FF00059586C30595735415A32316861577775B5
:10100000593239744969776958313932496A6F7789
:101010004C434A796232467A64476C755A33427956
:1010200062325A706247567A496A7062496B356C0F
:1010300064794246626D64735957356B49697769C3
:10104000546D5633494556755A327868626D516908
:1010500058537769636D39686333526C63694936F5
:1010600065794A796232467A64476C755A314E30F6
:101070005958523163794936496E4E3059584A3081
:101080004C58426C626D5270626D63694C434A7990
:101090006232467A64455268644745694F694A4FEF
:1010A0005A5863675257356E624746755A434A39F4
:1010B0004C434A7959585270626D63694F6E736937
:1010C00059585A6E556D46306157356E496A6F777B
:1010D0004C434A30623352686245466A59314A6825
:1010E00064476C755A7949364D437769626E567418
:1010F000596D567962325A5359585270626D647AFA
:10110000496A6F776658302E767033377766786A1B
:101110006B5848634E52545F6C5548417164442D7E
:1011200076455843534E364C433877627843652DA5
:10113000637967000D0A00486F73743A20002048F5
:101140005454502F312E310D0A00504F535420006B
:101150000D0A00417574686F72697A6174696F6E07
:101160003A204A57542065794A30655841694F6999
:101170004A4B563151694C434A68624763694F692B
:101180004A49557A49314E694A392E65794A66612C
:101190005751694F6949314E7A5A685A5745795AB9
:1011A0006D466B4F444930593249314D5755334E96
:1011B0003255795A5749694C434A316332567962FC
:1011C0006D46745A534936496B566959586C3059B3
:1011D0005734694C434A7759584E7A643239795AB0
:1011E00043493649695179595351784D43517A539E
:1011F00048466B57484E4F5A6E4A7055485A6F4D85
:1012000055646E4D7A4251614851755555786B64FD
:10121000566859635664714E693534646D39485562
:101220007A4A795A554675566D686B656C6C6E4F87
:1012300057395861534973496D567459576C7349FE
:101240006A6F69615756325957356959586C305928
:101250005735415A32316861577775593239744977
:1012600069776958313932496A6F774C434A7962F4
:1012700032467A64476C755A33427962325A7062E8
:1012800047567A496A7062496B356C6479424662A6
:101290006D64735957356B49697769546D56334995
:1012A0004556755A327868626D516958537769634B
:1012B0006D39686333526C6369493665794A79627E
:1012C00032467A64476C755A314E30595852316300
:1012D000794936496E4E3059584A304C58426C6202
:1012E0006D5270626D63694C434A796232467A642A
:1012F000455268644745694F694A4F5A5863675277
:1013000057356E624746755A434A394C434A7959B4
:10131000585270626D63694F6E736959585A6E55B1
:101320006D46306157356E496A6F774C434A30627B
:101330003352686245466A59314A6864476C755A47
:101340007949364D437769626E5674596D567962A4
:10135000325A5359585270626D647A496A6F77668F
:1013600058302E767033377766786A6B5848634EFC
:1013700052545F6C5548417164442D76455843532F
:101380004E364C433877627843652D637967000D9C
:101390000A00486F73743A200020485454502F318B
:1013A0002E310D0A00504F535420000D0A00417594
:1013B00074686F72697A6174696F6E3A204A575423
:1013C0002065794A30655841694F694A4B56315119
:1013D000694C434A68624763694F694A49557A498B
:1013E000314E694A392E65794A66615751694F69AC
:1013F00049314E7A5A685A5745795A6D466B4F446F
:101400004930593249314D5755334E3255795A5733
:1014100049694C434A3163325679626D46745A5376
:101420004936496B566959586C30595734694C43A1
:101430004A7759584E7A643239795A43493649695C
:101440005179595351784D43517A5348466B574817
:101450004E4F5A6E4A7055485A6F4D55646E4D7ACC
:101460004251614851755555786B645668596356B9
:1014700064714E693534646D3948557A4A795A55E4
:101480004675566D686B656C6C6E4F573958615375
:101490004973496D567459576C73496A6F6961573E
:1014A00056325957356959586C30595735415A3267
:1014B000316861577775593239744969776958319C
:1014C0003932496A6F774C434A796232467A6447C7
:1014D0006C755A33427962325A706247567A496A59
:1014E0007062496B356C64794246626D647359571A
:1014F000356B49697769546D5633494556755A328B
:101500007868626D516958537769636D39686333E0
:10151000526C6369493665794A796232467A644722
:101520006C755A314E305958523163794936496E8B
:101530004E3059584A304C58426C626D5270626D50
:1015400063694C434A796232467A6445526864471B
:1015500045694F694A4F5A5863675257356E62471B
:1015600046755A434A394C434A7959585270626D0C
:1015700063694F6E736959585A6E556D463061579D
:10158000356E496A6F774C434A3062335268624520
:10159000466A59314A6864476C755A7949364D43F1
:1015A0007769626E5674596D567962325A5359583A
:1015B0005270626D647A496A6F776658302E767021
:1015C00033377766786A6B5848634E52545F6C5570
:1015D00048417164442D76455843534E364C433848
:1015E00077627843652D637967000D0A00486F7351
:1015F000743A200020485454502F312E310D0A00E7
:10160000504F535420000D0A00417574686F726981
:101610007A6174696F6E3A204A57542065794A306E
:10162000655841694F694A4B563151694C434A6884
:10163000624763694F694A49557A49314E694A3967
:101640002E65794A66615751694F6949314E7A5A18
:10165000685A5745795A6D466B4F4449305932495B
:10166000314D5755334E3255795A5749694C434A93
:101670003163325679626D46745A534936496B5616
:101680006959586C30595734694C434A7759584E08
:101690007A643239795A43493649695179595351F3
:1016A000784D43517A5348466B57484E4F5A6E4ACD
:1016B0007055485A6F4D55646E4D7A42516148518C
:1016C000755555786B64566859635664714E693523
:1016D00034646D3948557A4A795A554675566D685D
:1016E0006B656C6C6E4F57395861534973496D5631
:1016F0007459576C73496A6F696157563259573537
:101700006959586C30595735415A323168615777A9
:1017100075593239744969776958313932496A6F74
:10172000774C434A796232467A64476C755A334241
:101730007962325A706247567A496A7062496B35EB
:101740006C64794246626D64735957356B496977A9
:1017500069546D5633494556755A327868626D51F1
:101760006958537769636D39686333526C636949AB
:101770003665794A796232467A64476C755A314ED9
:10178000305958523163794936496E4E3059584A6A
:10179000304C58426C626D5270626D63694C434AC2
:1017A000796232467A64455268644745694F694AAE
:1017B0004F5A5863675257356E624746755A434AC7
:1017C000394C434A7959585270626D63694F6E7350
:1017D0006959585A6E556D46306157356E496A6F72
:1017E000774C434A30623352686245466A59314AFF
:1017F0006864476C755A7949364D437769626E560D
:1018000074596D567962325A5359585270626D64E8
:101810007A496A6F776658302E76703337776678F4
:101820006A6B5848634E52545F6C5548417164442A
:101830002D76455843534E364C433877627843658E
:101840002D637967000D0A00486F73743A200020F9
:10185000485454502F312E310D0A00504F5354200C
:10186000000D0A00417574686F72697A6174696F5E
:101870006E3A204A57542065794A30655841694F7D
:10188000694A4B563151694C434A68624763694F14
:10189000694A49557A49314E694A392E65794A660D
:1018A000615751694F6949314E7A5A685A5745799B
:1018B0005A6D466B4F444930593249314D57553373
:1018C0004E3255795A5749694C434A3163325679F9
:1018D000626D46745A534936496B566959586C3093
:1018E000595734694C434A7759584E7A643239799A
:1018F0005A43493649695179595351784D43517A80
:101900005348466B57484E4F5A6E4A7055485A6F67
:101910004D55646E4D7A4251614851755555786BFD
:1019200064566859635664714E693534646D39483C
:10193000557A4A795A554675566D686B656C6C6E6A
:101940004F57395861534973496D567459576C73E1
:10195000496A6F69615756325957356959586C3021
:10196000595735415A323168615777755932397450
:101970004969776958313932496A6F774C434A79F6
:101980006232467A64476C755A33427962325A70D1
:101990006247567A496A7062496B356C647942468F
:1019A000626D64735957356B49697769546D563365
:1019B000494556755A327868626D5169585377694E
:1019C000636D39686333526C6369493665794A7966
:1019D0006232467A64476C755A314E3059585231EA
:1019E00063794936496E4E3059584A304C58426CEA
:1019F000626D5270626D63694C434A796232467A15
:101A000064455268644745694F694A4F5A5863674D
:101A10005257356E624746755A434A394C434A79A4
:101A200059585270626D63694F6E736959585A6E96
:101A3000556D46306157356E496A6F774C434A3071
:101A4000623352686245466A59314A6864476C7528
:101A50005A7949364D437769626E5674596D567995
:101A600062325A5359585270626D647A496A6F777C
:101A70006658302E767033377766786A6B584863CD
:101A80004E52545F6C5548417164442D764558431D
:101A9000534E364C433877627843652D637967003F
:101AA0000D0A00486F73743A200020485454502F98
:101AB000312E310D0A00504F535420000D0A0041C1
:101AC0007574686F72697A6174696F6E3A204A57EB
:101AD000542065794A30655841694F694A4B5631FF
:101AE00051694C434A68624763694F694A49557A6C
:101AF00049314E694A392E65794A66615751694FB5
:101B00006949314E7A5A685A5745795A6D466B4F32
:101B1000444930593249314D5755334E3255795A2F
:101B20005749694C434A3163325679626D46745A5B
:101B3000534936496B566959586C30595734694C7A
:101B4000434A7759584E7A643239795A434936496B
:101B5000695179595351784D43517A5348466B57DF
:101B6000484E4F5A6E4A7055485A6F4D55646E4DE7
:101B70007A4251614851755555786B64566859637E
:101B80005664714E693534646D3948557A4A795ACC
:101B9000554675566D686B656C6C6E4F573958615C
:101BA000534973496D567459576C73496A6F69612B
:101BB0005756325957356959586C30595735415A2B
:101BC0003231686157777559323974496977695884
:101BD000313932496A6F774C434A796232467A64C6
:101BE000476C755A33427962325A706247567A4965
:101BF0006A7062496B356C64794246626D647359F0
:101C000057356B49697769546D5633494556755A4E
:101C1000327868626D516958537769636D396863CA
:101C200033526C6369493665794A796232467A641F
:101C3000476C755A314E305958523163794936499B
:101C40006E4E3059584A304C58426C626D52706238
:101C50006D63694C434A796232467A6445526864DE
:101C60004745694F694A4F5A5863675257356E6204
:101C70004746755A434A394C434A7959585270621B
:101C80006D63694F6E736959585A6E556D46306170
:101C900057356E496A6F774C434A306233526862F7
:101CA00045466A59314A6864476C755A7949364DD8
:101CB000437769626E5674596D567962325A535938
:101CC000585270626D647A496A6F776658302E7622
:101CD0007033377766786A6B5848634E52545F6C3E
:101CE0005548417164442D76455843534E364C4314
:101CF0003877627843652D637967000D0A00486F75
:101D000073743A200020485454502F312E310D0A5C
:101D100000504F535420000D0A00417574686F72D3
:101D2000697A6174696F6E3A204A57542065794A1E
:101D300030655841694F694A4B563151694C434AA5
:101D400068624763694F694A49557A49314E694A21
:101D5000392E65794A66615751694F6949314E7A22
:101D60005A685A5745795A6D466B4F444930593233
:101D700049314D5755334E3255795A5749694C437D
:101D80004A3163325679626D46745A534936496B0B
:101D9000566959586C30595734694C434A775958E9
:101DA0004E7A643239795A434936496951795953DF
:101DB00051784D43517A5348466B57484E4F5A6EAF
:101DC0004A7055485A6F4D55646E4D7A425161487C
:101DD00051755555786B64566859635664714E69F0
:101DE0003534646D3948557A4A795A554675566D79
:101DF000686B656C6C6E4F57395861534973496D08
:101E0000567459576C73496A6F69615756325957FE
:101E1000356959586C30595735415A3231686157D4
:101E20007775593239744969776958313932496A55
:101E30006F774C434A796232467A64476C755A33FD
:101E4000427962325A706247567A496A7062496BC7
:101E5000356C64794246626D64735957356B4969D4
:101E60007769546D5633494556755A327868626DB4
:101E7000516958537769636D39686333526C63698C
:101E8000493665794A796232467A64476C755A31C7
:101E90004E305958523163794936496E4E3059584F
:101EA0004A304C58426C626D5270626D63694C43AB
:101EB0004A796232467A64455268644745694F6997
:101EC0004A4F5A5863675257356E624746755A43B0
:101ED0004A394C434A7959585270626D63694F6E62
:101EE000736959585A6E556D46306157356E496A57
:101EF0006F774C434A30623352686245466A5931C3
:101F00004A6864476C755A7949364D437769626E01
:101F10005674596D567962325A5359585270626DDF
:101F2000647A496A6F776658302E767033377766F1
:101F3000786A6B5848634E52545F6C5548417164DF
:101F4000442D76455843534E364C43387762784398
:101F5000652D637967000D0A00486F73743A20009D
:101F600020485454502F312E310D0A00504F5354F5
:101F700020000D0A00417574686F72697A61746996
:101F80006F6E3A204A57542065794A306558416946
:101F90004F694A4B563151694C434A6862476369FD
:101FA0004F694A49557A49314E694A392E65794A0D
:101FB00066615751694F6949314E7A5A685A574597
:101FC000795A6D466B4F444930593249314D575516
:101FD000334E3255795A5749694C434A3163325628
:101FE00079626D46745A534936496B566959586C33
:101FF00030595734694C434A7759584E7A643239CC
:10200000795A43493649695179595351784D435169
:102010007A5348466B57484E4F5A6E4A7055485A45
:102020006F4D55646E4D7A425161485175555578E2
:102030006B64566859635664714E693534646D3902
:1020400048557A4A795A554675566D686B656C6C79
:102050006E4F57395861534973496D567459576CCF
:1020600073496A6F69615756325957356959586CC7
:1020700030595735415A323168615777755932397D
:10208000744969776958313932496A6F774C434AE4
:10209000796232467A64476C755A33427962325AB1
:1020A000706247567A496A7062496B356C6479424E
:1020B00046626D64735957356B49697769546D563B
:1020C00033494556755A327868626D51695853776D
:1020D00069636D39686333526C6369493665794A5F
:1020E000796232467A64476C755A314E305958528B
:1020F0003163794936496E4E3059584A304C58420E
:102100006C626D5270626D63694C434A796232460B
:102110007A64455268644745694F694A4F5A586323
:10212000675257356E624746755A434A394C434A9F
:102130007959585270626D63694F6E736959585A74
:102140006E556D46306157356E496A6F774C434A1C
:1021500030623352686245466A59314A6864476C56
:10216000755A7949364D437769626E5674596D5682
:102170007962325A5359585270626D647A496A6F63
:10218000776658302E767033377766786A6B5848A2
:10219000634E52545F6C5548417164442D764558E6
:1021A00043534E364C433877627843652D637967E5
:1021B000000D0A00486F73743A20002048545450B0
:1021C0002F312E310D0A00504F53542000436F6EB3
:1021D0006E656374696F6E206661696C6564000D7D
:1021E0000A00417574686F72697A6174696F6E3A3A
:1021F000204A57542065794A30655841694F694AE9
:102200004B563151694C434A68624763694F694A8A
:1022100049557A49314E694A392E65794A6661577E
:1022200051694F6949314E7A5A685A5745795A6D02
:10223000466B4F444930593249314D5755334E3230
:1022400055795A5749694C434A3163325679626D20
:1022500046745A534936496B566959586C30595728
:1022600034694C434A7759584E7A643239795A4323
:10227000493649695179595351784D43517A5348F8
:10228000466B57484E4F5A6E4A7055485A6F4D55D7
:10229000646E4D7A4251614851755555786B64565C
:1022A0006859635664714E693534646D3948557A9E
:1022B0004A795A554675566D686B656C6C6E4F570A
:1022C000395861534973496D567459576C73496A4B
:1022D0006F69615756325957356959586C3059579B
:1022E00035415A32316861577775593239744969C5
:1022F000776958313932496A6F774C434A7962328B
:10230000467A64476C755A33427962325A70624732
:10231000567A496A7062496B356C64794246626DDF
:1023200064735957356B49697769546D563349451C
:1023300056755A327868626D516958537769636D82
:1023400039686333526C6369493665794A79623218
:10235000467A64476C755A314E3059585231637918
:102360004936496E4E3059584A304C58426C626D6D
:102370005270626D63694C434A796232467A6445B1
:102380005268644745694F694A4F5A5863675257C4
:10239000356E624746755A434A394C434A79595813
:1023A0005270626D63694F6E736959585A6E556DFC
:1023B00046306157356E496A6F774C434A30623315
:1023C00052686245466A59314A6864476C755A7961
:1023D00049364D437769626E5674596D567962324B
:1023E0005A5359585270626D647A496A6F776658C9
:1023F000302E767033377766786A6B5848634E5262
:10240000545F6C5548417164442D76455843534E92
:10241000364C433877627843652D637967000D0A3F
:1024200000486F73743A200020485454502F312EC6
:10243000310D0A004745542000436F756C646E27C8
:1024400074207265736F6C76652100202D3E20002C
:10245000436F6E6E656374656421004661696C65E7
:102460006421000A417474656D7074696E6720742C
:102470006F20636F6E6E65637420746F2000436F0E
:10248000756C646E277420626567696E2829212047
:10249000436865636B20796F757220776972696E26
:1024A000673F000A496E697469616C697A696E6791
:1024B0002E2E2E0000000A0B02090C0D0E08070339
:1024C0000401000000000000000000000000000007
:1024D00000000000000000000000000000000000FC
:1024E00012111000000000000000000000000000B9
:1024F0000000000000000000000001021020200881
:10250000081020401020408002010201080402014E
:1025100001020408102040808040201008040201BD
:102520008004020180402010080402010804020116
:10253000010204081020408001020408102040809D
:1025400005050505070508080808020202020A0A2F
:10255000080804040404010101010101010103034D
:10256000030303030303040707070C0C0C0C0C0CF8
:102570000C0C0202020206060606060606060B0BF5
:102580000B0B0B0B0B0B0000200023002600290077
:102590002C002F0032000001000003010601090198
:1025A00000002200250028002B002E0031003400FE
:1025B00002010000050108010B01000021002400B8
:1025C00027002A002D003000330001010000040123
:1025D00007010A0177141E151C1E271EEF3B663EDD
:1025E000C53F4E484356D35611241FBECFEFD1E20C
:1025F000DEBFCDBF00E00CBF19E0A0E0B2E0ECEA26
:10260000FEEB00E00BBF02C007900D92A83EB107A1
:10261000D9F72DE0A8EEB9E001C01D92A435B207AC
:10262000E1F715E2C8EED5E200E006C02297010905
:10263000FE010BBF0E94285DC43DD10780E0080762
:10264000A9F70E94E3560C94545F0C94000068E6CE
:1026500072E08BEA9CE00E9489578BEE99E00E9421
:10266000354061E08EE10E94D45360E08EE10E942B
:102670000D5467E675E08BEA9CE00C948957CF9384
:10268000DF93EC0144960E943C59CE010C960E94C7
:102690003C59CE0106960E943C59CE01DF91CF9164
:1026A0000C943C59EF92FF920F931F93CF93DF93BB
:1026B000CDB7DEB7C054D1090FB6F894DEBF0FBE58
:1026C000CDBFCE014B960E9488478091E8098111C9
:1026D00030C060E872E08BEA9CE00E948957CE012E
:1026E00001960E948847BE016F5F7F4FCE014B96D7
:1026F0000E94095ABE01695F7F4FCE0181960E94F8
:10270000095ABE01635F7F4FCE0187960E94095A26
:102710008B899C899EA78DA7BE016B5E7F4FCE01E2
:102720008F960E94095ACE010196A9DF81E080931D
:10273000E80989EE99E00E94633E882379F068E910
:1027400072E08BEA9CE00E948957CE014B960E9472
:102750003B4A60E089EE99E00E94603E61EB72E0E6
:102760008BEA9CE00E945E57BE01655E7F4FCE0102
:1027700001960E941D48BE016F5F7F4F8BEA9CE06F
:102780000E947957CE0101960E943C596DEB72E090
:102790008BEA9CE00E945E57BE01655E7F4FCE01D2
:1027A00001960E943148BE016F5F7F4F8BEA9CE02B
:1027B0000E947957CE0101960E943C5969EC72E063
:1027C0008BEA9CE00E945E57BE01655E7F4FCE01A2
:1027D00001960E942648BE016F5F7F4F8BEA9CE006
:1027E0000E947957CE0101960E943C59BE01655E58
:1027F0007F4FCE0101960E94404868EF72E0CE0103
:1028000001960E94735AF82ECE0101960E943C59FF
:10281000FF2009F447C064ED72E08BEA9CE00E945F
:102820008957CE014B960E943C487C01BE01655EF3
:102830007F4FCE0101960E942648BE01655E7F4F04
:10284000CE01C5960E943148BE01655E7F4FCE0124
:10285000CB960E941D488E010F5F1F4F9E012B5C7F
:102860003F4FAE01455C5F4F61E070E08BEE99E059
:102870000E944C41CE01CB960E943C59CE01C59698
:102880000E943C59C8010E943C5966E073E0C801AF
:102890000E94A359B801CE014B960E944B48C80133
:1028A0000E943C598091EB099091EC09019771F4D9
:1028B00089EE99E00E94B43CAB01BC018BEE99E03B
:1028C0000E949E3F89EE99E00E94D83CCE014B9633
:1028D000D6DEC05CDF4F0FB6F894DEBF0FBECDBFB3
:1028E000DF91CF911F910F91FF90EF9008950F937B
:1028F00000E020E040E060E08DEE99E00E94BD56EF
:102900008BEE99E00E946C3E89EE99E00F910C9459
:10291000943C8091220A90E02091230A821B910925
:1029200008952091230A8091220A281750F4E22F5B
:10293000F0E0EC5DF54F808190E02F5F2093230A5B
:1029400008958FEF9FEF0895E091230A8091220A66
:10295000E81730F4F0E0EC5DF54F808190E00895E9
:102960008FEF9FEF08950895CF92DF92EF92FF923D
:102970000F931F93CF93DF937C01CB018A012091AA
:10298000FF09222389F0EB016B01C40ED51ECC1583
:10299000DD0561F06991D701ED91FC910190F08125
:1029A000E02DC7011995F3CF642F4BD0C801DF91FB
:1029B000CF911F910F91FF90EF90DF90CF900895EE
:1029C000CF93DF931F92CDB7DEB769832091FF09C4
:1029D0002223D1F02091000A203240F021E030E0A3
:1029E000FC013383228380E090E014C08091010ACF
:1029F000E82FF0E0EE5FF54F998190838F5F809331
:102A0000010A8093000A04C061E0CE01019619D04A
:102A100081E090E00F90DF91CF910895FC01138247
:102A2000128248EE53E060E070E044835583668391
:102A3000778380E193E091838083089583EF99E029
:102A4000EDCF613298F42091B10A243089F460937B
:102A5000660AFC0188E69AE0DC012A2F281B26176B
:102A600018F421912D93F9CF80E0089581E0089525
:102A700082E0089585ED8093BC008091BC0084FDC8
:102A8000FCCF1092B10A089585EC8093BC0010929F
:102A9000B10A08951F920F920FB60F9211240BB630
:102AA0000F922F933F934F935F936F937F938F93E7
:102AB0009F93AF93BF93EF93FF938091B900887F6B
:102AC000803609F49DC070F5883209F45CC090F43A
:102AD000803109F455C038F4882309F4F3C08830F4
:102AE00009F44EC0F2C0883109F44DC0803209F4B7
:102AF0005EC0EBC0803409F469C050F4803309F43F
:102B000056C0883309F0E1C08093440ABDDFDDC0C0
:102B1000803509F44FC0883509F45DC0883409F068
:102B2000D4C0D2C0883909F4C3C0A8F4883709F4E6
:102B300067C038F4883609F463C0803709F460C090
:102B4000C4C0883809F4B4C0803909F45FC0803843
:102B500009F0BBC05BC0803B09F482C038F4803A06
:102B600009F466C0883A09F47BC0AFC0803C09F420
:102B7000A3C0883C09F4A0C0883B09F486C0A5C066
:102B80008091B00A10C09091890A8091880A9817A4
:102B900070F5E091890A81E08E0F8093890AF0E058
:102BA000E657F54F80818093BB0085EC82C080930F
:102BB000440A8AC0E091890A81E08E0F8093890AD5
:102BC0008091BB00F0E0E657F54F80839091890A31
:102BD0008091880A6AC0E091890A81E08E0F809313
:102BE000890A8091BB00F0E0E657F54F8083809121
:102BF000AF0A811169C081E08093AE0A84EA5DC0AA
:102C000083E08093B10A1092450ACFCF8091450AA4
:102C1000803208F04DC0E091450A81E08E0F80932C
:102C2000450A8091BB00F0E0EA5BF54F8083BDCFA1
:102C30002BDF8091450A803230F4E091450AF0E0C4
:102C4000EA5BF54F10826091450A70E0E091AA0AB4
:102C5000F091AB0A86E49AE019951092450A35C0C6
:102C600084E08093B10A1092670A1092660AE0919C
:102C7000AC0AF091AD0A19958091660A811105C0E0
:102C800081E08093660A1092680AE091670A81E009
:102C90008E0F8093670AF0E0E859F54F80818093AA
:102CA000BB009091670A8091660A981708F47DCF5F
:102CB00085E88093BC0009C085EC8093BC0010922D
:102CC000B10A03C01092440AD5DEFF91EF91BF9183
:102CD000AF919F918F917F916F915F914F913F91B4
:102CE0002F910F900BBE0F900FBE0F901F90189555
:102CF000CF93CFB7F8948091B50A811127C0E5E74B
:102D0000F5E28491EFE2F5E29491E82FF0E0EE0F26
:102D1000FF1FE654FA4DA591B4918C91892321F4BB
:102D200061E085E30E940D5461E085E30E94D45385
:102D30008CB580618CBD8CB580648CBD61E084E312
:102D40000E94D45361E083E30E94D4538091B50A7A
:102D50008F5F8093B50ACFBFCF9108952FB7F894B6
:102D600090E08830910598F4FC01EE58FF4F0C94E8
:102D7000225D80E112C081E010C082E00EC084E0DC
:102D80000CC088E00AC080E408C080E806C082E089
:102D90008093B40A80E001C080E29091B30A982B3E
:102DA0009093B30A8091B40A811103C081E08093AB
:102DB000B40A2FBF0895DC01ED91FC910488F589D8
:102DC000E02D199591E0811101C090E0892F0895BF
:102DD0000895FA01603830E873078105910521F400
:102DE0003091B80A316009C0613030E8730781055D
:102DF000910531F43091B80A32603093B80A21C09D
:102E0000623030E873078105910531F42091B80AEA
:102E1000297F2093B80A27C0603130E87307810505
:102E2000910521F48091B80A846008C06939710560
:102E30008105910531F48091B80A88608093B80AC1
:102E40000895603430E873078105910561F480913D
:102E5000ED0A8F5F8093ED0A422F50E0BF0189EDAC
:102E60009AE00C943B5F611578488105910541F427
:102E7000E081E03228F4F0E0E754F54F81E0808310
:102E800008954F925F926F927F928F929F92AF922E
:102E9000BF92CF92DF92EF92FF920F931F93CF9347
:102EA000DF93CDB7DEB760970FB6F894DEBF0FBEE5
:102EB000CDBF5C016B01942E852EFC01E35BFF4FBF
:102EC000118210823197108216E0E12EF12C00E081
:102ED00010E021E030E040E050E062E070E080E0AF
:102EE00090E00E942D282B013C016F3F2FEF7207CD
:102EF00082079207B9F1FB01E754F54F1082AE014A
:102F00004F5F5F4F80E1FA0111928A95E9F782E005
:102F100090E09A8389838B829C82F60182819381DF
:102F2000248135813D832E839F83888700E110E0D3
:102F300020E030E0C301B2010E9432296F3F7F4F91
:102F40008F4F9F4F29F4C301B2010E9483280AC00A
:102F5000F501E15BFF4F408251826282738281E022
:102F600090E002C080E090E060960FB6F894DEBF7B
:102F70000FBECDBFDF91CF911F910F91FF90EF90CA
:102F8000DF90CF90BF90AF909F908F907F906F9089
:102F90005F904F900895CF92DF92EF92FF920F9340
:102FA0001F93CF93DF93CDB7DEB72A970FB6F89470
:102FB000DEBF0FBECDBF8C01CB017A011F82188608
:102FC00019861A86DB010D900020E9F7BD016150DA
:102FD0007109681B790BAE01495F5F4F0E94CA28D7
:102FE0004F81588569857A854115510561057105BF
:102FF00099F0892B89F0D801ED91FC91C484D58496
:10300000CE0101960E94C956A701BE016F5F7F4F96
:10301000C801F601199502C080E090E02A960FB62B
:10302000F894DEBF0FBECDBFDF91CF911F910F91FE
:10303000FF90EF90DF90CF900895CF92DF92EF92C4
:10304000FF920F931F93CF93DF931F92CDB7DEB7FD
:103050006983815B9F4FFC016081718182819381D3
:10306000C12CD12C760101E010E020E030E0AE016F
:103070004F5F5F4F0E94DF2C97FF02C080E090E01F
:103080000F90DF91CF911F910F91FF90EF90DF9004
:10309000CF900895EF92FF920F931F93CF93DF93FA
:1030A000CDB7DEB72C970FB6F894DEBF0FBECDBFFD
:1030B000FC01E15BFF4F408151816281738177FDAB
:1030C00065C0329720813181121613065CF4319766
:1030D000808190E0821793072CF4A901481B590BBB
:1030E000CA0156C019861A861B861C86DB01CA01D6
:1030F00025E0B595A795979587952A95D1F7FC0179
:10310000EE0FFF1FEE0FFF1F81E090E08C0F9D1F61
:10311000E80FF91F8A019B010F711127222733271E
:1031200081E090E0A0E0B0E004C0880F991FAA1FE2
:10313000BB1F0A95D2F780879187A287B387198230
:103140001A821B821C8288E893E1A0E0B0E08D83A4
:103150009E83AF83B887CB01BA016F5F7F4F8F4FDC
:103160009F4F9E012F5F3F4F790100E010E020E06C
:1031700030E0AE01475F5F4F0E94812931E020E0DF
:10318000019709F030E0832F922F02C080E090E099
:103190002C960FB6F894DEBF0FBECDBFDF91CF9156
:1031A0001F910F91FF90EF900895CF93DF93EC0163
:1031B000C15BDF4F488159816A817B8177FD23C0E4
:1031C000DC01ED91FC910480F581E02D1995892BAE
:1031D00051F4688179818A819B81FB01E754F54F25
:1031E0002081211102C081E00FC00E948328E88164
:1031F000F981E754F54F10828FEF9FEFDC01888350
:103200009983AA83BB8380E0DF91CF910895AF9229
:10321000BF92CF92DF92EF92FF920F931F93CF93C3
:10322000DF93CDB7DEB7C054D1090FB6F894DEBF37
:103230000FBECDBF8C01CB01BA0140E4E8E2F2E061
:103240009E012F5F3F4FD90101900D924A95E1F702
:10325000F8014081442391F13F932F931F921F92D5
:1032600021E02F932CE22F931F921F921F921F9207
:103270002FEF2F932F932F9338E83F931F921F9296
:103280003FE13F932F9345E0A42EB12CC12CD12CCC
:1032900014E6E12EF12C00E010E024E130E040E003
:1032A00050E00E94752F41E00FB6F894DEBF0FBECC
:1032B000CDBF672B682B692B09F040E0842FC05CE1
:1032C000DF4F0FB6F894DEBF0FBECDBFDF91CF91B9
:1032D0001F910F91FF90EF90DF90CF90BF90AF9034
:1032E0000895EF92FF920F93FC0110826093F20A0F
:1032F0004093F10A2093F00A8FEF8093EF0A009336
:10330000EE0A1092B80AF092B70AE092B60A0F914C
:10331000FF90EF9008955F926F927F928F929F92AD
:10332000AF92BF92CF92DF92EF92FF920F931F93D3
:10333000CF93DF934C01562E642EE901FC0170807F
:1033400071108EC02091F10A223049F0233049F0EB
:103350008EEE820F843038F497E1921B05C090E026
:1033600003C091E001C09FEF9093EF0ADED47AE9A9
:10337000A72E70E2B72EE9E7CE2EE1E2DE2EFDEABF
:10338000EF2EF0E2FF2E03EA10E227E831E24FE7EA
:1033900051E26FE871E289EE96E10E94602D852D81
:1033A00090E00E94942D611012C0E12CF12C870155
:1033B00020E030E0A90160E070E0CB010E94F52E32
:1033C0006FEF70E080E090E00E94422F0CC0E12C93
:1033D000F12C8701E39420E030E0A90160E070E087
:1033E000CB010E94F52E64E072E880E090E00E943C
:1033F0000230672B682B692BA9F581E0F4018083EB
:10340000662071F1812C912C8091B80A81FD10C049
:103410008ED7FFEF8F1A9F0A8AEE881683E09806F0
:1034200009F16AE070E080E090E00E94E752ECCFA2
:1034300068EE73E080E090E00E94E7528091B80A65
:1034400082FF0EC0FE0101900020E9F7AF0141505C
:1034500051094C1B5D0BBE0181E090E00E94052DDF
:1034600077247394872DDF91CF911F910F91FF9057
:10347000EF90DF90CF90BF90AF909F908F907F9014
:103480006F905F9008958F929F92AF92BF92CF926C
:10349000DF92EF92FF920F931F93CF93DF93EB0195
:1034A000FC018081882379F1E12CF12C870120E057
:1034B00030E0A90160E070E0CB010E94F52E672B9F
:1034C000682B692B01F564EF71E080E090E00E94C9
:1034D000E752FE0101900020E9F73197EC1BFD0B4C
:1034E0008F0120E030E0812C912C5401C12CD12C93
:1034F000AE0160E070E0CB010E942D2E21E0672B31
:10350000682B692B09F020E0822FDF91CF911F916A
:103510000F91FF90EF90DF90CF90BF90AF909F9072
:103520008F9008952F923F924F925F926F927F9269
:103530008F929F92AF92BF92CF92DF92EF92FF92C3
:103540000F931F93CF93DF931B01EA0128013901E9
:10355000FC018081882309F44CC004301105210549
:10356000310508F046C0FB0101900020E9F73197D2
:10357000E61BF70BB197E8F5FA0101900020E9F797
:103580003197E41BF50BB197A0F5E12CF12C8701E5
:1035900020E030E0A90160E070E0CB010E94F52E50
:1035A000672B682B692B29F564EF71E080E090E0D0
:1035B0000E94E752DE010D900020E9F71197AC1B45
:1035C000BD0BF10101900020E9F73197E219F309F1
:1035D0004D01A12CB12C8F0120E030E06E01A10142
:1035E000C301B2010E942D2E21E0672B682B692BAD
:1035F00009F020E0822FDF91CF911F910F91FF9072
:10360000EF90DF90CF90BF90AF909F908F907F9082
:103610006F905F904F903F902F9008952F923F9220
:103620004F925F928F929F92AF92BF92CF92DF9212
:10363000EF92FF920F931F93CF93DF93EC017B01E7
:103640006A01322E202E5880552009F449C0402EA0
:10365000822E912CA12CB12C222049F0411006C0C1
:103660005090B80A51FA552450F83AC04A945FD69F
:1036700040EA5FE060E070E0CE01C9DD64E971E13D
:1036800080E090E00E94E75240E050E0BA01CE01B5
:10369000BEDD332021F0F6018081811108C0B70121
:1036A000CE01F1DE8823C1F008EE13E011C09501D0
:1036B0008401A601B701CE0135DFF4CF38D66AE028
:1036C00070E080E090E00E94E7520150110921F083
:1036D0008091B80A81FFF2CF8091B80A81FFBCCFF8
:1036E000852DDF91CF911F910F91FF90EF90DF908B
:1036F000CF90BF90AF909F908F905F904F903F90F2
:103700002F900895DB01FC0180818823A1F0809136
:10371000B80A81FF10C08091B80A82FF0CC0FB017B
:1037200001900020E9F7BF01615071096A1B7B0B12
:10373000CD010C94CA2880E090E00895FC0113822A
:10374000128248EE53E060E070E044835583668364
:10375000778380E293E091838083E15BFF4F4FEFBB
:103760005FEFBA01408351836283738308950F939F
:103770001F93FC011382128208EE13E020E030E078
:10378000048315832683378380E293E091838083CB
:10379000DF01A15BBF4F4D935D936D937C931397B6
:1037A00012971D921C92E45BFF4F10821F910F91A4
:1037B00008954F925F926F927F928F929F92AF92F5
:1037C000BF92CF92DF92EF92FF920F931F93CF930E
:1037D000DF93CDB7DEB760970FB6F894DEBF0FBEAC
:1037E000CDBF5C01922E832E742E652E502E412E5D
:1037F00016E0E12EF12C00E010E021E030E040E0A6
:1038000050E062E070E080E090E00E942D286B01C3
:103810007C016F3F2FEF72078207920739F1FB019E
:10382000E754F54F1082AE014F5F5F4F80E1FA0120
:1038300011928A95E9F782E090E09A8389834B821E
:103840005C826D827E828F82988600E110E020E0AB
:1038500030E0C701B6010E9432296F3F7F4F8F4F82
:103860009F4F39F4C701B6010E948328C50166DF66
:1038700004C0B701A601C5017ADFC50160960FB685
:10388000F894DEBF0FBECDBFDF91CF911F910F9196
:10389000FF90EF90DF90CF90BF90AF909F908F9070
:1038A0007F906F905F904F9008958F929F92AF920C
:1038B000BF92CF92DF92EF92FF920F931F93FB0183
:1038C0004A01A12CB12C815B9F4FDC016D917D9150
:1038D0008D919C916801790195018401AF010E944D
:1038E000DF2C1F910F91FF90EF90DF90CF90BF9052
:1038F000AF909F908F9008950F931F9300E010E07A
:103900009801D3DF1F910F9108954F925F926F92AC
:103910007F928F929F92AF92BF92CF92DF92EF925F
:10392000FF920F931F93CF93DF93CDB7DEB7A0978E
:103930000FB6F894DEBF0FBECDBF3C014B01A12CEA
:10394000B12C00E02C018FE4480E511CF40184914D
:10395000882319F1E1E0F0E0EC0FFD1FE00FF11D0D
:1039600080830F5F003220F4EFEF8E1A9E0AEECFB5
:10397000F2016081718182819381C12CD12C760109
:1039800000E210E020E030E0AE014F5F5F4F0E94A8
:10399000DF2CA80EB91E00E0E7CF0023A1F010E055
:1039A00020E030E0F301E15BFF4F608171818281B3
:1039B0009381C12CD12C7601AE014F5F5F4F0E94E5
:1039C000DF2CA80EB91EC501A0960FB6F894DEBF75
:1039D0000FBECDBFDF91CF911F910F91FF90EF9060
:1039E000DF90CF90BF90AF909F908F907F906F901F
:1039F0005F904F9008950F931F93FB01019000205B
:103A0000E9F7AF0141505109461B570B29F000E07F
:103A100010E098014ADF02C080E090E01F910F9112
:103A200008958F929F92AF92BF92CF92DF92EF92C2
:103A3000FF920F931F93FB014A01A12CB12C815BD4
:103A40009F4FDC016D917D918D919C916801790171
:103A500095018401AF010E94B92B1F910F91FF9036
:103A6000EF90DF90CF90BF90AF909F908F90089590
:103A70000F931F9300E010E09801D3DF1F910F9187
:103A800008950F931F93CF93DF93EC01C15BDF4F3A
:103A9000688179818A819B810E9483280FEF1FEFC3
:103AA0009801088319832A833B83DF91CF911F916B
:103AB0000F910895E6CF4F925F926F927F928F920F
:103AC0009F92AF92BF92CF92DF92EF92FF920F93AD
:103AD0001F93CF93DF93EC014C012DE4820E911CD8
:103AE0005C018CE4A80EB11C2E01ECE04E0E511CC2
:103AF0003E01FFE46F0E711CF4012081318112162A
:103B00001306ECF014D4F3016081718182819381FA
:103B1000C12CD12C760100E410E020E030E0A201BD
:103B20000E94B92BF40191838083C99629F4CE01B8
:103B3000A8DF80E090E010C0F5011082DDCFF50134
:103B40004081842F90E028173907E1F2C80FD91F70
:103B50008C854F5F408390E0DF91CF911F910F9153
:103B6000FF90EF90DF90CF90BF90AF909F908F909D
:103B70007F906F905F904F9008954F925F926F92F9
:103B80007F928F929F92AF92BF92CF92DF92EF92ED
:103B9000FF920F931F93CF93DF93EC014C012DE421
:103BA000820E911C5C018CE4A80EB11C2E01ECE08D
:103BB0004E0E511C3E01FFE46F0E711CF40120817A
:103BC000318112161306ECF0B2D3F30160817181DA
:103BD00082819381C12CD12C760100E410E020E099
:103BE00030E0A2010E94B92BF40191838083C99631
:103BF00029F4CE0146DF80E090E00DC0F50110828F
:103C0000DDCFF501808190E028173907E9F2C80F70
:103C1000D91F8C8590E0DF91CF911F910F91FF907C
:103C2000EF90DF90CF90BF90AF909F908F907F905C
:103C30006F905F904F9008950F9300E020E040E078
:103C400060E083EF9AE00E94BD560F9108950F93B4
:103C500000E020E040E060E089EF9AE00E94BD567D
:103C60000F9108952091B40A222399F03FB7F89458
:103C70002091B40A213059F42DB32093B20A4DB3E8
:103C80002091B30A209524232DBB3FBF02C030935F
:103C9000B20A8CBD9DBD08958091B40A882361F05D
:103CA0009FB7F8942091B40A8091B20A213019F498
:103CB0008DBB9FBF08958FBF0895CF93DF93109260
:103CC0000D0C10920E0C10920F0C1092100CE4E8D8
:103CD000FBE023E8DF01C22F1D92CA95E9F7A1E0BE
:103CE000BBE0ED0119922A95E9F79093080C8093B7
:103CF000070C10920A0C1092090C1092120C1092E0
:103D0000110CF093140CE093130C10920C0C109205
:103D10000B0C8EED8093060C8093830BE0912B0CA3
:103D2000F0912C0CDF91CF91199461E08091F00A11
:103D30000E94D45360E08091F00A0E940D5464EF19
:103D400071E080E090E00E94E75261E08091F20A29
:103D50000E94D45362E08091F10A0E94D4538CB542
:103D60008093150C8DB581708093160C0E94781687
:103D70008CB5837F84608CBD8CB58F7D8CBD20918C
:103D8000EE0A9CB5822F83709C7F892B8CBD8DB5EC
:103D900022FB222720F98E7F822B8DBD8CB580934C
:103DA000180C8DB581708093170C8091EF0A0E94DA
:103DB000AE1661E08091F20A0E940D548091150CBC
:103DC0008CBD8091160C882319F08DB5816002C0DE
:103DD0008DB58E7F8DBD80E090E00895680F791FCE
:103DE0008617970751F0FC012191CF012EBD0000ED
:103DF0000DB407FEFDCF2EB5F3CF08950F931F939B
:103E0000CF93DF93EC018B018CB58093150C8DB5AE
:103E100081708093160C8091180C8CBD8091170CCA
:103E2000882319F08DB5816002C08DB58E7F8DBD60
:103E300084E591E017DF60E08091F20A0E940D5462
:103E400061E070E080E090E00E94E75264E070E0A2
:103E5000CE01C4DF61E070E080E090E00E94E752B4
:103E6000B80164507109CE010496B8DF82E090E099
:103E7000A0E0B0E080930D0C90930E0CA0930F0C7B
:103E8000B093100C61E08091F20A0E940D5404DF9F
:103E90008091150C8CBD8091160C882319F08DB57E
:103EA000816002C08DB58E7F8DBD60E070E0CB017A
:103EB000DF91CF911F910F9108952CB5237F24603E
:103EC0002CBD680F791F23E08617970751F02EBD90
:103ED00000000DB407FEFDCF3EB5FC013193CF01CC
:103EE000F3CF08956AE070E08091130C9091140C68
:103EF000E4CF0F931F93CF93DF93C091130CD09116
:103F0000140C8D81823019F08430D1F03BC063E015
:103F100070E0CE01059626D29C01BC0180E090E0C5
:103F200020FD05C06F5F7F4F8F4F9F4F05C061150C
:103F300071058105910531F1CE010A96BEDF22C0DF
:103F4000688570E080E090E08B019C0101501109D0
:103F50002109310900FD02C0C901B80161157105CF
:103F60008105910519F0CE010A96A7DF88E090E05F
:103F7000A0E0B0E080930D0C90930E0CA0930F0C7A
:103F8000B093100C60E070E0CB01DF91CF911F91F6
:103F90000F9108951092FF0A8091EF0A0C94EF5050
:103FA00081E08093FF0A42E050E063E170E280919B
:103FB000EF0A0C947E50EEDF61E08091F20A0E94DD
:103FC0000D546ADE8091150C8CBD8091160C8823EF
:103FD00019F08DB5816002C08DB58E7F8DBD809149
:103FE000130C9091140CFC01EE57FF4F20812E3DD5
:103FF00009F0FFCF42E050E060E070E040930D0C2C
:1040000050930E0C60930F0C7093100CE091070C02
:10401000F091080C059619946CDF672B682B692BBF
:1040200009F4C9CF089581E08093000B80910D0CB5
:1040300090910E0CA0910F0CB091100C0097A1055F
:10404000B10569F481E090E0A0E0B0E080930D0C50
:1040500090930E0CA0930F0CB093100C68C082309C
:104060009105A105B105B9F586E090E0A0E0B0E0CA
:1040700080930D0C90930E0CA0930F0CB093100C2A
:104080008CB58093150C8DB581708093160C809142
:10409000180C8CBD8091170C882319F08DB58160A8
:1040A00002C08DB58E7F8DBD84E591E0DBDD60E0E3
:1040B0008091F20A0E940D5415DF88E090E0A0E0A4
:1040C000B0E080930D0C90930E0CA0930F0CB09366
:1040D000100CA2DF2CC00397A105B10541F560913A
:1040E000090C70910A0C8091110C9091120C76DEE3
:1040F00082E090E0A0E0B0E080930D0C90930E0C75
:10410000A0930F0CB093100C61E08091F20A0E9412
:104110000D54C2DD8091150C8CBD8091160C882346
:1041200019F08DB5816002C08DB58E7F8DBD109266
:10413000000B0895882311F061E001C060E08091D8
:10414000F00A0C940D548091F10A0E944254BC0173
:10415000882777FD8095982F089581E08093FF0A46
:1041600042E050E063E170E28091EF0A0C947E50EF
:104170000F931F93CF93DF93EC01CB0181709927AD
:1041800021E0822721E028838C01060F171F198365
:104190008170860F8A831B821C828091830B8E3DE7
:1041A00009F0FFCF40910D0C50910E0C60910F0C57
:1041B0007091100C411551056105710509F4FFCF8F
:1041C0000B5F1F4F413051056105710521F4B801A6
:1041D000CE0114DE79C0E0912D0CF0912E0C1995D2
:1041E00080910D0C90910E0CA0910F0CB091100CC1
:1041F0000297A105B10509F0FFCF43E050E060E070
:1042000070E040930D0C50930E0C60930F0C709364
:10421000100CD093120CC093110C10930A0C009345
:10422000090C8CB58093150C8DB581708093160C9C
:104230008091180C8CBD8091170C882319F08DB5D6
:10424000816002C08DB58E7F8DBD84E591E00ADD71
:1042500060E08091F20A0E940D54E0912B0CF091E5
:104260002C0C1995E091290CF0912A0C1995672BCB
:10427000682B692B49F56091090C70910A0C8091AB
:10428000110C9091120CAADD82E090E0A0E0B0E069
:1042900080930D0C90930E0CA0930F0CB093100C08
:1042A00061E08091F20A0E940D54F6DC8091150CB9
:1042B0008CBD8091160C882319F08DB5816002C0E9
:1042C0008DB58E7F8DBD49DF80910D0C90910E0CC8
:1042D000A0910F0CB091100C0297A105B10509F047
:1042E000FFCF60E070E0CB01DF91CF911F910F9184
:1042F00008951092FF0A8091EF0A0C94EF50FC0190
:10430000108211821282138280E090E00895FC01F5
:10431000108211821282138280E090E00895FC01E5
:10432000108211821282138280E090E008958091C1
:10433000F10A0E944254892B41F48091000B8111B3
:1043400004C08091FF0A81116ECE0895FC01408364
:1043500051836283738304960895FC0160837183A3
:1043600002960895680F791FFB01818190E0982FD4
:1043700088272081820F911D08950F931F93FB01C1
:10438000E80FF91F6381862F90E0A0E0B0E0982F3E
:10439000882777276627028110E020E030E0980127
:1043A00011270027600F711F821F931F2081620F4A
:1043B000711D811D911D018110E020E030E0322F40
:1043C000212F102F0027600F711F821F931F1F9135
:1043D0000F910895CF93DF9300D01F92CDB7DEB732
:1043E00019821A821B821C82FC018581823039F17C
:1043F000833009F445C0813009F063C08091230CFB
:104400009091240C892B89F0E091230CF091240CDD
:10441000CE0101961995009741F060911F0C7091A3
:10442000200C29813A81AC0108C060911F0C709169
:10443000200C20E030E040E050E081E041C080917D
:10444000210C9091220C892B89F0E091210CF091A4
:10445000220CCE0101961995009741F060911F0C36
:104460007091200C29813A81AC0108C060911F0C29
:104470007091200C20E030E040E050E082E020C06D
:104480008091250C9091260C892B89F0E091250CC8
:10449000F091260CCE0101961995009741F060919C
:1044A0001F0C7091200C29813A81AC0108C06091E9
:1044B0001F0C7091200C20E030E040E050E083E0E1
:1044C00029D50F900F900F900F90DF91CF91089505
:1044D0004F925F926F927F928F929F92AF92BF9214
:1044E000CF92DF92EF92FF926830710581059105BE
:1044F000A8F5223031054105510580F5E1E0F0E0F5
:10450000062E02C0EE0FFF1F0A94E2F7E095F09529
:104510002F01662457FC6094762C809006029090C0
:104520000702A0900802B0900902482059206A2092
:104530007B2069017A0104C0CC0CDD1CEE1CFF1C41
:104540006A95D2F74C285D286E287F284092060293
:10455000509207026092080270920902FF90EF9059
:10456000DF90CF90BF90AF909F908F907F906F9093
:104570005F904F9008958F929F92AF92BF92CF928B
:10458000DF92EF92FF920F931F93CF93DF93CDB7FC
:10459000DEB765970FB6F894DEBF0FBECDBF5C01E6
:1045A00061E070E0DFDE6C01E12CF12C96FF68C069
:1045B000811521E4920709F063C065E070E0C50150
:1045C000D1DE4C0187E0A80EB11C00E010E0C12C48
:1045D000D12C76010815190571F062E070E0C50173
:1045E000C1DEC80ED91EE11CF11CE4E0AE0EB11C08
:1045F0000F5F1F4FEFCF8091350C9091360C8C0DD3
:104600009D1D9093360C8093350C8091410C9091B8
:10461000420CA091430CB091440C8C0D9D1DAE1D1D
:10462000BF1D8093410C9093420CA093430CB09318
:10463000440C4091410C5091420C6091430C70919C
:10464000440C80913D0C90913E0CA0913F0CB09198
:10465000400C481759076A077B0709F055C080913D
:10466000450C882309F450C0E091270CF091280CE8
:1046700020E040E050E069E970E080E090E043C075
:1046800097FFD7C08034F0E89F0709F487C0B0F4E3
:104690008430E0E89E0741F130F481509048029761
:1046A00008F01BC121C08031904809F016C1D50126
:1046B0001596CE010596FE01319628C08115E4E8D5
:1046C0009E0791F040F4803820E8920769F0811548
:1046D000924851F002C18115F8E89F0709F499C08A
:1046E0008115994809F0F9C08091270C9091280C08
:1046F000892B51F0E091270CF091280C20E040E04C
:1047000050E0C701B601199561E0E8C02D912193F1
:10471000E817F907D9F7F50181858D8382858E83A6
:1047200083858F8384858887D5011D96FE01399600
:1047300081E090E08C0F9D1F0C962D912193E8173E
:10474000F907D9F7D5015196FE013D9681E090E039
:104750008C0F9D1F40962D912193E817F907D9F7EB
:10476000D5015596FE01719681E090E08C0F9D1F5A
:1047700044962D912193E817F907D9F7F501848123
:104780008D8B8091270C9091280C892B09F4BCCF3C
:10479000E091270CF091280C25E137C0F5E0AF0E31
:1047A000B11C60E070E0C501E8DD69837A838B832A
:1047B0009C8364E070E0C501E0DD6D837E838F83C0
:1047C000988768E070E0C501D8DD69877A878B87B4
:1047D0009C876CE070E0C501D0DD6D877E878F8798
:1047E000988B60E170E0C501C8DD698B7A8B8B8B9B
:1047F0009C8B8091270C9091280C892B09F484CFF5
:10480000E091270CF091280C24E1AE014F5F5F4F3F
:1048100078CF8091270C9091280C892B09F474CFC4
:10482000E091270CF091280CA5014B5F5F4F21E030
:1048300068CF23E0C21620E1D206E104F10421F0A2
:104840008E509041029790F585010B5F1F4F64E0F9
:1048500070E0C80192DD673C7F4F8F4F9F4F09F09A
:104860003CC0F501448150E060E070E04093310CC1
:104870005093320C6093330C7093340C60E070E012
:10488000C8017BDD6B017C0164E070E0C80175DD6F
:10489000673C7F4F8F4F9F4F09F036CF21E030E0CC
:1048A00040E050E0C701B60113DE2ECF8091190C15
:1048B00090911A0CA0E0B0E0C816D906EA06FB06F3
:1048C00061F061E070E080E090E0C11420E1D20688
:1048D000E104F10431F460E004C060E070E080E0E5
:1048E00090E065960FB6F894DEBF0FBECDBFDF91A6
:1048F000CF911F910F91FF90EF90DF90CF90BF90DD
:10490000AF909F908F90089580911B0C90911C0CFC
:10491000892B21F460E070E0CB01089580911D0C9B
:1049200090911E0CFC0120812430A1F724DE61301F
:1049300071058105910571F710921C0C10921B0CEA
:104940002FDB61E070E080E090E008954F925F928D
:104950006F927F928F929F92AF92BF92CF92DF928F
:10496000EF92FF920F931F93CF93DF93EC014B01D4
:104970005A0100E010E080E1482E96E2592ED7DC83
:1049800080911B0C90911C0C892BC9F3E0901D0C9D
:10499000F0901E0CF7018081843009F0DBC161E0EA
:1049A00070E0C701DFDC8C01C701E5DD672B682BF8
:1049B000692B09F0C3C16701F5E0CF0ED11C0830A7
:1049C00080E1180708F061C00630E0E11E0708F03A
:1049D000D8C00230F2E01F0709F4D3C0D0F40D3084
:1049E000110568F40830110508F0CBC0013011053D
:1049F00008F4A4C10730110508F030C1C2C00D3061
:104A0000110509F4BAC00130E2E01E0709F4B5C08F
:104A100095C10330F0E11F07D8F4013080E1180799
:104A200008F0AFC00530E2E01E0708F4A6C007306A
:104A3000F2E01F0709F082C1F7018481899360E0E9
:104A400070E0C6019ADCAB01BC01CE017FDC76C10F
:104A5000043080E1180709F4B7C008F4E1C060E051
:104A600070E0C6018ADC688379838A839B8364E073
:104A700070E0C60182DC6C837D838E839F832896E1
:104A8000F7013D96DE01842D12C10131F0E11F07CF
:104A900009F473C008F03FC00B30E0E11E0709F4D1
:104AA00070C060F5093080E1180709F46AC008F0A9
:104AB000C9C060E070E0C60160DC688379838A83E6
:104AC0009B8364E070E0C60158DC6C837D838E8339
:104AD0009F8368E070E0C60150DC688779878A8729
:104AE0009B873E01FCE06F0E711C6CE070E0C6011C
:104AF00044DC6C877D878E879F871FC10F30F0E174
:104B00001F0709F48DC008F045C00D30E0E11E0715
:104B100009F45AC013C10530F0E21F0709F4CCC0F4
:104B200050F40231E0E11E0709F447C00130F0E221
:104B30001F0718F503C10A3080E2180748F408304F
:104B4000E0E21E07D0F40630F0E21F07B1F0F6C035
:104B50000B3080E4180709F0F1C0F701858190E07F
:104B60009093360C8093350C61E070E0C601FADB5F
:104B70009093380C8093370CE1C0F70184818883CF
:104B8000DDC060E070E0C601F8DB688379838A836A
:104B90009B83D4C060E070E0C601EFDBFE0161934F
:104BA0007193819391933F0164E070E0C601E5DB6E
:104BB0006C837D838E839F83C0C060E070E0C601FC
:104BC000D1DB99838883BAC060E070E0C601D5DB91
:104BD000688379838A839B8364E070E0C601CDDBC0
:104BE0006C837D838E839F833E01F8E06F0E711C82
:104BF00068E070E0C601C1DB688779878A879B8798
:104C00002C853D854E855F85273C3F4F4F4F5F4F3D
:104C100009F093C021E030E040E050E059DC8DC065
:104C200060E070E0C601A9DB688379838A839B8397
:104C300064E070E0C601A1DB6C837D838E839F837B
:104C400028967CC0F70184818C8385819681A78119
:104C5000B08588839983AA83BB8370C060E070E0CD
:104C6000C6018BDB688379838A839B8364E070E071
:104C7000C60183DB6C837D838E839F8368E070E055
:104C8000C60170DBA0E0B0E088879987AA87BB8760
:104C90006AE070E0C60166DBA0E0B0E08A879B872F
:104CA000AC87BD872C96F7017196DE01852D0190AA
:104CB0000D928A95E1F742C0F601C7010996DE011F
:104CC00021912D93E817F907D9F7DF01FE013496FA
:104CD000CE0108962D912193E817F907D9F7D7014E
:104CE0001D96CE010C962D912193E817F907D9F75F
:104CF000D7015196CE0140962D912193E817F907DF
:104D0000D9F7D7015596CE0144962D912193E817F6
:104D1000F907D9F7D7015996CE014A962D912193DB
:104D2000E817F907D9F7D7015F96CE01CA962D91FA
:104D30002193E817F907D9F701C0E3018091190C15
:104D400090911A0C0817190789F510921A0C1092F5
:104D5000190C2CC0F701728063E070E0C70102DB20
:104D60006C018114910491F064E070E0C701059634
:104D700004DBF5016083718382839383462F50E0C7
:104D8000B7016B5E7F4FC4010E943B5F672D70E0EF
:104D9000A601461B570B6B5F7F4F6E0D7F1DCE012B
:104DA0000E943B5F10923C0C10923B0C10921C0C2A
:104DB00010921B0CF5D8F7018081843031F4011575
:104DC000F0E11F0711F4C70105DB8091190C9091E8
:104DD0001A0C892B09F0D3CD80913B0C90913C0C9F
:104DE000892B09F0CCCD80E090E0DF91CF911F912D
:104DF0000F91FF90EF90DF90CF90BF90AF909F907A
:104E00008F907F906F905F904F90089568307105FC
:104E10008105910518F541E050E002C0440F551F8F
:104E20006A95E2F7662757FD6095762F8091060216
:104E300090910702A0910802B091090248235923DA
:104E40006A237B2331E020E080E090E0452B462B75
:104E5000472B09F430E0632F722F089561E070E072
:104E600080E090E008959C01CB0130931A0C2093D0
:104E7000190C40E050E060E070E068CD21E030E0E7
:104E800030933C0C20933B0C61CD0F931F93CF9339
:104E9000DF931F92CDB7DEB78B0121E0FB012583A5
:104EA000BC01C8010696498358DA4981FC01408358
:104EB000642F70E06C5F7F4FC8015AD980E090E0AA
:104EC0000F90DF91CF911F910F910895EF92FF9274
:104ED0000F931F93CF93DF938B01E90192E0FB01C6
:104EE000958386834783CE0DDF1DC40FD51FBE017A
:104EF000C801089632DABE016B5F7F4FC80138D90E
:104F000060E070E0CB01DF91CF911F910F91FF9096
:104F1000EF9008954F925F926F927F928F929F923F
:104F2000AF92BF92CF92DF92EF92FF920F931F93B7
:104F3000CF93DF93EB016A01890193E09D832B01FD
:104F400097E0490E511C8E83390182E0680E711C76
:104F5000B301C20102DA7C01CE010B965C01093E6D
:104F600093E0190700F5B801C701F7D9B801C701E7
:104F7000F4D9A801B601C5010E943B5FB8016A5F80
:104F80007F4FCE01DF91CF911F910F91FF90EF9056
:104F9000DF90CF90BF90AF909F908F907F906F9059
:104FA0005F904F90E5C888EE882E83E0982EC80168
:104FB000B4010E94D05C660F771F660D771DC70194
:104FC000CCD968EE73E0C701C8D9F601D501C40198
:104FD00001900D920197E1F7085E134088E1C81A2D
:104FE0008CEFD80A6EEE73E0CE01C2D85E0195E078
:104FF000A90EB11C9CD9093E83E0180740F0780146
:1050000098EEE91A93E0F90A08EE13E002C0E12CE9
:10501000F12C1E830D83A801B601C2010E943B5FE3
:10502000C00ED11EB8016E5F7F4FC501A1D8E1143B
:10503000F10411F08701DECFDF91CF911F910F9125
:10504000FF90EF90DF90CF90BF90AF909F908F90A8
:105050007F906F905F904F9008958F929F92AF9244
:10506000BF92CF92DF92EF92FF920F931F93CF9355
:10507000DF9300D01F92CDB7DEB749015A01670117
:1050800078010FEF1FEF980109831A832B833C836C
:1050900000911F0C1091200CAB01BC01C8010996B6
:1050A00055D9B501A40152D9B701A6014FD94CE099
:1050B000B80181E090E1E9DEBE016F5F7F4F81E0E2
:1050C00090E1D1DE69817A818B819C8170934F0D53
:1050D00060934E0D20E030E0A901FAD969817A8110
:1050E0008B819C810F900F900F900F90DF91CF914B
:1050F0001F910F91FF90EF90DF90CF90BF90AF90F6
:105100009F908F900895CF92DF92EF92FF920F932E
:105110001F93CF93DF9300D01F92CDB7DEB76B0103
:105120007C018FEF9FEFDC0189839A83AB83BC8383
:1051300000911F0C1091200CB701A601C80109961F
:1051400005D944E0B8018BE090E19FDEBE016F5FBE
:105150007F4F8BE090E187DE89819A8190934F0D9C
:1051600080934E0D21E030E040E050E0C701B601F1
:10517000AFD969817A818B819C810F900F900F90BC
:105180000F90DF91CF911F910F91FF90EF90DF90E3
:10519000CF900895AF92BF92CF92DF92EF92FF929D
:1051A0000F931F93CF93DF93CDB7DEB728970FB63A
:1051B000F894DEBF0FBECDBF5C017B018A012FEFEB
:1051C0003FEF30934F0D20934E0D673E7105B8F5BC
:1051D000C0901F0CD090200C48E050E060E070E0E0
:1051E000C6010996B3D8A70160E070E0AFD8F50119
:1051F00095012E0D3F1DE217F30729F04191DC01C7
:105200004D93CD01F8CF48E04E0DB60180E190E11D
:105210003CDEBE016F5F7F4F80E190E124DE89813B
:105220009A8180934E0D90934F0D4D815E816F81D9
:105230007885F801408351836283738302C08FEFC6
:105240009FEF28960FB6F894DEBF0FBECDBFDF915B
:10525000CF911F910F91FF90EF90DF90CF90BF9073
:10526000AF900895EF92FF920F931F93CF93DF9328
:1052700000D01F92CDB7DEB77A010FEF1FEF980174
:1052800009831A832B833C8300911F0C1091200CFF
:10529000AB01BC01C801099659D848E050E060E074
:1052A00070E054D848E050E060E070E04FD8F7017B
:1052B00020E030E04191DC014D93CD012F5F3F4F65
:1052C00028303105B9F744E1B80187E090E1DDDD30
:1052D000BE016F5F7F4F87E090E1C5DD69817A8114
:1052E0008B819C8170934F0D60934E0D0F900F90AA
:1052F0000F900F90DF91CF911F910F91FF90EF9042
:1053000008954F925F926F927F928F929F92AF9289
:10531000BF92CF92DF92EF92FF920F931F93CF93A2
:10532000DF93CDB7DEB760970FB6F894DEBF0FBE40
:10533000CDBF6A01590180901F0C9090200CAB01E9
:10534000BC01C401099602D844E150E060E070E07D
:105350000E94A62144E150E060E070E00E94A62196
:1053600044E150E060E070E00E94A62144E150E09A
:1053700060E070E00E94A62141E050E060E070E053
:10538000E114F10419F040E050E0BA010E94A621B6
:10539000C114D10431F0F6014081518162817381E1
:1053A00003C040E050E0BA010E94A621A114B1045C
:1053B00031F0F501408151816281738103C040E089
:1053C00050E0BA010E94A6210115110531F0F80143
:1053D000408151816281738103C040E050E0BA0195
:1053E0000E94A621E114F10449F1F70140815181A5
:1053F000628173814115510561057105B1F44480E5
:10540000558066807780F8E84F16F3E15F06610407
:1054100071045CF428E8422E23E1522E612C712C99
:10542000F70144825582668277820E94A621F701A5
:1054300044815581668177810E94A6214CE2B401A6
:1054400088E090E122DDBE016F5F7F4F88E090E150
:105450000ADD89819A81AB81BC81B7FD25C0C11469
:10546000D10449F04D815E816F817885F6014083DA
:10547000518362837383A114B10449F049855A852D
:105480006B857C85F50140835183628373830115AD
:10549000110581F04D855E856F857889F80140831F
:1054A00051836283738306C090934F0D80934E0D9A
:1054B0008FEF9FEF60960FB6F894DEBF0FBECDBFA3
:1054C000DF91CF911F910F91FF90EF90DF90CF90E0
:1054D000BF90AF909F908F907F906F905F904F9014
:1054E00008954F925F926F927F928F929F92AF92A8
:1054F000BF92CF92DF92EF92FF920F931F93CF93C1
:10550000DF93CDB7DEB764970FB6F894DEBF0FBE5A
:10551000CDBF8C010E94B8522B013C01680135E0DF
:10552000D694C7943A95E1F7C8018F719927812CD9
:10553000912C5401839404C0880C991CAA1CBB1C98
:105540008A95D2F7C801AA2797FDA095BA2F8D8713
:105550009E87AF87B88BCC0CDD1CCC0CDD1CA1E08A
:10556000B0E0AC0FBD1FCA0EDB1EB8E0CB0ED11CE5
:105570000F5F1F4FC801AA2797FDA095BA2F898BEF
:105580009A8BAB8BBC8B8091310C9091320CA0919B
:10559000330CB091340C892B8A2B8B2BA9F0809182
:1055A000310C9091320CA091330CB091340C90934B
:1055B0004F0D80934E0D1092310C1092320C1092C0
:1055C000330C1092340C58C06D857E858F85988978
:1055D0001DDC672B682B692B09F049C00E94B8526B
:1055E0006419750986099709613375478105910525
:1055F00008F040C08091350C9091360C892B21F534
:1056000019861A861B861C86F60180829182A282E8
:10561000B38219821A821B821C8288E893E1A0E07F
:10562000B0E08D839E83AF83B887DE0111967D0144
:1056300000E010E020E030E0AE01475F5F4F698995
:105640007A898B899C895DDE8091350C9091360C2E
:10565000892B09F498CF8091350C9091360C0197E5
:105660009093360C8093350C80E090E005C08FEF6E
:105670009FEF02C08DEF9FEF64960FB6F894DEBFE8
:105680000FBECDBFDF91CF911F910F91FF90EF9093
:10569000DF90CF90BF90AF909F908F907F906F9052
:1056A0005F904F9008952F923F924F925F926F922A
:1056B0007F928F929F92AF92BF92CF92DF92EF92A2
:1056C000FF920F931F93CF93DF93CDB7DEB72C9745
:1056D0000FB6F894DEBF0FBECDBF1A012801390105
:1056E00000911F0C1091200CAB01BC01C801099660
:1056F0000E94A621B301A2010E94A621B701A60122
:105700000E94A6214CE0B8018AA19BA1BEDBBE018C
:105710006F5F7F4F8AA19BA1A6DB8D819E81AF81A8
:10572000B885181619061A061B0624F4A401B5013B
:10573000C101A4DB8D819E8190934F0D80934E0D0E
:105740002C960FB6F894DEBF0FBECDBFDF91CF9180
:105750001F910F91FF90EF90DF90CF90BF90AF908F
:105760009F908F907F906F905F904F903F902F9081
:1057700008958F929F92AF92BF92CF92DF92EF9255
:10578000FF920F931F931F921F92E0E1EF93E4E0CB
:10579000EF93812C912CA12CB12C85DF0F900F90D1
:1057A0000F900F901F910F91FF90EF90DF90CF908F
:1057B000BF90AF909F908F9008952F923F924F92FD
:1057C0005F926F927F928F929F92AF92BF92CF9291
:1057D000DF92EF92FF920F931F93CF93DF93CDB79A
:1057E000DEB767970FB6F894DEBF0FBECDBF6D87EB
:1057F0007E878F87988B5A8B498B28013901450109
:105800008D859E856EDE009709F0C0C080913D0CAD
:1058100090913E0CA0913F0CB091400C0196A11DBF
:10582000B11D80933D0C90933E0CA0933F0CB09320
:10583000400CA0901F0CB090200C09A91AA92BA90C
:105840003CA90138110521053105A9F003381105DE
:105850002105310509F098C0A3019201285F3F4F4F
:105860004F4F5F4F2B8B3C8B4D8B5E8B85010E5DBD
:105870001F4F28E10AC08501065E1F4F20E11DA6CB
:105880001EA61FA618AA812C912C4D855E856F85BA
:105890007889C5010A962F8B0E94A6212F89222E76
:1058A000312CA1014450510960E070E00E94A62112
:1058B000B301A2010E94A621B701A6010E94A62160
:1058C00029A93AA94BA95CA92338310541055105FD
:1058D00061F44B895C896D897E890E94A62148E02C
:1058E00050E060E070E00E94A621F801A989BA8921
:1058F000CD0149895A89841B950BAC0160E070E0A9
:1059000044155505660577051CF48D918193F0CFFC
:1059100089A99AA9ABA9BCA983389105A105B105AC
:10592000B9F0EDA4FEA484019201A101B50189A9F9
:10593000CDDA09A91AA92BA93CA90338110521051B
:105940003105D1F4BE016F5F7F4F8FE090E119C048
:10595000DF01F401CF0188199909AC0160E070E022
:105960000DA51EA52FA538A940175107620773077B
:10597000C4F681918D93EECFBE016F5F7F4F83E0C0
:1059800090E171DAC20102C08FEF9FEF67960FB608
:10599000F894DEBF0FBECDBFDF91CF911F910F9165
:1059A000FF90EF90DF90CF90BF90AF909F908F903F
:1059B0007F906F905F904F903F902F900895AF929F
:1059C000BF92CF92DF92EF92FF920F931F931F929D
:1059D0001F921F92E1E8EF931F921F921F921F9256
:1059E000A12CB12CEADE2DB73EB7285F3F4F0FB692
:1059F000F8943EBF0FBE2DBF1F910F91FF90EF9007
:105A0000DF90CF90BF90AF900895CF92DF92EF924A
:105A1000FF920F931F93CF93DF931F92CDB7DEB703
:105A20006B018A014132510598F5E0901F0CF0900E
:105A3000200CAC0160E070E0C70109960E94A6212D
:105A400048E050E060E070E00E94A621A80160E01C
:105A500070E00E94A621F6019601200F311FE21787
:105A6000F30729F04191DC014D93CD01F8CF4CE0D3
:105A7000400FB70181E190E108DABE016F5F7F4F0F
:105A800081E190E1F0D98981992787FD909502C045
:105A90008FEF9FEF0F90DF91CF911F910F91FF90AC
:105AA000EF90DF90CF90089521E030E030931C0C10
:105AB00020931B0C90931E0C80931D0C0C9484243B
:105AC000AF92BF92CF92DF92EF92FF920F931F930C
:105AD0007093220C6093210C5093240C4093230C60
