:100000008CC30000BBC30000B9C30000B7C300002D
:10001000B5C30000B3C30000B1C30000AFC300000C
:10002000ADC30000ABC30000A9C30000A7C300001C
:10003000A5C30000A3C30000A1C300009FC300002C
:100040009DC300009BC3000099C3000097C300003C
:1000500095C3000093C3000091C300000C94751376
:100060008DC300000C94AC160C94E21687C30000FC
:1000700085C3000083C3000081C300007FC300006C
:100080007DC300007BC3000079C3000077C300007C
:1000900075C3000073C3000071C3000047C40000B3
:1000A0006DC300006BC3000069C3000067C300009C
:1000B00065C3000063C3000061C300005FC30000AC
:1000C0005DC300005BC3000059C3000057C30000BC
:1000D00055C3000053C3000051C300004FC30000CC
:1000E0004DC3000093149614851489148F14CD14F5
:1000F0009A149E14A414A814AC14B214B614BA140E
:10010000CD14C014C414C81400000000003E5B4F9E
:100110005B3E3E6B4F6B3E1C3E7C3E1C183C7E3C67
:10012000181C577D571C1C5E7F5E1C00183C180075
:10013000FFE7C3E7FF0018241800FFE7DBE7FF3005
:10014000483A060E2629792926407F050507407F73
:1001500005253F5A3CE73C5A7F3E1C1C08081C1CE6
:100160003E7F14227F22145F5F005F5F06097F01DC
:100170007F006689956A606060606094A2FFA294C7
:1001800008047E040810207E201008082A1C080895
:100190001C2A08081E101010100C1E0C1E0C3038E3
:1001A0003E3830060E3E0E06000000000000005FE4
:1001B00000000007000700147F147F14242A7F2A00
:1001C00012231308646236495620500008070300C2
:1001D000001C2241000041221C002A1C7F1C2A080E
:1001E000083E080800807030000808080808000071
:1001F00060600020100804023E5149453E00427FE5
:10020000400072494949462141494D331814127F33
:100210001027454545393C4A4949314121110907D3
:100220003649494936464949291E00001400000054
:100230004034000000081422411414141414004126
:1002400022140802015909063E415D594E7C1211E3
:10025000127C7F494949363E414141227F4141411B
:100260003E7F494949417F090909013E4141517396
:100270007F0808087F00417F41002040413F017F07
:10028000081422417F404040407F021C027F7F04CF
:1002900008107F3E4141413E7F090909063E415118
:1002A000215E7F09192946264949493203017F0108
:1002B000033F4040403F1F2040201F3F4038403F09
:1002C000631408146303047804036159494D43001F
:1002D0007F4141410204081020004141417F040256
:1002E00001020440404040400003070800205454ED
:1002F00078407F28444438384444442838444428CB
:100300007F385454541800087E090218A4A49C781D
:100310007F0804047800447D40002040403D007F79
:100320001028440000417F40007C047804787C0859
:100330000404783844444438FC182424181824242D
:1003400018FC7C08040408485454542404043F4412
:10035000243C4040207C1C2040201C3C4030403C41
:1003600044281028444C9090907C4464544C4400A1
:100370000836410000007700000041360800020105
:100380000204023C2623263C1EA1A161123A4040F1
:10039000207A38545455592155557941225454786E
:1003A00042215554784020545579400C1E52721207
:1003B0003955555559395454545939555454580090
:1003C00000457C410002457D420001457C407D1294
:1003D00011127DF0282528F07C54554500205454F6
:1003E0007C547C0A097F4932494949323A444444A1
:1003F0003A324A4848303A4141217A3A42402078DC
:10040000009DA0A07D3D4242423D3D4040403D3CDC
:1004100024FF2424487E4943662B2FFC2F2BFF0901
:1004200029F620C0887E09032054547941000044F5
:100430007D413048484A32384040227A007A0A0AE0
:10044000727D0D19317D2629292F28262929292653
:1004500030484D4020380808080808080808382F98
:1004600010C8ACBA2F102834FA00007B0000081422
:100470002A142222142A14085500550055AA55AAF8
:1004800055AAFF55FF55FF000000FF00101010FF98
:1004900000141414FF001010FF00FF1010F010F0F3
:1004A000141414FC001414F700FF0000FF00FF14E4
:1004B00014F404FC141417101F10101F101F141430
:1004C000141F00101010F0000000001F101010107A
:1004D0001F10101010F010000000FF10101010106E
:1004E00010101010FF10000000FF140000FF00FFAC
:1004F00000001F10170000FC04F414141710171448
:1005000014F404F40000FF00F71414141414141469
:10051000F700F7141414171410101F101F141414DC
:10052000F4141010F010F000001F101F0000001F46
:1005300014000000FC140000F010F01010FF10FF79
:10054000141414FF141010101F00000000F010FF0E
:10055000FFFFFFFFF0F0F0F0F0FFFFFF00000000F2
:1005600000FFFF0F0F0F0F0F3844443844FC4A4A76
:100570004A347E02020606027E027E02635549412B
:10058000633844443C04407E201E2006027E020262
:1005900099A5E7A5991C2A492A1C4C7201724C3076
:1005A0004A4D4D303048784830BC625A463D3E494D
:1005B0004949007E0101017E2A2A2A2A2A44445FF1
:1005C000444440514A444040444A51400000FF01E5
:1005D00003E080FF000008086B6B083612362436F3
:1005E000060F090F06000018180000001010003058
:1005F00040FF0101001F01011E00191D1712003CE0
:100600003C3C3C000000000000000A0B02090C0DFD
:100610000E080703040100000000000000000000B5
:1006200000000000000000000000000000000000CA
:100630000000000012111000000000000000000087
:1006400000000000000000000000000000000102A7
:1006500010202008081020401020408002010201D4
:10066000080402010102040810204080804020108C
:1006700008040201800402018040201008040201E5
:10068000080402010102040810204080010204084D
:100690001020408005050505070508080808020226
:1006A00002020A0A0808040404040101010101010C
:1006B00001010303030303030303040707070C0CEF
:1006C0000C0C0C0C0C0C02020202060606060606B6
:1006D00006060B0B0B0B0B0B0B0B0000220025006F
:1006E00028002B002E00310034000201000005011B
:1006F00008010B0100002100240027002A002D0022
:100700003000330001010000040107010A01CD039C
:100710006A049A11C911E612141711241FBECFEFF3
:10072000D1E2DEBFCDBF00E00CBF12E0A0E0B2E03E
:10073000E8E6F1E300E00BBF02C007900D92A43C95
:10074000B107D9F724E0A4ECB2E001C01D92A936AC
:10075000B207E1F717E0CAE1D7E000E006C0229750
:100760000109FE010BBF0E94AA18CE30D10780E01C
:100770000807A9F70E9458170C94B21841CC26E03C
:1007800040E855E260E070E08CEC93E00E944C168B
:1007900085EC92E00C945513089585EC92E00E944C
:1007A000CF1184EC92E00C94B4118091F70290E0A8
:1007B0002091F802821B910908952091F8028091FE
:1007C000F702281750F4E22FF0E0E750FD4F808148
:1007D00090E02F5F2093F80208958FEF9FEF089528
:1007E000E091F8028091F702E81730F4F0E0E7506A
:1007F000FD4F808190E008958FEF9FEF0895089559
:10080000CF92DF92EF92FF920F931F93CF93DF93DC
:100810007C01CB018A012091D402222389F0EB01D3
:100820006B01C40ED51ECC15DD0561F06991D701B1
:10083000ED91FC910190F081E02DC7011995F3CF66
:10084000642F4BD0C801DF91CF911F910F91FF9082
:10085000EF90DF90CF900895CF93DF931F92CDB7A5
:10086000DEB769832091D4022223D1F02091D502F2
:10087000203240F021E030E0FC013383228380E02D
:1008800090E014C08091D602E82FF0E0E952FD4FCD
:10089000998190838F5F8093D6028093D50204C0A4
:1008A00061E0CE01019619D081E090E00F90DF91D8
:1008B000CF910895FC011382128248EE53E060E06C
:1008C00070E0448355836683778382E192E091836D
:1008D0008083089588EC92E0EDCF613298F4209106
:1008E0008603243089F460933B03FC018DE393E09D
:1008F000DC012A2F281B261718F421912D93F9CFFC
:1009000080E0089581E0089582E0089585ED809368
:10091000BC008091BC0084FDFCCF1092860308953A
:1009200085EC8093BC001092860308951F920F926D
:100930000FB60F9211240BB60F922F933F934F9344
:100940005F936F937F938F939F93AF93BF93EF9337
:10095000FF938091B900887F803609F49DC070F5BF
:10096000883209F45CC090F4803109F455C038F441
:10097000882309F4F3C0883009F44EC0F2C08831EE
:1009800009F44DC0803209F45EC0EBC0803409F434
:1009900069C050F4803309F456C0883309F0E1C0CF
:1009A00080931903BDDFDDC0803509F44FC0883561
:1009B00009F45DC0883409F0D4C0D2C0883909F484
:1009C000C3C0A8F4883709F467C038F4883609F43E
:1009D00063C0803709F460C0C4C0883809F4B4C06B
:1009E000803909F45FC0803809F0BBC05BC0803B30
:1009F00009F482C038F4803A09F466C0883A09F4F0
:100A00007BC0AFC0803C09F4A3C0883C09F4A0C0FF
:100A1000883B09F486C0A5C08091850310C09091E1
:100A20005E0380915D03981770F5E0915E0381E0AD
:100A30008E0F80935E03F0E0E15AFC4F808180933B
:100A4000BB0085EC82C0809319038AC0E0915E03ED
:100A500081E08E0F80935E038091BB00F0E0E15A4D
:100A6000FC4F808390915E0380915D036AC0E091AA
:100A70005E0381E08E0F80935E038091BB00F0E007
:100A8000E15AFC4F808380918403811169C081E029
:100A90008093830384EA5DC083E080938603109291
:100AA0001A03CFCF80911A03803208F04DC0E09135
:100AB0001A0381E08E0F80931A038091BB00F0E04F
:100AC000E55EFC4F8083BDCF2BDF80911A0380321F
:100AD00030F4E0911A03F0E0E55EFC4F1082609183
:100AE0001A0370E0E0917F03F09180038BE193E0C3
:100AF000199510921A0335C084E0809386031092F2
:100B00003C0310923B03E0918103F091820319951D
:100B100080913B03811105C081E080933B031092DB
:100B20003D03E0913C0381E08E0F80933C03F0E0B5
:100B3000E35CFC4F80818093BB0090913C038091EB
:100B40003B03981708F47DCF85E88093BC0009C06B
:100B500085EC8093BC001092860303C010921903A9
:100B6000D5DEFF91EF91BF91AF919F918F917F91D2
:100B70006F915F914F913F912F910F900BBE0F900E
:100B80000FBE0F901F901895CF93CFB7F894809118
:100B90008A03811127C0E9ECF6E08491E3E8F6E0EE
:100BA0009491E82FF0E0EE0FFF1FEC50F94FA59164
:100BB000B4918C91892321F461E085E30E940715AB
:100BC00061E085E30E94CE148CB580618CBD8CB54C
:100BD00080648CBD61E084E30E94CE1461E083E315
:100BE0000E94CE1480918A038F5F80938A03CFBFC7
:100BF000CF9108952F923F924F925F926F927F9282
:100C00008F929F92AF92BF92CF92DF92EF92FF921C
:100C10000F931F93CF93DF9300D01F92CDB7DEB712
:100C20004C017C836B836A015901C8018701AC01C7
:100C30004C195D0957FF03C0519541955109950124
:100C40006B817C81261B370B37FF03C031952195C3
:100C5000310922242394312C2417350714F0212C38
:100C6000312C2114310459F03A2D2B2D5C01832FA6
:100C7000922F3B812C81DC82CB82C32ED22EAB8182
:100C8000BC81AA16BB065CF43C2D2D2D6C01832F74
:100C9000922F3B812C81BC82AB82A32EB22E2501E8
:100CA000EB81FC814E1A5F0A3C016C187D0877FECF
:100CB00003C0719461947108720157FE03C0FFEF85
:100CC000EF1AFF0AF594E794C816D9062CF421E030
:100CD00030E03A83298324C06FEF7FEF7A83698302
:100CE0001FC0D401ED91FC910480F581E02D9801A5
:100CF00021143104D9F04B815C81B601C4011995EE
:100D0000E618F708F7FE06C0E981FA81CE0EDF1E6D
:100D1000E40CF51C2B813C812F5F3F4F3C832B83E0
:100D20006B817C81A616B706E4F604C0A6016B8130
:100D30007C81E4CF0F900F900F900F90DF91CF91B7
:100D40001F910F91FF90EF90DF90CF90BF90AF90E9
:100D50009F908F907F906F905F904F903F902F90DB
:100D600008956F927F928F929F92AF92BF92CF928F
:100D7000DF92EF92FF920F931F93CF93DF93EC01DB
:100D80005B016A0139014801E881F9810284F38538
:100D9000E02D87011995E881F981A601480D591DBB
:100DA000415051090284F385E02D9301B501CE0134
:100DB0001995E881F9810084F185E02D9401A6015F
:100DC000B501CE011995E881F981B501660D771D50
:100DD000615071090084F185E02D9401A601CE01D6
:100DE0001995DF91CF911F910F91FF90EF90DF90B8
:100DF000CF90BF90AF909F908F907F906F9008950D
:100E0000EF92FF920F931F93DC01ED91FC91240F61
:100E1000351F215031090680F781E02D78018901C5
:100E20009B0119951F910F91FF90EF900895EF92FC
:100E3000FF920F931F93DC01ED91FC91260F371F5A
:100E4000215031090680F781E02D78018A0119953A
:100E50001F910F91FF90EF9008956F927F928F9264
:100E60009F92AF92BF92CF92DF92EF92FF920F9339
:100E70001F93CF93DF935C014A0169013801EB01B5
:100E8000C60ED71ECC15DD0574F4D501ED91FC918D
:100E90000084F185E02D87019301A401BE01C50105
:100EA00019952196EFCFDF91CF911F910F91FF9070
:100EB000EF90DF90CF90BF90AF909F908F907F90FA
:100EC0006F900895EF92FF920F931F93DC01ED91C5
:100ED000FC9111971A960D911C911B9718962D91C4
:100EE0003C9119970684F785E02D7B0140E050E0A6
:100EF00060E070E019951F910F91FF90EF900895B9
:100F00000895FC011382128282E292E09183808331
:100F100075836483578346837187608753874287CD
:100F2000158A158614861786168621E0248B8FEF86
:100F30009FEF938B828B918B808B268B178A118EE0
:100F4000108E08952F923F924F925F926F927F92F0
:100F50008F929F92AF92BF92CF92DF92EF92FF92C9
:100F60000F931F93CF93DF93CDB7DEB7AE970FB636
:100F7000F894DEBF0FBECDBF98878F834B013A0137
:100F800029011EA70DA7B701DA82C982BE8AAD8AE0
:100F9000041715074CF4872D38014DA78EA7982DFF
:100FA000892D4901492E582E2DA53EA549815A81EA
:100FB000421753075CF49DA58EA55EA74DA79983A4
:100FC0008A83942D852D2B01692F782F8DA59EA5C1
:100FD000861597055CF4962D872D6DA47EA49DA79C
:100FE0008EA7982D892D4201492E582EA981BA81AC
:100FF0006A167B0619F5481459042CF0942D852D9A
:101000002401892E982E641575052CF086169706F6
:101010000CF44B01B201AF81B885ED91FC911197B1
:101020009401261B370B2F5F3F4F0284F385E02D81
:101030000D891E89A301CD01199552C1C2018819DC
:1010400099092DA53EA526193709FB01E819F909CB
:10105000FA87E98749815A81461957095E874D8782
:10106000DB01A419B509BA8BA98BE981FA814DA5D9
:101070005EA5E41BF50BF88FEF8B69817A8146172B
:10108000570729F0415051095C8F4B8F04C0ADA523
:10109000BEA5BC8FAB8F1301A12CB12C65011B82A7
:1010A0001C821D821E82A901662757FD6095762F3E
:1010B0004D8F5E8F6F8F78A32D853E85442737FD3A
:1010C0004095542F29A33AA34BA35CA3AC016627F8
:1010D00057FD6095762F4DA35EA36FA378A7698512
:1010E0007A85882777FD8095982F69A77AA78BA79F
:1010F0009CA7EB8DFC8DE215F3050CF44EC06B81C3
:101100007C818D819E812D8D3E8D4F8D58A10E94B9
:1011100088187401E20EF31EC601B50129A13AA197
:101120004BA15CA10E948818B401620F731F8B81D0
:101130009C81AD81BE812DA13EA14FA158A5820FFA
:10114000931FA41FB51F8B839C83AD83BE8389A58A
:101150009AA5ABA5BCA5A80EB91ECA1EDB1E6E15AE
:101160007F052CF0962F872FB701E92EF82EAF813F
:10117000B885ED91FC9111979701261B370B2F5FD6
:101180003F4F0284F385E02D0D891E89A101CD0119
:101190001995BFEF2B1A3B0AACCF91014DA55EA567
:1011A000241B350B69897A89629FC001639F900D6A
:1011B000729F900D11249C01442737FD4095542FB8
:1011C0002B833C834D835E83C10186199709498532
:1011D0005A85489F6001499FD00C589FD00C11241C
:1011E000EE24D7FCE094FE2C6F89788D882777FD5C
:1011F0008095982F6F8B788F898F9A8F8D859E859C
:10120000AA2797FDA095BA2F8D879E87AF87B88BA9
:1012100029893A89442737FD4095542F298B3A8BE9
:101220004B8B5C8B49855A85662757FD6095762FD9
:1012300049875A876B877C87E981FA81E215F30534
:101240000CF44EC06B817C818D819E812F89388DFD
:10125000498D5A8D0E9488185201A20EB31EC701F3
:10126000B6012D853E854F8558890E948818B401A6
:10127000620F731F8B819C81AD81BE8129893A8960
:101280004B895C89820F931FA41FB51F8B839C839E
:10129000AD83BE8389859A85AB85BC85C80ED91E72
:1012A000EA1EFB1E6A157B052CF0962F872FB501D1
:1012B000A92EB82EAF81B885ED91FC9111979501BB
:1012C000261B370B2F5F3F4F0284F385E02D0D89DE
:1012D0001E89A101CD011995BFEF2B1A3B0AACCF96
:1012E000AE960FB6F894DEBF0FBECDBFDF91CF91A3
:1012F0001F910F91FF90EF90DF90CF90BF90AF9034
:101300009F908F907F906F905F904F903F902F9025
:1013100008952F923F924F925F926F927F928F9299
:101320009F92AF92BF92CF92DF92EF92FF920F9374
:101330001F93CF93DF93CDB7DEB76A970FB6F894BC
:10134000DEBF0FBECDBF1C0158874F831C870B87A4
:10135000FA86E986CC82DC0158964D915C915997CA
:101360004115510509F0A6C018968D919C911997C9
:10137000681779070CF056C11A968D919C911B97AE
:10138000EF81F885E817F9070CF04CC1D12CCB019F
:101390003C81F6E03F9F800D911D1124181619061F
:1013A0000CF040C1C60103E0880F991F0A95E1F7D0
:1013B0004F815885840F951F181619060CF032C1FD
:1013C00057968C91811103C0203B08F02F5F7E87D8
:1013D0006D874B01198218E0A12E11E0B12EA61ADB
:1013E000B70A55E0259FA00CB11C112489818530D6
:1013F00039F0ED85FE85EA0DFB1D94919A8301C0BD
:101400001A826F8078842301A8E0AD83BA81B0FF8F
:1014100012C0D101ED91FC91BC81B13031F4048056
:10142000F581E02D2B853C8518C00684F785E02DDD
:10143000EB84FC841DC0E985FA852B853C85E21789
:10144000F307E1F0D101ED91FC91BC81B13059F489
:101450000480F581E02D29853A85A2016D857E8580
:10146000C10119950BC00684F785E02DE984FA8443
:1014700086019601A301B401C1011995EA81E6959F
:10148000EA83FD81F150FD836C0C7D1C2FEF421A25
:10149000520AF111BBCF39813F5F39838C0C9D1CFF
:1014A0004D855E854F5F5F4F5E874D87363009F013
:1014B0009DCFB8C0FA0134963491329785919491BA
:1014C000231BA7E02A9F800D911D1124FA0125916D
:1014D0003491398B288BFC01459154915A8F498F57
:1014E000FC013296549159873196A491AF87319679
:1014F000E491FC013596249131968491BC81B230FF
:1015000050F0622E772467FC7094E82FFF27E7FDE8
:10151000F095FE87ED87FC81CF2ED12C6C9C40018D
:101520006D9C900C7C9C900C1124860E971EA12C17
:101530001982DE8ACD8AAB01420F511D27FD5A95D3
:101540005E834D83AF81B885A80FB11D87FDBA9525
:10155000B88FAF8B59818F85581708F063C0852FDE
:1015600090E02D853E85280F391F2C9DD0012D9DA3
:10157000B00D3C9DB00D1124EF81F885EA0FFB1FE3
:10158000FB83EA836D807E802401FA2D2D81F21B7E
:10159000FA8B4F89588D480F591F5C8B4B8B9A895A
:1015A000960D862D2D81821B39858317B0F5977096
:1015B00061F4898D9A8D0196E889F989298D3A8D92
:1015C000E20FF31FB4909A8F898FB7FE1DC0D1012F
:1015D000ED91FC91BC81B13059F40480F581E02D8E
:1015E0002B853C854B895C89B301C10119950CC0E1
:1015F0000684F785E02DEB84FC84860196014A8100
:101600005B81B201C1011995BB0CED89FE894E0EBB
:101610005F1EFFEF6F1A7F0AC2CFA30E49814F5F93
:10162000498398CF6A960FB6F894DEBF0FBECDBF40
:10163000DF91CF911F910F91FF90EF90DF90CF90AE
:10164000BF90AF909F908F907F906F905F904F90E2
:101650003F902F900895AF92BF92CF92EF92FF925A
:101660000F931F93CF93DF93EC01262F888D998DD5
:10167000009709F041C06A3069F42C898E859F85F6
:1016800038E0239F800D911D11249F878E871D8632
:101690001C86A9C06D3009F4A6C08E898823C1F0CC
:1016A0003C898C859D8546E0349F800D911D1124D9
:1016B00048855985841795075CF01D861C868E85A4
:1016C0009F85E8E03E9F800D911D11249F878E87A6
:1016D000EA88FB88088919894E855F856C857D8538
:1016E000CC88CE0116DE2C898C859D85F6E02F9F57
:1016F000800D911D112441C06A3079F41D861C862D
:101700004C89FC01369684912E853F85489F200D9B
:10171000311D11243F872E8766C06D3009F463C0E8
:10172000AC014C5F5F4FFA013491631708F45BC062
:101730003196E491E61708F456C0FA014491362F29
:10174000341BFC013296A590B490F7E03F9FA00CAB
:10175000B11C1124F5013296A4913196E491AA238B
:1017600011F0E1110DC0F5013496A4902C898C85FF
:101770009D85A29E800D911D11249D878C8733C06D
:10178000F5013596E4913E89332309F13C89B0E0B7
:10179000AE0FB11DE7FDBA953A9FA0013B9F500DDA
:1017A00011246C857D85460F571F688579854617FE
:1017B00057076CF01D861C86FC01369684914E8579
:1017C0005F85389F400D511D11245F874E87EA8841
:1017D000FB88088919894E855F856C857D85CC8855
:1017E000CE0197DDC0CF81E090E0DF91CF911F91D6
:1017F0000F91FF90EF90CF90BF90AF900895FC01B4
:1018000075876487578746870895611101C061E035
:10181000FC01648B0895FC01738B628B718B608B70
:101820000895EF92FF920F931F93DC01ED91FC91CD
:1018300011971A960D911C911B9718962D913C911A
:1018400019970684F785E02D7B0140E050E060E0C9
:1018500070E019951F910F91FF90EF9008952091DE
:101860008903222399F03FB7F8942091890321300E
:1018700059F42DB3209387034DB32091880320950D
:1018800024232DBB3FBF02C0309387038CBD9DBD79
:10189000089580918903882361F09FB7F89420917F
:1018A000890380918703213019F48DBB9FBF089570
:1018B0008FBF0895AF92BF92CF92EF92FF920F9396
:1018C0001F93CF93DF931F92CDB7DEB75C01F62E47
:1018D000142F40E451E060EF70E0298312DB8AE3CB
:1018E00092E0F50191838083F7A210A7298122A7B6
:1018F000C3A604A7E1A6138E0F90DF91CF911F918D
:101900000F91FF90EF90CF90BF90AF900895FC01A2
:10191000838D811122C088E090E030E8A58DB68DDE
:1019200025A5432F462321F04C91422B4C9304C014
:101930004C91209524232C93A78DB0A12C9146A5E2
:10194000242B2C93A78DB0A14C9126A52095242360
:101950002C933695019711F708956EBD0DB407FECF
:10196000FDCF0895CF93DF93EC01E9A1FAA1908117
:1019700088A9809589238083EDA1FEA190818FA500
:10198000809589238083CE01C2DFEDA1FEA18081F5
:101990009FA5892B8083DF91CF9108950F931F938B
:1019A000CF93DF931F92CDB7DEB78C01FC01838DFF
:1019B000882329F080E591E0698351DF69816623FE
:1019C00011F061E201C060E2C801CCDFF801838D53
:1019D000882331F00F90DF91CF911F910F9159CF54
:1019E0000F90DF91CF911F910F910895CF93DF93C7
:1019F000EC01E9A1FAA1808198A9892B8083EDA14E
:101A0000FEA190818FA5809589238083CE017FDF01
:101A1000EDA1FEA180819FA5892B8083DF91CF91CD
:101A20000895CF93DF93EC0189A518162CF461E09B
:101A3000B5D760E089A5EBD761E088A5AFD761E0B5
:101A40008FA1ACD78FA1992787FD9095FC01EC560B
:101A5000F94FE491F0E0EE0FFF1FE652F94F2591A8
:101A600034913EA32DA3FC01E25BF94F84918FA733
:101A700088A5992787FD9095FC01EC56F94FE491D4
:101A8000F0E0EE0FFF1FE652F94F259134913AA393
:101A900029A3FC01E25BF94F849188AB8B8D8823ED
:101AA00011F072D841C061E08CA578D761E08AA5B9
:101AB00075D760E08BA572D78CA5992787FD909587
:101AC000FC01EC56F94FE491F0E0EE0FFF1FE652F7
:101AD000F94FA591B491B8A3AF8FFC01E25BF94F28
:101AE00084918EA78AA5992787FD9095FC01EC56D5
:101AF000F94FE491F0E0EE0FFF1FE652F94F259108
:101B000034913E8F2D8FFC01E25BF94F84918DA7BC
:101B10008C919EA5909589238C93ED8DFE8D90815F
:101B20008DA580958923808389A51816BCF461E072
:101B30006ED765E070E080E090E044D660E089A573
:101B400066D764E170E080E090E03CD661E089A572
:101B50005ED766E970E080E090E034D68B8D882314
:101B600019F080E591E07BDE6FEECE01FBDE63E0F5
:101B7000CE013CDF60E8CE0139DF62E0CE0136DF26
:101B80006FECCE01EFDE60E0CE0130DF61ECCE0124
:101B90002DDF60E3CE012ADF6DEECE01E3DE64E6E9
:101BA000CE0124DF63E0CE0121DF62E1CE011EDF42
:101BB00061E8CE011BDF68EECE01D4DE65E8CE0120
:101BC00015DF60E0CE0112DF68E7CE010FDF6BECBE
:101BD000CE01C8DE69E3CE0109DF6CE2CE0106DF8B
:101BE00060E0CE0103DF64E3CE0100DF62E0CE01FE
:101BF000FDDE67EFCE01B6DE60E2CE01F7DE6AEE13
:101C0000CE01B0DE60E0CE01F1DE60E0CE01EEDEBE
:101C100060ECCE01A7DE63E2CE01E8DE61ECCE012E
:101C2000A1DE60E1CE01E2DE65ECCE019BDE6EE37B
:101C3000CE01DCDE68E2CE01D9DE67ECCE0192DEB9
:101C400066E8CE01D3DE66E3CE018CDE68E4CE0129
:101C5000CDDE6AE3CE0186DE65E5CE01C7DE61EB4F
:101C6000CE0180DE60E0CE01C1DE68E1CE01BEDEE5
:101C700066EBCE0177DE68E0CE01B8DE62E8CE0129
:101C8000B5DE67E2CE01B2DE62EFCE016BDE60E070
:101C9000CE01ACDE66E2CE0165DE61E0CE01A6DEFD
:101CA00060EECE015FDE6FE0CE01A0DE61E3CE012B
:101CB0009DDE6BE2CE019ADE6CE0CE0197DE6EE037
:101CC000CE0194DE68E0CE0191DE6EE4CE018EDEC0
:101CD00061EFCE018BDE67E3CE0188DE67E0CE01E7
:101CE00085DE60E1CE0182DE63E0CE017FDE6EE064
:101CF000CE017CDE69E0CE0179DE60E0CE0176DEE9
:101D000061EECE012FDE60E0CE0170DE6EE0CE012E
:101D10006DDE64E1CE016ADE63E0CE0167DE61E183
:101D2000CE0164DE67E0CE0161DE61E3CE015EDEFE
:101D300061ECCE015BDE68E4CE0158DE68E0CE01E6
:101D400055DE6FE0CE0152DE6CE0CE014FDE61E386
:101D5000CE014CDE66E3CE0149DE6FE0CE0146DE09
:101D600061E1CE01FFDD8B8D811193DD68E770E0CD
:101D700080E090E027D58B8D882319F080E591E0F5
:101D80006EDD69E2CE01EEDD8B8D882319F0DF91E7
:101D9000CF917FCDDF91CF910895CF92DF92FF92C7
:101DA0000F931F93CF93DF9300D01F921F92CDB755
:101DB000DEB76C01F62E6AE22B833A834D835C8397
:101DC0007983D0DD7981672FC60110DE6F2DC601C2
:101DD0000DDE3A81632FC60109DE2B81622FC60119
:101DE00005DE6BE2C601BEDD5C81652FC601FEDD4E
:101DF0004D81642FC601FADD612FC601F7DD602F2A
:101E0000C601F4DD6CE2C6010F900F900F900F90A9
:101E10000F90DF91CF911F910F91FF90DF90CF90A6
:101E2000A1CDAF92BF92CF92DF92EF92FF920F932C
:101E30001F93CF93DF931F921F92CDB7DEB75C0144
:101E40007B01D22EC32E77FD5EC0DC0118968D91EA
:101E50009C911997681779070CF055C057FD53C02E
:101E60001A968D919C911B97481759070CF04BC0FF
:101E70005B968C91882339F080E591E049835A8301
:101E8000EEDC5A8149818A010F5F1F4F97012F5F56
:101E90003F4FB701C50181DFD5019196ED91FC91CE
:101EA00092978081D0969C91D097892B808395962C
:101EB000ED91FC91969790819F968C9180958923C6
:101EC00080836C2DC50123DD6D2DC50120DDD5017D
:101ED0009596ED91FC91969780819F969C919F9706
:101EE000892B80835B968C91882369F00F900F90EB
:101EF000DF91CF911F910F91FF90EF90DF90CF90E6
:101F0000BF90AF90C6CC0F900F90DF91CF911F91F3
:101F10000F91FF90EF90DF90CF90BF90AF9008951A
:101F20008F929F92AF92BF92CF92DF92EF92FF92E9
:101F30000F931F93CF93DF931F921F92CDB7DEB7FE
:101F40004C016B017901B02EA12EDC0118968D9108
:101F50009C911997681779070CF065C01A968D91B6
:101F60009C911B97481759070CF05DC09A012E0DE4
:101F70003F1D821793071CF47C01E41AF50AF40153
:101F8000838D882339F080E591E049835A8367DCAB
:101F90005A8149818A010E0D1F1D015011099601B8
:101FA000B601C401FADED4019196ED91FC919297AD
:101FB0008081D0969C91D097892B80839596ED91C6
:101FC000FC91969790819F968C9180958923808330
:101FD000E114F10451F06A2DC40199DC6B2DC401A8
:101FE00096DCB1E0EB1AF108F3CFD4019596ED91B0
:101FF000FC91969780819F969C919F97892B8083D7
:102000005B968C91882379F00F900F90DF91CF91A0
:102010001F910F91FF90EF90DF90CF90BF90AF9006
:102020009F908F9036CC0F900F90DF91CF911F91A2
:102030000F91FF90EF90DF90CF90BF90AF909F9067
:102040008F9008958F929F92AF92BF92CF92DF921E
:10205000EF92FF920F931F93CF93DF931F921F92E4
:10206000CDB7DEB74C017B016901B02EA12EDC019A
:1020700018968D919C911997681779070CF065C097
:102080001A962D913C911B97421753070CF05DC097
:102090009B012C0D3D1D821793071CF46C01C61A81
:1020A000D70AF401838D882339F080E591E04983D4
:1020B0005A83D5DB5A81498197012C0D3D1D215052
:1020C00031098A01B701C40168DED4019196ED910E
:1020D000FC9192978081D0969C91D097892B808398
:1020E0009596ED91FC91969790819F968C91809515
:1020F00089238083C114D10451F06A2DC40107DC07
:102100006B2DC40104DCB1E0CB1AD108F3CFD401AC
:102110009596ED91FC91969780819F969C919F97C3
:10212000892B80835B968C91882379F00F900F9098
:10213000DF91CF911F910F91FF90EF90DF90CF90A3
:10214000BF90AF909F908F90A4CB0F900F90DF9196
:10215000CF911F910F91FF90EF90DF90CF90BF90A4
:10216000AF909F908F9008956F927F928F929F92E1
:10217000AF92BF92CF92DF92EF92FF920F931F9395
:10218000CF93DF931F921F92CDB7DEB73C016B0157
:1021900059014801DC0118962D913C91199762175D
:1021A00073070CF07BC01A968D919C911B97481772
:1021B00059070CF073C06A0D7B1D261737071CF4F6
:1021C0005901AC18BD089A01280D391D82179307D3
:1021D0001CF44C01841A950AF301838D882339F08D
:1021E00080E591E049835A833ADB5A8149818A012B
:1021F000080D191D0150110996012A0D3B1D215092
:102200003109B601C301C9DDD3019196ED91FC916D
:1022100092978081D0969C91D097892B80839596B8
:10222000ED91FC91969790819F968C918095892352
:1022300080831814190494F465011C141D0454F4CB
:102240006F2DC30164DB6E2DC30161DBB1E0CB1ADE
:10225000D108F3CFE1E08E1A9108EBCFD301959628
:10226000ED91FC91969780819F969C919F97892BE9
:1022700080835B968C91882389F00F900F90DF917B
:10228000CF911F910F91FF90EF90DF90CF90BF9073
:10229000AF909F908F907F906F90FBCA0F900F90A0
:1022A000DF91CF911F910F91FF90EF90DF90CF9032
:1022B000BF90AF909F908F907F906F9008951F93E5
:1022C000CF93DF93EC01162F8B8D882319F080E5D7
:1022D00091E0C5DA66E3CE0145DB612F63706D8B5B
:1022E000623041F0633081F0613011F068E403C086
:1022F00068E20BC068E8CE0179DB80EF90E0998757
:10230000888780E491E009C068EECE016FDB80E44D
:1023100091E09987888780EF90E09B878A878B8DF3
:10232000882321F0DF91CF911F91B3CADF91CF9124
:102330001F91089580E580938B0310928C0308957C
:10234000CF93DF93EC01842F68834A83298361E074
:1023500025D361E0888122D360E089811FD361E0C9
:102360008A81DF91CF9153C361E08FE217D361E09F
:102370008DE214D361E08FE24AD360E08DE247D36F
:1023800061E087E144D361E085E208D361E08CE25B
:1023900005C321E347E165E38DE893E0D1CF82E017
:1023A00090E090939103809390030895AF92BF9231
:1023B000CF92DF92EF92FF920F931F934AE050E08B
:1023C0006CE370E082E993E01ADA60E070E082E9A1
:1023D00093E021DA62E082E993E017DA6EE472E0DA
:1023E00082E993E0B9D5A12CB12C8EE1C82ED12C75
:1023F00099E1E92EF12C0AE010E029E130E044E116
:1024000050E06AE070E082E993E00E94A20740E5B4
:1024100050E066E470E082E993E0F1D960E070E0BA
:1024200082E993E0F8D962E082E993E0EED961E6CF
:1024300072E082E993E090D544E650E066E470E013
:1024400082E993E0DCD960E070E082E993E0E3D9CF
:1024500062E082E993E0D9D960910C0270910D029B
:102460004AE050E082E993E01BD640E550E068EC9A
:1024700070E082E993E0C3D960E070E082E993E024
:10248000CAD962E082E993E0C0D966E672E082E9E7
:1024900093E062D544E650E068EC70E082E993E0B6
:1024A000AED960E070E082E993E0B5D962E082E9FC
:1024B00093E0ABD960910802709109024AE050E0C4
:1024C00082E993E0EDD54AEA50E066E470E082E903
:1024D00093E095D960E070E082E993E09CD962E0F6
:1024E00082E993E092D960910A0270910B024AE06E
:1024F00050E082E993E0D4D529EBC22ED12C32E30F
:10250000E32EF12C0AEA10E02CE330E04AEA50E036
:1025100068E270E082E993E00E94A2074AEAC42ED2
:10252000D12C5BE7E52EF12C09EB10E025E830E03B
:1025300049EB50E061E770E082E993E00E94A20776
:102540004AEA50E068EC70E082E993E058D960E034
:1025500070E082E993E05FD962E082E993E055D9C7
:1025600060910602709107024AE050E082E993E030
:1025700097D569EBC62ED12C74EBE72EF12C0AEA25
:1025800010E02EEB30E04AEA50E06AEA70E082E9BF
:1025900093E00E94A207EAEACE2ED12CFDEFEF2EA7
:1025A000F12C09EB10E027E031E049EB50E063EF5C
:1025B00070E082E993E00E94A2071F910F91FF90C3
:1025C000EF90DF90CF90BF90AF900895CF92EF92B1
:1025D0000F93A7E0CA2EB8E0EB2E06E029E04EE20A
:1025E00065E082E993E066D90F91EF90CF9008956E
:1025F00063E082E993E063DE60E070E082E993E00B
:1026000010D94CE350E06CE370E082E993E0F7D836
:102610006FEF7FEF82E993E0FED863E082E993E019
:10262000F4D86AE672E082E993E096D444E650E09A
:1026300068E270E082E993E0E2D86FEF7FEF82E931
:1026400093E0E9D862E082E993E0DFD866E772E0E0
:1026500082E993E081D448C0CF93DF9300D0CDB717
:10266000DEB782E090E09093910380939003613015
:10267000710569F06230710579F0672B81F4109271
:10268000910310929003CE01019690DE08C07093E2
:1026900091036093900303C0CE010196A9DF0F90D0
:1026A0000F900F90DF91CF910895CF93DF93EC01BE
:1026B00082E993E0B6D96FEF7FEF82E993E0B1D87A
:1026C00063E082E993E0FBDD6CE872E08CEC93E080
:1026D00043D462E070E0CE01BFDF68EE73E080E0DB
:1026E00090E0DF91CF916EC008951F920F920FB6C8
:1026F0000F9211242F933F938F939F93AF93BF9388
:102700008091C4039091C503A091C603B091C70303
:102710003091C30323E0230F2D3720F40196A11D30
:10272000B11D05C026E8230F0296A11DB11D2093FF
:10273000C3038093C4039093C503A093C603B093CF
:10274000C7038091C8039091C903A091CA03B091B7
:10275000CB030196A11DB11D8093C8039093C903BB
:10276000A093CA03B093CB03BF91AF919F918F9178
:102770003F912F910F900FBE0F901F9018953FB76C
:10278000F8948091C8039091C903A091CA03B091B5
:10279000CB0326B5A89B05C02F3F19F00196A11DBC
:1027A000B11D3FBF6627782F892F9A2F620F711DA9
:1027B000811D911D42E0660F771F881F991F4A9562
:1027C000D1F708958F929F92AF92BF92CF92DF92EE
:1027D000EF92FF926B017C01D2DF4B015C01C114CF
:1027E000D104E104F104E1F07FDFC9DF6819790960
:1027F0008A099B09683E73408105910580F321E0B9
:10280000C21AD108E108F10888EE880E83E0981E0C
:10281000A11CB11CC114D104E104F10431F7DFCFD4
:10282000FF90EF90DF90CF90BF90AF909F908F90F0
:102830000895789484B5826084BD84B5816084BD38
:1028400085B5826085BD85B5816085BDEEE6F0E029
:10285000808181608083E1E8F0E010828081826085
:102860008083808181608083E0E8F0E08081816006
:102870008083E1EBF0E0808184608083E0EBF0E036
:10288000808181608083E1E9F0E0808182608083E3
:10289000808181608083E0E9F0E0808181608083D5
:1028A000E1EAF0E0808182608083808181608083C2
:1028B000E0EAF0E0808181608083E1E2F1E0808104
:1028C00082608083808181608083E0E2F1E08081AA
:1028D00081608083EAE7F0E080818460808380818A
:1028E0008260808380818160808380818068808332
:1028F0001092C100089590E0FC013197E231F1059A
:1029000008F04BC0EE58FF4F1FC4809180008F77B6
:1029100003C0809180008F7D809380000895809116
:102920008000877FF9CF84B58F7702C084B58F7D13
:1029300084BD08958091B0008F7703C08091B0006E
:102940008F7D8093B0000895809190008F7707C0AD
:10295000809190008F7D03C080919000877F80934D
:10296000900008958091A0008F7707C08091A0000B
:102970008F7D03C08091A000877F8093A000089581
:10298000809120018F7707C0809120018F7D03C047
:1029900080912001877F809320010895CF93DF935A
:1029A00090E0FC01E25BF94F2491FC01EC56F94FF9
:1029B0008491882349F190E0880F991FFC01EC5025
:1029C000F94FA591B4918652994FFC01C591D491CC
:1029D0009FB7611108C0F8948C91209582238C9345
:1029E000888182230AC0623051F4F8948C91322F8E
:1029F000309583238C938881822B888304C0F8943C
:102A00008C91822B8C939FBFDF91CF9108950F9370
:102A10001F93CF93DF931F92CDB7DEB7282F30E0FF
:102A2000F901E85FF94F8491F901E25BF94F1491E4
:102A3000F901EC56F94F04910023C1F0882319F0F5
:102A4000698359DF6981E02FF0E0EE0FFF1FE65246
:102A5000F94FA591B4919FB7F8948C91611103C07F
:102A60001095812301C0812B8C939FBF0F90DF9124
:102A7000CF911F910F91089571D3FC01818D228D0B
:102A800090E0805C9F4F821B91098F739927089576
:102A9000FC01918D828D981731F0828DE80FF11D28
:102AA000858D90E008958FEF9FEF0895FC01918D43
:102AB000828D981761F0828DDF01A80FB11D5D96A0
:102AC0008C91928D9F5F9F73928F90E008958FEF0E
:102AD0009FEF08958BE097E1892B39F080E090E03B
:102AE000892B19F098D1811125C080E090E0892BC5
:102AF00041F080E090E0892B21F00E9400008111DC
:102B00001CC080E090E0892B41F080E090E0892BB0
:102B100021F00E940000811113C080E090E0892B19
:102B2000A1F080E090E0892B81F00E9400008111EB
:102B30000AC008950E940000D8CF0E940000E1CF93
:102B40000E940000EACF0C9400000895FC01848DDF
:102B5000DF01A80FB11DA35ABF4F2C91848D90E0C7
:102B600001968F739927848FA689B7892C93A089A2
:102B7000B1898C9180648C93938D848D981306C059
:102B80000288F389E02D80818F7D80830895CF9323
:102B9000DF93EC01888D8823C1F0EA89FB8980816D
:102BA00085FD05C0A889B9898C9186FD0EC00FB638
:102BB00007FCF5CF808185FFF2CFA889B9898C9178
:102BC00085FFEDCFCE01C2DFE8CFDF91CF91089531
:102BD000CF92DF92FF920F931F93CF93DF931F92B9
:102BE000CDB7DEB76C0181E0D60158968C9358972B
:102BF0005B969C915B975C968C915C97981307C051
:102C00005096ED91FC915197808185FD2DC0F60184
:102C1000038D10E00F5F1F4F0F731127F02EF60189
:102C2000848DF81210C00FB607FCF9CFD60150966C
:102C3000ED91FC915197808185FFF1CFC6016983A9
:102C400085DF6981ECCF838DE80FF11DE35AFF4FDB
:102C50006083D6015B960C935B975296ED91FC9145
:102C60005397808180620CC0D6015696ED91FC91FD
:102C7000579760835096ED91FC91519780818064C5
:102C8000808381E090E00F90DF91CF911F910F91B1
:102C9000FF90DF90CF900895BF92CF92DF92EF9296
:102CA000FF92CF93DF93EC016A017B01B22EE8899A
:102CB000F98982E08083411581EE5807610571052D
:102CC00099F060E079E08DE390E0A7019601FED1F4
:102CD0002150310941095109569547953795279556
:102CE000211580E1380790F0E889F989108260E8C1
:102CF00074E88EE190E0A7019601E8D121503109F6
:102D0000410951095695479537952795EC85FD85DD
:102D10003083EE85FF852083188EEC89FD89B08293
:102D2000EA89FB89808180618083EA89FB898081CF
:102D300088608083EA89FB89808180688083EA8952
:102D4000FB8980818F7D8083DF91CF91FF90EF9011
:102D5000DF90CF90BF9008951F920F920FB60F9201
:102D600011240BB60F922F938F939F93EF93FF93A2
:102D7000E091DC03F091DD038081E091E203F091CA
:102D8000E30382FD12C090818091E5038F5F8F7312
:102D90002091E603821751F0E091E503F0E0E4535F
:102DA000FC4F958F8093E50301C08081FF91EF91E7
:102DB0009F918F912F910F900BBE0F900FBE0F9090
:102DC0001F9018951F920F920FB60F9211240BB6F9
:102DD0000F922F933F934F935F936F937F938F93B4
:102DE0009F93AF93BF93EF93FF938CEC93E0AEDE92
:102DF000FF91EF91BF91AF919F918F917F916F91D3
:102E00005F914F913F912F910F900BBE0F900FBE8E
:102E10000F901F9018958CEC93E02FDE21E0892B0A
:102E200009F420E0822F08951092CF031092CE0370
:102E300088EE93E0A0E0B0E08093D0039093D103BC
:102E4000A093D203B093D30388EA92E09093CD038A
:102E50008093CC0385EC90E09093D9038093D803C2
:102E600084EC90E09093DB038093DA0380EC90E0B5
:102E70009093DD038093DC0381EC90E09093DF037B
:102E80008093DE0382EC90E09093E1038093E00373
:102E900086EC90E09093E3038093E2031092E503C5
:102EA0001092E6031092E7031092E8030895089544
:102EB000C0DCFDDF0E94BF03CAE6D5E10E94CC035F
:102EC0002097E1F307DEFACFCF92DF92EF92FF92E5
:102ED0000F931F93CF93DF937C016A01EB0100E016
:102EE00010E00C151D0571F06991D701ED91FC9171
:102EF0000190F081E02DC7011995892B19F00F5F22
:102F00001F4FEFCFC801DF91CF911F910F91FF901D
:102F1000EF90DF90CF9008956115710581F0DB018E
:102F20000D900020E9F7AD0141505109461B570BA8
:102F3000DC01ED91FC910280F381E02D199480E099
:102F400090E00895DC01ED91FC910190F081E02D7D
:102F5000199464EB72E0E0CF0F931F93CF93DF934C
:102F6000EC01DADF8C01CE01F4DF800F911FDF91DD
:102F7000CF911F910F9108958F929F92AF92BF9220
:102F8000DF92EF92FF920F931F93CF93DF93CDB712
:102F9000DEB7A1970FB6F894DEBF0FBECDBF7C01A0
:102FA000F42FD52ECB0119A2223008F42AE08E018D
:102FB0000F5D1F4F822E912CA12CB12C6F2F7D2DD8
:102FC000A501940183D0F22FD32ECA01015011091B
:102FD0006A3014F4E0E301C0E7E3E60FD801EC93B4
:102FE000232B242B252B51F7B801C70195DFA19680
:102FF0000FB6F894DEBF0FBECDBFDF91CF911F910A
:103000000F91FF90EF90DF90BF90AF909F908F90C7
:103010000895CF92DF92EF92FF920F931F93CF9379
:10302000DF93EC016A017B012115310579F4E88118
:10303000F9810190F081E02D642FDF91CF911F91F4
:103040000F91FF90EF90DF90CF9019942A303105C7
:10305000D9F477FF18C06DE275DF8C01442755273E
:10306000BA014C195D096E097F092AE0CE0184DF9F
:10307000800F911FDF91CF911F910F91FF90EF90E3
:10308000DF90CF9008952AE0B701A601CE01DF912D
:10309000CF911F910F91FF90EF90DF90CF906CCF69
:1030A0000F931F93CF93DF93EC019A01AB01662737
:1030B00057FD6095762FADDF8C01CE014ADF800F82
:1030C000911FDF91CF911F910F910895A1E21A2EC8
:1030D000AA1BBB1BFD010DC0AA1FBB1FEE1FFF1FBC
:1030E000A217B307E407F50720F0A21BB30BE40B0C
:1030F000F50B661F771F881F991F1A9469F7609553
:103100007095809590959B01AC01BD01CF0108950C
:10311000052E97FB16F400940FD057FD05D0D6DF8F
:1031200007FC02D046F408C0509540953095219593
:103130003F4F4F4F5F4F08959095809570956195E3
:103140007F4F8F4F9F4F0895EE0FFF1F0590F49113
:10315000E02D19940790F691E02D199481E090E00C
:08316000F89400C0F894FFCFC1
:103168000000690480002D002300C80096000000BC
:1031780000002C040004D503DD03F003FF03000066
:1031880000002B0B64173C15FA0500071707B1065A
:103198002D0762078007000000002B0B6417110F32
:1031A800FA05900F2210B106B410110CCE0C4C6920
:1031B800766520526F61737420436F6E74726F6C02
:1031C8000054656D700046616E005269676874202E
:1031D800526F6173740057616974696E67206F6E0E
:1031E80020636F6D6D616E642E2E2E0052756E6EAB
:1031F800696E67206C697665526F6173745669658C
:103208007728290000000000E81564173D155615B9
:103218004815C7150D0A006E616E00696E66006F6D
:0432280076660000C6
:00000001FF
