:100000000C94C90F0C94A44A0C94CF4A0C94FA4A4D
:100010000C94254B0C94504B0C947B4B0C94A64B9E
:100020000C94D14B0C94FA0F0C94FA0F0C94FA0F19
:100030000C94FA0F0C94FA0F0C94FA0F0C94FA0F1C
:100040000C94FA0F0C94FA0F0C94FA0F0C94FA0F0C
:100050000C94FA0F0C94FA0F0C94FA0F0C94FC4BBE
:100060000C94FA0F0C94694F0C949F4F0C94FA0F58
:100070000C94FA0F0C94FA0F0C94FA0F0C94FA0FDC
:100080000C94FA0F0C94FA0F0C94FA0F0C94FA0FCC
:100090000C94FA0F0C94FA0F0C94FA0F0C940612AD
:1000A0000C94FA0F0C94FA0F0C94FA0F0C94FA0FAC
:1000B0000C94FA0F0C94FA0F0C94FA0F0C94FA0F9C
:1000C0000C94FA0F0C94FA0F0C94FA0F0C94FA0F8C
:1000D0000C94FA0F0C94FA0F0C94FA0F0C94FA0F7C
:1000E0000C94FA0F75138813771379137B137D1310
:1000F0007F1381130843D542CC42E742DC42D94208
:100100008742A342574A214A294A354A424A634A0A
:10011000704A944A8A4A8C4A8E4A904A964A984A29
:10012000274D2A4D194D1D4D234D614D2E4D324DFC
:10013000384D3C4D404D464D4A4D4E4D614D544D10
:10014000584D5C4D00000000003E5B4F5B3E3E6B37
:100150004F6B3E1C3E7C3E1C183C7E3C181C577D61
:10016000571C1C5E7F5E1C00183C1800FFE7C3E7AD
:10017000FF0018241800FFE7DBE7FF30483A060EBF
:100180002629792926407F050507407F05253F5A06
:100190003CE73C5A7F3E1C1C08081C1C3E7F142276
:1001A0007F22145F5F005F5F06097F017F00668921
:1001B000956A606060606094A2FFA29408047E0467
:1001C0000810207E201008082A1C08081C2A08088D
:1001D0001E101010100C1E0C1E0C30383E3830064D
:1001E0000E3E0E06000000000000005F0000000749
:1001F000000700147F147F14242A7F2A1223130877
:10020000646236495620500008070300001C224152
:10021000000041221C002A1C7F1C2A08083E0808F6
:1002200000807030000808080808000060600020A6
:10023000100804023E5149453E00427F4000724989
:100240004949462141494D331814127F102745452D
:1002500045393C4A49493141211109073649494943
:1002600036464949291E00001400000040340000B1
:10027000000814224114141414140041221408021A
:10028000015909063E415D594E7C1211127C7F498D
:100290004949363E414141227F4141413E7F4949E2
:1002A00049417F090909013E414151737F0808080E
:1002B0007F00417F41002040413F017F08142241DF
:1002C0007F404040407F021C027F7F0408107F3E39
:1002D0004141413E7F090909063E4151215E7F09A6
:1002E000192946264949493203017F01033F40400D
:1002F000403F1F2040201F3F4038403F63140814F8
:100300006303047804036159494D43007F4141412F
:100310000204081020004141417F04020102044010
:1003200040404040000307080020545478407F2894
:100330004444383844444428384444287F3854548A
:10034000541800087E090218A4A49C787F080404AD
:100350007800447D40002040403D007F102844004C
:1003600000417F40007C047804787C0804047838DD
:1003700044444438FC1824241818242418FC7C080D
:10038000040408485454542404043F44243C40408A
:10039000207C1C2040201C3C4030403C442810283D
:1003A000444C9090907C4464544C44000836410086
:1003B0000000770000004136080002010204023C00
:1003C0002623263C1EA1A161123A4040207A3854CF
:1003D0005455592155557941225454784221555448
:1003E000784020545579400C1E527212395555559B
:1003F00059395454545939555454580000457C4186
:100400000002457D420001457C407D1211127DF0C5
:10041000282528F07C545545002054547C547C0AEF
:10042000097F4932494949323A4444443A324A48B8
:1004300048303A4141217A3A42402078009DA0A0BC
:100440007D3D4242423D3D4040403D3C24FF24240E
:10045000487E4943662B2FFC2F2BFF0929F620C02D
:10046000887E090320545479410000447D4130487E
:10047000484A32384040227A007A0A0A727D0D19C1
:10048000317D2629292F28262929292630484D4023
:1004900020380808080808080808382F10C8ACBA1F
:1004A0002F102834FA00007B000008142A1422229E
:1004B000142A14085500550055AA55AA55AAFF55E7
:1004C000FF55FF000000FF00101010FF001414146F
:1004D000FF001010FF00FF1010F010F0141414FCB7
:1004E000001414F700FF0000FF00FF1414F404FCD4
:1004F000141417101F10101F101F1414141F0010B5
:100500001010F0000000001F101010101F1010102D
:1005100010F010000000FF1010101010101010103C
:10052000FF10000000FF140000FF00FF00001F107C
:10053000170000FC04F414141710171414F404F436
:100540000000FF00F714141414141414F700F71427
:100550001414171410101F101F141414F414101076
:10056000F010F000001F101F0000001F140000001A
:10057000FC140000F010F01010FF10FF141414FF12
:10058000141010101F00000000F010FFFFFFFFFF0D
:10059000F0F0F0F0F0FFFFFF0000000000FFFF0FA1
:1005A0000F0F0F0F3844443844FC4A4A4A347E0245
:1005B000020606027E027E026355494163384444C6
:1005C0003C04407E201E2006027E020299A5E7A57B
:1005D000991C2A492A1C4C7201724C304A4D4D30EC
:1005E0003048784830BC625A463D3E494949007E11
:1005F0000101017E2A2A2A2A2A44445F44444051A8
:100600004A444040444A51400000FF0103E080FF5B
:10061000000008086B6B083612362436060F090FE7
:1006200006000018180000001010003040FF010103
:10063000001F01011E00191D1712003C3C3C3C002C
:10064000000000000D0A00417574686F72697A61DC
:1006500074696F6E3A204A57542065794A3065585C
:1006600041694F694A4B563151694C434A68624768
:1006700063694F694A49557A49314E694A392E654D
:10068000794A66615751694F6949314E7A5A685AB9
:100690005745795A6D466B4F444930593249314D6F
:1006A0005755334E3255795A5749694C434A31634D
:1006B000325679626D46745A534936496B566959B8
:1006C000586C30595734694C434A7759584E7A64BC
:1006D0003239795A43493649695179595351784DDC
:1006E00043517A5348466B57484E4F5A6E4A70559D
:1006F000485A6F4D55646E4D7A4251614851755557
:1007000055786B64566859635664714E6935346424
:100710006D3948557A4A795A554675566D686B65F4
:100720006C6C6E4F57395861534973496D56745903
:10073000576C73496A6F6961575632595735695911
:10074000586C30595735415A32316861577775596D
:100750003239744969776958313932496A6F774C4F
:10076000434A796232467A64476C755A33427962F9
:10077000325A706247567A496A7062496B356C64C6
:10078000794246626D64735957356B49697769548C
:100790006D5633494556755A327868626D516958BD
:1007A000537769636D39686333526C6369493665A1
:1007B000794A796232467A64476C755A314E3059BB
:1007C00058523163794936496E4E3059584A304C47
:1007D00058426C626D5270626D63694C434A796233
:1007E00032467A64455268644745694F694A4F5AB0
:1007F0005863675257356E624746755A434A394CBB
:10080000434A7959585270626D63694F6E736959E2
:10081000585A6E556D46306157356E496A6F774C40
:10082000434A30623352686245466A59314A6864C5
:10083000476C755A7949364D437769626E567459DB
:100840006D567962325A5359585270626D647A49C2
:100850006A6F776658302E767033377766786A6BB2
:100860005848634E52545F6C5548417164442D762C
:10087000455843534E364C433877627843652D6371
:100880007967000D0A00486F73743A2000204854BD
:1008900054502F312E310D0A00504F535420000D6B
:1008A0000A00417574686F72697A6174696F6E3A93
:1008B000204A57542065794A30655841694F694A42
:1008C0004B563151694C434A68624763694F694AE4
:1008D00049557A49314E694A392E65794A666157D8
:1008E00051694F6949314E7A5A685A5745795A6D5C
:1008F000466B4F444930593249314D5755334E328A
:1009000055795A5749694C434A3163325679626D79
:1009100046745A534936496B566959586C30595781
:1009200034694C434A7759584E7A643239795A437C
:10093000493649695179595351784D43517A534851
:10094000466B57484E4F5A6E4A7055485A6F4D5530
:10095000646E4D7A4251614851755555786B6456B5
:100960006859635664714E693534646D3948557AF7
:100970004A795A554675566D686B656C6C6E4F5763
:10098000395861534973496D567459576C73496AA4
:100990006F69615756325957356959586C305957F4
:1009A00035415A323168615777755932397449691E
:1009B000776958313932496A6F774C434A796232E4
:1009C000467A64476C755A33427962325A7062478C
:1009D000567A496A7062496B356C64794246626D39
:1009E00064735957356B49697769546D5633494576
:1009F00056755A327868626D516958537769636DDC
:100A000039686333526C6369493665794A79623271
:100A1000467A64476C755A314E3059585231637971
:100A20004936496E4E3059584A304C58426C626DC6
:100A30005270626D63694C434A796232467A64450A
:100A40005268644745694F694A4F5A58636752571D
:100A5000356E624746755A434A394C434A7959586C
:100A60005270626D63694F6E736959585A6E556D55
:100A700046306157356E496A6F774C434A3062336E
:100A800052686245466A59314A6864476C755A79BA
:100A900049364D437769626E5674596D56796232A4
:100AA0005A5359585270626D647A496A6F77665822
:100AB000302E767033377766786A6B5848634E52BB
:100AC000545F6C5548417164442D76455843534EEC
:100AD000364C433877627843652D637967000D0A99
:100AE00000486F73743A200020485454502F312E20
:100AF000310D0A00504F535420000D0A0041757407
:100B0000686F72697A6174696F6E3A204A5754202F
:100B100065794A30655841694F694A4B5631516988
:100B20004C434A68624763694F694A49557A49317B
:100B30004E694A392E65794A66615751694F69494C
:100B4000314E7A5A685A5745795A6D466B4F444927
:100B500030593249314D5755334E3255795A5749EC
:100B6000694C434A3163325679626D46745A53492F
:100B700036496B566959586C30595734694C434A59
:100B80007759584E7A643239795A4349364969510E
:100B900079595351784D43517A5348466B57484ED3
:100BA0004F5A6E4A7055485A6F4D55646E4D7A4291
:100BB00051614851755555786B6456685963566450
:100BC000714E693534646D3948557A4A795A5546BB
:100BD00075566D686B656C6C6E4F5739586153492B
:100BE00073496D567459576C73496A6F69615756EA
:100BF000325957356959586C30595735415A323145
:100C0000686157777559323974496977695831394C
:100C100032496A6F774C434A796232467A64476C4C
:100C2000755A33427962325A706247567A496A700D
:100C300062496B356C64794246626D64735957350D
:100C40006B49697769546D5633494556755A327800
:100C500068626D516958537769636D3968633352BF
:100C60006C6369493665794A796232467A64476CC1
:100C7000755A314E305958523163794936496E4E62
:100C80003059584A304C58426C626D5270626D63F4
:100C9000694C434A796232467A64455268644745F2
:100CA000694F694A4F5A5863675257356E624746D3
:100CB000755A434A394C434A7959585270626D63A8
:100CC000694F6E736959585A6E556D463061573584
:100CD0006E496A6F774C434A3062335268624546C8
:100CE0006A59314A6864476C755A7949364D437779
:100CF00069626E5674596D567962325A5359585218
:100D000070626D647A496A6F776658302E767033F8
:100D1000377766786A6B5848634E52545F6C554813
:100D2000417164442D76455843534E364C433877D1
:100D3000627843652D637967000D0A00486F73740C
:100D40003A200020485454502F312E310D0A0050C3
:100D50004F535420000D0A00417574686F72697A10
:100D60006174696F6E3A204A57542065794A30653C
:100D70005841694F694A4B563151694C434A686240
:100D80004763694F694A49557A49314E694A392E54
:100D900065794A66615751694F6949314E7A5A6897
:100DA0005A5745795A6D466B4F444930593249314B
:100DB0004D5755334E3255795A5749694C434A314C
:100DC00063325679626D46745A534936496B566997
:100DD00059586C30595734694C434A7759584E7AB0
:100DE000643239795A4349364969517959535178AE
:100DF0004D43517A5348466B57484E4F5A6E4A708E
:100E000055485A6F4D55646E4D7A4251614851753F
:100E10005555786B64566859635664714E6935341C
:100E2000646D3948557A4A795A554675566D686BDE
:100E3000656C6C6E4F57395861534973496D5674E0
:100E400059576C73496A6F696157563259573569FA
:100E500059586C30595735415A3231686157777556
:100E6000593239744969776958313932496A6F772B
:100E70004C434A796232467A64476C755A334279F8
:100E800062325A706247567A496A7062496B356CB1
:100E900064794246626D64735957356B4969776965
:100EA000546D5633494556755A327868626D5169AA
:100EB00058537769636D39686333526C6369493697
:100EC00065794A796232467A64476C755A314E3098
:100ED0005958523163794936496E4E3059584A3023
:100EE0004C58426C626D5270626D63694C434A7932
:100EF0006232467A64455268644745694F694A4F91
:100F00005A5863675257356E624746755A434A3995
:100F10004C434A7959585270626D63694F6E7369D8
:100F200059585A6E556D46306157356E496A6F771C
:100F30004C434A30623352686245466A59314A68C6
:100F400064476C755A7949364D437769626E5674B9
:100F5000596D567962325A5359585270626D647A9B
:100F6000496A6F776658302E767033377766786ABD
:100F70006B5848634E52545F6C5548417164442D20
:100F800076455843534E364C433877627843652D47
:100F9000637967000D0A00486F73743A2000204897
:100FA0005454502F312E310D0A00504F535420000D
:100FB0000D0A00417574686F72697A6174696F6EA9
:100FC0003A204A57542065794A30655841694F693B
:100FD0004A4B563151694C434A68624763694F69CD
:100FE0004A49557A49314E694A392E65794A6661CE
:100FF0005751694F6949314E7A5A685A5745795A5B
:101000006D466B4F444930593249314D5755334E37
:101010003255795A5749694C434A3163325679629D
:101020006D46745A534936496B566959586C305954
:101030005734694C434A7759584E7A643239795A51
:1010400043493649695179595351784D43517A533F
:1010500048466B57484E4F5A6E4A7055485A6F4D26
:1010600055646E4D7A4251614851755555786B649F
:10107000566859635664714E693534646D39485504
:101080007A4A795A554675566D686B656C6C6E4F29
:1010900057395861534973496D567459576C7349A0
:1010A0006A6F69615756325957356959586C3059CA
:1010B0005735415A32316861577775593239744919
:1010C00069776958313932496A6F774C434A796296
:1010D00032467A64476C755A33427962325A70628A
:1010E00047567A496A7062496B356C647942466248
:1010F0006D64735957356B49697769546D56334937
:101100004556755A327868626D51695853776963EC
:101110006D39686333526C6369493665794A79621F
:1011200032467A64476C755A314E305958523163A1
:10113000794936496E4E3059584A304C58426C62A3
:101140006D5270626D63694C434A796232467A64CB
:10115000455268644745694F694A4F5A5863675218
:1011600057356E624746755A434A394C434A795956
:10117000585270626D63694F6E736959585A6E5553
:101180006D46306157356E496A6F774C434A30621D
:101190003352686245466A59314A6864476C755AE9
:1011A0007949364D437769626E5674596D56796246
:1011B000325A5359585270626D647A496A6F776631
:1011C00058302E767033377766786A6B5848634E9E
:1011D00052545F6C5548417164442D7645584353D1
:1011E0004E364C433877627843652D637967000D3E
:1011F0000A00486F73743A200020485454502F312D
:101200002E310D0A00504F535420000D0A00417535
:1012100074686F72697A6174696F6E3A204A5754C4
:101220002065794A30655841694F694A4B563151BA
:10123000694C434A68624763694F694A49557A492C
:10124000314E694A392E65794A66615751694F694D
:1012500049314E7A5A685A5745795A6D466B4F4410
:101260004930593249314D5755334E3255795A57D5
:1012700049694C434A3163325679626D46745A5318
:101280004936496B566959586C30595734694C4343
:101290004A7759584E7A643239795A4349364969FE
:1012A0005179595351784D43517A5348466B5748B9
:1012B0004E4F5A6E4A7055485A6F4D55646E4D7A6E
:1012C0004251614851755555786B6456685963565B
:1012D00064714E693534646D3948557A4A795A5586
:1012E0004675566D686B656C6C6E4F573958615317
:1012F0004973496D567459576C73496A6F696157E0
:1013000056325957356959586C30595735415A3208
:10131000316861577775593239744969776958313D
:101320003932496A6F774C434A796232467A644768
:101330006C755A33427962325A706247567A496AFA
:101340007062496B356C64794246626D64735957BB
:10135000356B49697769546D5633494556755A322C
:101360007868626D516958537769636D3968633382
:10137000526C6369493665794A796232467A6447C4
:101380006C755A314E305958523163794936496E2D
:101390004E3059584A304C58426C626D5270626DF2
:1013A00063694C434A796232467A644552686447BD
:1013B00045694F694A4F5A5863675257356E6247BD
:1013C00046755A434A394C434A7959585270626DAE
:1013D00063694F6E736959585A6E556D463061573F
:1013E000356E496A6F774C434A30623352686245C2
:1013F000466A59314A6864476C755A7949364D4393
:101400007769626E5674596D567962325A535958DB
:101410005270626D647A496A6F776658302E7670C2
:1014200033377766786A6B5848634E52545F6C5511
:1014300048417164442D76455843534E364C4338E9
:1014400077627843652D637967000D0A00486F73F2
:10145000743A200020485454502F312E310D0A0088
:10146000504F535420000D0A00417574686F726923
:101470007A6174696F6E3A204A57542065794A3010
:10148000655841694F694A4B563151694C434A6826
:10149000624763694F694A49557A49314E694A3909
:1014A0002E65794A66615751694F6949314E7A5ABA
:1014B000685A5745795A6D466B4F444930593249FD
:1014C000314D5755334E3255795A5749694C434A35
:1014D0003163325679626D46745A534936496B56B8
:1014E0006959586C30595734694C434A7759584EAA
:1014F0007A643239795A4349364969517959535195
:10150000784D43517A5348466B57484E4F5A6E4A6E
:101510007055485A6F4D55646E4D7A42516148512D
:10152000755555786B64566859635664714E6935C4
:1015300034646D3948557A4A795A554675566D68FE
:101540006B656C6C6E4F57395861534973496D56D2
:101550007459576C73496A6F6961575632595735D8
:101560006959586C30595735415A3231686157774B
:1015700075593239744969776958313932496A6F16
:10158000774C434A796232467A64476C755A3342E3
:101590007962325A706247567A496A7062496B358D
:1015A0006C64794246626D64735957356B4969774B
:1015B00069546D5633494556755A327868626D5193
:1015C0006958537769636D39686333526C6369494D
:1015D0003665794A796232467A64476C755A314E7B
:1015E000305958523163794936496E4E3059584A0C
:1015F000304C58426C626D5270626D63694C434A64
:10160000796232467A64455268644745694F694A4F
:101610004F5A5863675257356E624746755A434A68
:10162000394C434A7959585270626D63694F6E73F1
:101630006959585A6E556D46306157356E496A6F13
:10164000774C434A30623352686245466A59314AA0
:101650006864476C755A7949364D437769626E56AE
:1016600074596D567962325A5359585270626D648A
:101670007A496A6F776658302E7670333777667896
:101680006A6B5848634E52545F6C554841716444CC
:101690002D76455843534E364C4338776278436530
:1016A0002D637967000D0A00486F73743A2000209B
:1016B000485454502F312E310D0A00504F535420AE
:1016C000000D0A00417574686F72697A6174696F00
:1016D0006E3A204A57542065794A30655841694F1F
:1016E000694A4B563151694C434A68624763694FB6
:1016F000694A49557A49314E694A392E65794A66AF
:10170000615751694F6949314E7A5A685A5745793C
:101710005A6D466B4F444930593249314D57553314
:101720004E3255795A5749694C434A31633256799A
:10173000626D46745A534936496B566959586C3034
:10174000595734694C434A7759584E7A643239793B
:101750005A43493649695179595351784D43517A21
:101760005348466B57484E4F5A6E4A7055485A6F09
:101770004D55646E4D7A4251614851755555786B9F
:1017800064566859635664714E693534646D3948DE
:10179000557A4A795A554675566D686B656C6C6E0C
:1017A0004F57395861534973496D567459576C7383
:1017B000496A6F69615756325957356959586C30C3
:1017C000595735415A3231686157777559323974F2
:1017D0004969776958313932496A6F774C434A7998
:1017E0006232467A64476C755A33427962325A7073
:1017F0006247567A496A7062496B356C6479424631
:10180000626D64735957356B49697769546D563306
:10181000494556755A327868626D516958537769EF
:10182000636D39686333526C6369493665794A7907
:101830006232467A64476C755A314E30595852318B
:1018400063794936496E4E3059584A304C58426C8B
:10185000626D5270626D63694C434A796232467AB6
:1018600064455268644745694F694A4F5A586367EF
:101870005257356E624746755A434A394C434A7946
:1018800059585270626D63694F6E736959585A6E38
:10189000556D46306157356E496A6F774C434A3013
:1018A000623352686245466A59314A6864476C75CA
:1018B0005A7949364D437769626E5674596D567937
:1018C00062325A5359585270626D647A496A6F771E
:1018D0006658302E767033377766786A6B5848636F
:1018E0004E52545F6C5548417164442D76455843BF
:1018F000534E364C433877627843652D63796700E1
:101900000D0A00486F73743A200020485454502F39
:10191000312E310D0A00504F535420000D0A004162
:101920007574686F72697A6174696F6E3A204A578C
:10193000542065794A30655841694F694A4B5631A0
:1019400051694C434A68624763694F694A49557A0D
:1019500049314E694A392E65794A66615751694F56
:101960006949314E7A5A685A5745795A6D466B4FD4
:10197000444930593249314D5755334E3255795AD1
:101980005749694C434A3163325679626D46745AFD
:10199000534936496B566959586C30595734694C1C
:1019A000434A7759584E7A643239795A434936490D
:1019B000695179595351784D43517A5348466B5781
:1019C000484E4F5A6E4A7055485A6F4D55646E4D89
:1019D0007A4251614851755555786B645668596320
:1019E0005664714E693534646D3948557A4A795A6E
:1019F000554675566D686B656C6C6E4F57395861FE
:101A0000534973496D567459576C73496A6F6961CC
:101A10005756325957356959586C30595735415ACC
:101A20003231686157777559323974496977695825
:101A3000313932496A6F774C434A796232467A6467
:101A4000476C755A33427962325A706247567A4906
:101A50006A7062496B356C64794246626D64735991
:101A600057356B49697769546D5633494556755AF0
:101A7000327868626D516958537769636D3968636C
:101A800033526C6369493665794A796232467A64C1
:101A9000476C755A314E305958523163794936493D
:101AA0006E4E3059584A304C58426C626D527062DA
:101AB0006D63694C434A796232467A644552686480
:101AC0004745694F694A4F5A5863675257356E62A6
:101AD0004746755A434A394C434A795958527062BD
:101AE0006D63694F6E736959585A6E556D46306112
:101AF00057356E496A6F774C434A30623352686299
:101B000045466A59314A6864476C755A7949364D79
:101B1000437769626E5674596D567962325A5359D9
:101B2000585270626D647A496A6F776658302E76C3
:101B30007033377766786A6B5848634E52545F6CDF
:101B40005548417164442D76455843534E364C43B5
:101B50003877627843652D637967000D0A00486F16
:101B600073743A200020485454502F312E310D0AFE
:101B700000504F53542000436F6E6E656374696F5D
:101B80006E206661696C6564000D0A0041757468B9
:101B90006F72697A6174696F6E3A204A5754206592
:101BA000794A30655841694F694A4B563151694C01
:101BB000434A68624763694F694A49557A49314ED9
:101BC000694A392E65794A66615751694F694931C9
:101BD0004E7A5A685A5745795A6D466B4F44493088
:101BE000593249314D5755334E3255795A57496913
:101BF0004C434A3163325679626D46745A534936C2
:101C0000496B566959586C30595734694C434A7777
:101C100059584E7A643239795A434936496951796B
:101C2000595351784D43517A5348466B57484E4F5C
:101C30005A6E4A7055485A6F4D55646E4D7A4251EE
:101C4000614851755555786B64566859635664718F
:101C50004E693534646D3948557A4A795A55467516
:101C6000566D686B656C6C6E4F573958615349738C
:101C7000496D567459576C73496A6F69615756328A
:101C80005957356959586C30595735415A3231686E
:101C900061577775593239744969776958313932E2
:101CA000496A6F774C434A796232467A64476C7569
:101CB0005A33427962325A706247567A496A706280
:101CC000496B356C64794246626D64735957356B64
:101CD00049697769546D5633494556755A32786863
:101CE000626D516958537769636D39686333526C1B
:101CF0006369493665794A796232467A64476C7518
:101D00005A314E305958523163794936496E4E3006
:101D100059584A304C58426C626D5270626D63691A
:101D20004C434A796232467A644552686447456951
:101D30004F694A4F5A5863675257356E6247467526
:101D40005A434A394C434A7959585270626D636913
:101D50004F6E736959585A6E556D46306157356EDE
:101D6000496A6F774C434A30623352686245466A2B
:101D700059314A6864476C755A7949364D437769D9
:101D8000626E5674596D567962325A535958527070
:101D9000626D647A496A6F776658302E7670333791
:101DA0007766786A6B5848634E52545F6C55484169
:101DB0007164442D76455843534E364C4338776210
:101DC0007843652D637967000D0A00486F73743A94
:101DD000200020485454502F312E310D0A00474521
:101DE000542000436F756C646E2774207265736FA6
:101DF0006C76652100202D3E2000436F6E6E65637A
:101E000074656421004661696C656421000A41744F
:101E100074656D7074696E6720746F20636F6E6E89
:101E200065637420746F2000436F756C646E277453
:101E300020626567696E28292120436865636B20ED
:101E4000796F757220776972696E673F000A496E13
:101E5000697469616C697A696E672E2E2E000000C4
:101E60000A0B02090C0D0E08070304010000000014
:101E70000000000000000000000000000000000062
:101E8000000000000000000000001211100000001F
:101E90000000000000000000000000000000000042
:101EA000000000000102102020080810204010202F
:101EB000408002010201080402010102040810200E
:101EC000408080402010080402018004020180400C
:101ED0002010080402010804020101020408102075
:101EE0004080010204081020408005050505070513
:101EF00008080808020202020A0A08080404040486
:101F000001010101010101010303030303030303B1
:101F1000040707070C0C0C0C0C0C0C0C0202020240
:101F200006060606060606060B0B0B0B0B0B0B0B29
:101F3000000020002300260029002C002F00320082
:101F40000001000003010601090100002200250034
:101F500028002B002E003100340002010000050192
:101F600008010B0100002100240027002A002D0099
:101F70003000330001010000040107010A013311A0
:101F8000DA11D81AE31AAB384A3A973B2444D14FB6
:101F9000615011241FBECFEFD1E2DEBFCDBF00E004
:101FA0000CBF18E0A0E0B2E0E8ECF1EB00E00BBF02
:101FB00002C007900D92AA36B107D9F72BE0AAE626
:101FC000B8E001C01D92A23DB207E1F71FE1C2E9EE
:101FD000DFE100E006C022970109FE010BBF0E946D
:101FE000B656CE37D10780E00807A9F70E94715096
:101FF0000C94E2580C94000064E672E089E29BE0E5
:102000000E9417518CE698E00E940B3C65E474E056
:1020100089E29BE00C941751CF93DF93EC01449637
:102020000E94CA52CE010C960E94CA52CE01069658
:102030000E94CA52CE01DF91CF910C94CA52EF9206
:10204000FF920F931F93CF93DF93CDB7DEB7C054AA
:10205000D1090FB6F894DEBF0FBECDBFCE014B96AF
:102060000E945E4380916A0881112AC0CE010196C8
:102070000E945E43BE016F5F7F4FCE014B960E9470
:102080009753BE01695F7F4FCE0181960E9497539F
:10209000BE01635F7F4FCE0187960E9497538B8965
:1020A0009C899EA78DA7BE016B5E7F4FCE018F9648
:1020B0000E949753CE010196AFDF81E080936A08BA
:1020C0006CE772E089E29BE00E941751CE014B96CB
:1020D0000E943F4465E972E089E29BE00E94EC5077
:1020E000BE01655E7F4FCE0101960E94F343BE01A3
:1020F0006F5F7F4F89E29BE00E940751CE010196FE
:102100000E94CA5261EA72E089E29BE00E94EC50B0
:10211000BE01655E7F4FCE0101960E940744BE015D
:102120006F5F7F4F89E29BE00E940751CE010196CD
:102130000E94CA526DEA72E089E29BE00E94EC5074
:10214000BE01655E7F4FCE0101960E94FC43BE0139
:102150006F5F7F4F89E29BE00E940751CE0101969D
:102160000E94CA52BE01655E7F4FCE0101960E9459
:1021700016446CED72E0CE0101960E940154F82ED7
:10218000CE0101960E94CA52FF2009F447C068EBB5
:1021900072E089E29BE00E941751CE014B960E94AB
:1021A00012447C01BE01655E7F4FCE0101960E9404
:1021B000FC43BE01655E7F4FCE01C5960E94074479
:1021C000BE01655E7F4FCE01CB960E94F3438E0128
:1021D0000F5F1F4F9E012B5C3F4FAE01455C5F4F71
:1021E00061E070E08CE698E00E94223DCE01CB9643
:1021F0000E94CA52CE01C5960E94CA52C8010E94CE
:10220000CA526AEE72E0C8010E943153B801CE0191
:102210004B960E942144C8010E94CA5280916C08CA
:1022200090916D08019771F48BE698E00E947339E4
:10223000AB01BC018CE698E00E94703B8BE698E015
:102240000E949739CE014B96E7DEC05CDF4F0FB698
:10225000F894DEBF0FBECDBFDF91CF911F910F91DC
:10226000FF90EF9008950F9300E020E040E060E0E1
:102270008EE698E00E944B508CE698E00E94503A1F
:102280008BE698E00F910C9450398091A30890E070
:102290002091A408821B910908952091A40880919F
:1022A000A308281750F4E22FF0E0EB55F74F808198
:1022B00090E02F5F2093A40808958FEF9FEF08957B
:1022C000E091A4088091A308E81730F4F0E0EB5502
:1022D000F74F808190E008958FEF9FEF0895089564
:1022E000CF92DF92EF92FF920F931F93CF93DF93E2
:1022F0007C01CB018A0120918008222389F0EB0127
:102300006B01C40ED51ECC15DD0561F06991D701B6
:10231000ED91FC910190F081E02DC7011995F3CF6B
:10232000642F4BD0C801DF91CF911F910F91FF9087
:10233000EF90DF90CF900895CF93DF931F92CDB7AA
:10234000DEB76983209180082223D1F02091810893
:10235000203240F021E030E0FC013383228380E032
:1023600090E014C080918208E82FF0E0ED57F74F1D
:10237000998190838F5F809382088093810804C045
:1023800061E0CE01019619D081E090E00F90DF91DD
:10239000CF910895FC011382128248EE53E060E071
:1023A00070E0448355836683778384EF92E0918362
:1023B0008083089584E798E0EDCF613298F420910E
:1023C0003209243089F46093E708FC0189EE98E033
:1023D000DC012A2F281B261718F421912D93F9CF01
:1023E00080E0089581E0089582E0089585ED80936E
:1023F000BC008091BC0084FDFCCF1092320908958E
:1024000085EC8093BC001092320908951F920F92C0
:102410000FB60F9211240BB60F922F933F934F9349
:102420005F936F937F938F939F93AF93BF93EF933C
:10243000FF938091B900887F803609F49DC070F5C4
:10244000883209F45CC090F4803109F455C038F446
:10245000882309F4F3C0883009F44EC0F2C08831F3
:1024600009F44DC0803209F45EC0EBC0803409F439
:1024700069C050F4803309F456C0883309F0E1C0D4
:102480008093C508BDDFDDC0803509F44FC08835B5
:1024900009F45DC0883409F0D4C0D2C0883909F489
:1024A000C3C0A8F4883709F467C038F4883609F443
:1024B00063C0803709F460C0C4C0883809F4B4C070
:1024C000803909F45FC0803809F0BBC05BC0803B35
:1024D00009F482C038F4803A09F466C0883A09F4F5
:1024E0007BC0AFC0803C09F4A3C0883C09F4A0C005
:1024F000883B09F486C0A5C08091310910C0909135
:102500000A0980910909981770F5E0910A0981E09C
:102510008E0F80930A09F0E0E55FF64F808180938B
:10252000BB0085EC82C08093C5088AC0E0910A098F
:1025300081E08E0F80930A098091BB00F0E0E55F97
:10254000F64F808390910A09809109096AC0E09151
:102550000A0981E08E0F80930A098091BB00F0E0A8
:10256000E55FF64F808380913009811169C081E079
:1025700080932F0984EA5DC083E080933209109232
:10258000C608CFCF8091C608803208F04DC0E091D8
:10259000C60881E08E0F8093C6088091BB00F0E0F2
:1025A000E953F74F8083BDCF2BDF8091C60880327F
:1025B00030F4E091C608F0E0E953F74F10826091E3
:1025C000C60870E0E0912B09F0912C0987EC98E0A7
:1025D00019951092C60835C084E080933209109294
:1025E000E8081092E708E0912D09F0912E0919955D
:1025F0008091E708811105C081E08093E70810927F
:10260000E908E091E80881E08E0F8093E808F0E0A7
:10261000E751F74F80818093BB009091E80880914B
:10262000E708981708F47DCF85E88093BC0009C0BF
:1026300085EC8093BC001092320903C01092C5084B
:10264000D5DEFF91EF91BF91AF919F918F917F91D7
:102650006F915F914F913F912F910F900BBE0F9013
:102660000FBE0F901F901895CF93CFB7F89480911D
:102670003609811127C0EFE1FFE18491E9EDFEE128
:102680009491E82FF0E0EE0FFF1FEC59F04EA5916A
:10269000B4918C91892321F461E085E30E949B4DE4
:1026A00061E085E30E94624D8CB580618CBD8CB584
:1026B00080648CBD61E084E30E94624D61E083E34D
:1026C0000E94624D809136098F5F80933609CFBF9B
:1026D000CF9108952FB7F89490E08830910598F441
:1026E000FC01EE58FF4F0C94B05680E112C081E01F
:1026F00010C082E00EC084E00CC088E00AC080E414
:1027000008C080E806C082E08093350980E001C0FF
:1027100080E290913409982B909334098091350987
:10272000811103C081E0809335092FBF0895DC013A
:10273000ED91FC910488F589E02D199591E08111C6
:1027400001C090E0892F08950895FA01603830E8BB
:1027500073078105910521F430913909316009C071
:10276000613030E873078105910531F43091390902
:1027700032603093390921C0623030E87307810537
:10278000910531F420913909297F2093390927C017
:10279000603130E873078105910521F48091390992
:1027A000846008C0693971058105910531F4809113
:1027B00039098860809339090895603430E87307D7
:1027C0008105910561F480916E098F5F80936E0998
:1027D000422F50E0BF018AE599E00C94C958611579
:1027E00078488105910541F4E081E03228F4F0E079
:1027F000E65CF64F81E0808308954F925F926F927E
:102800007F928F929F92AF92BF92CF92DF92EF9280
:10281000FF920F931F93CF93DF93CDB7DEB76097EF
:102820000FB6F894DEBF0FBECDBF5C016B01942ED6
:10283000852EFC01E35BFF4F1182108231971082DD
:1028400016E0E12EF12C00E010E021E030E040E065
:1028500050E062E070E080E090E00E94E9242B010B
:102860003C016F3F2FEF720782079207B9F1FB011E
:10287000E65CF64F1082AE014F5F5F4F80E1FA01D8
:1028800011928A95E9F782E090E09A8389838B829E
:102890009C82F60182819381248135813D832E8340
:1028A0009F83888700E110E020E030E0C301B2019F
:1028B0000E94EE256F3F7F4F8F4F9F4F29F4C3013A
:1028C000B2010E943F250AC0F501E15BFF4F408243
:1028D00051826282738281E090E002C080E090E0E9
:1028E00060960FB6F894DEBF0FBECDBFDF91CF91DB
:1028F0001F910F91FF90EF90DF90CF90BF90AF901E
:102900009F908F907F906F905F904F900895CF929F
:10291000DF92EF92FF920F931F93CF93DF93CDB788
:10292000DEB72A970FB6F894DEBF0FBECDBF8C017D
:10293000CB017A011F82188619861A86DB010D9059
:102940000020E9F7BD0161507109681B790BAE01E8
:10295000495F5F4F0E9486254F81588569857A853A
:10296000411551056105710599F0892B89F0D80150
:10297000ED91FC91C484D584CE0101960E945750FC
:10298000A701BE016F5F7F4FC801F601199502C014
:1029900080E090E02A960FB6F894DEBF0FBECDBF60
:1029A000DF91CF911F910F91FF90EF90DF90CF902B
:1029B0000895CF92DF92EF92FF920F931F93CF93E0
:1029C000DF931F92CDB7DEB76983815B9F4FFC0118
:1029D0006081718182819381C12CD12C760101E0CB
:1029E00010E020E030E0AE014F5F5F4F0E949B2976
:1029F00097FF02C080E090E00F90DF91CF911F9190
:102A00000F91FF90EF90DF90CF900895EF92FF929B
:102A10000F931F93CF93DF93CDB7DEB72C970FB6ED
:102A2000F894DEBF0FBECDBFFC01E15BFF4F4081DC
:102A300051816281738177FD65C032972081318138
:102A4000121613065CF43197808190E08217930789
:102A50002CF4A901481B590BCA0156C019861A86C5
:102A60001B861C86DB01CA0125E0B595A7959795C5
:102A700087952A95D1F7FC01EE0FFF1FEE0FFF1F80
:102A800081E090E08C0F9D1FE80FF91F8A019B01E8
:102A90000F7111272227332781E090E0A0E0B0E0FA
:102AA00004C0880F991FAA1FBB1F0A95D2F7808701
:102AB0009187A287B38719821A821B821C8288E8B9
:102AC00093E1A0E0B0E08D839E83AF83B887CB0114
:102AD000BA016F5F7F4F8F4F9F4F9E012F5F3F4F18
:102AE000790100E010E020E030E0AE01475F5F4F89
:102AF0000E943D2631E020E0019709F030E0832F6D
:102B0000922F02C080E090E02C960FB6F894DEBFC2
:102B10000FBECDBFDF91CF911F910F91FF90EF902E
:102B20000895CF93DF93EC01C15BDF4F488159815A
:102B30006A817B8177FD23C0DC01ED91FC910480EB
:102B4000F581E02D1995892B51F4688179818A816D
:102B50009B81FB01E65CF64F2081211102C081E0E0
:102B60000FC00E943F25E881F981E65CF64F108294
:102B70008FEF9FEFDC0188839983AA83BB8380E07A
:102B8000DF91CF910895AF92BF92CF92DF92EF92F3
:102B9000FF920F931F93CF93DF93CDB7DEB7C0544F
:102BA000D1090FB6F894DEBF0FBECDBF8C01CB01AB
:102BB000BA0140E4E4E2F2E09E012F5F3F4FD90109
:102BC00001900D924A95E1F7F8014081442391F17B
:102BD0003F932F931F921F9221E02F932CE22F936C
:102BE0001F921F921F921F922FEF2F932F932F93BD
:102BF00038E83F931F921F923FE13F932F9345E0A8
:102C0000A42EB12CC12CD12C14E6E12EF12C00E025
:102C100010E024E130E040E050E00E94312C41E03F
:102C20000FB6F894DEBF0FBECDBF672B682B692BA4
:102C300009F040E0842FC05CDF4F0FB6F894DEBF90
:102C40000FBECDBFDF91CF911F910F91FF90EF90FD
:102C5000DF90CF90BF90AF900895EF92FF920F93C7
:102C6000FC011082609373094093720920937109EB
:102C70008FEF8093700900936F0910923909F092D9
:102C80003809E09237090F91FF90EF9008955F9215
:102C90006F927F928F929F92AF92BF92CF92DF926C
:102CA000EF92FF920F931F93CF93DF934C01562E19
:102CB000642EE901FC01708071108EC020917209B0
:102CC000223049F0233049F08EEE820F843038F400
:102CD00097E1921B05C090E003C091E001C09FEF17
:102CE00090937009DED476E5A72E7DE1B72EE5E35B
:102CF000CE2EEEE1DE2EF9E6EF2EFDE1FF2E0FE502
:102D00001DE123E43EE14BE35EE16BE47EE185EA15
:102D100093E10E941C2A852D90E00E94502A6110A8
:102D200012C0E12CF12C870120E030E0A90160E025
:102D300070E0CB010E94B12B6FEF70E080E090E07B
:102D40000E94FE2B0CC0E12CF12C8701E39420E0C3
:102D500030E0A90160E070E0CB010E94B12B64E09B
:102D600072E880E090E00E94BE2C672B682B692BF4
:102D7000A9F581E0F4018083662071F1812C912C0A
:102D80008091390981FD10C08ED7FFEF8F1A9F0AFD
:102D90008AEE881683E0980609F16AE070E080E028
:102DA00090E00E94754CECCF68EE73E080E090E01C
:102DB0000E94754C8091390982FF0EC0FE0101907E
:102DC0000020E9F7AF01415051094C1B5D0BBE01DA
:102DD00081E090E00E94C12977247394872DDF91D0
:102DE000CF911F910F91FF90EF90DF90CF90BF9008
:102DF000AF909F908F907F906F905F9008958F928B
:102E00009F92AF92BF92CF92DF92EF92FF920F9379
:102E10001F93CF93DF93EB01FC018081882379F12D
:102E2000E12CF12C870120E030E0A90160E070E0A6
:102E3000CB010E94B12B672B682B692B01F564EF46
:102E400071E080E090E00E94754CFE01019000204E
:102E5000E9F73197EC1BFD0B8F0120E030E0812C6E
:102E6000912C5401C12CD12CAE0160E070E0CB015B
:102E70000E94E92A21E0672B682B692B09F020E0EA
:102E8000822FDF91CF911F910F91FF90EF90DF90F4
:102E9000CF90BF90AF909F908F9008952F923F92C8
:102EA0004F925F926F927F928F929F92AF92BF925A
:102EB000CF92DF92EF92FF920F931F93CF93DF9306
:102EC0001B01EA0128013901FC018081882309F4F2
:102ED0004CC0043011052105310508F046C0FB0146
:102EE00001900020E9F73197E61BF70BB197E8F561
:102EF000FA0101900020E9F73197E41BF50BB19737
:102F0000A0F5E12CF12C870120E030E0A90160E080
:102F100070E0CB010E94B12B672B682B692B29F540
:102F200064EF71E080E090E00E94754CDE010D904E
:102F30000020E9F71197AC1BBD0BF10101900020B7
:102F4000E9F73197E219F3094D01A12CB12C8F015A
:102F500020E030E06E01A101C301B2010E94E92A24
:102F600021E0672B682B692B09F020E0822FDF918D
:102F7000CF911F910F91FF90EF90DF90CF90BF9076
:102F8000AF909F908F907F906F905F904F903F9009
:102F90002F9008952F923F924F925F928F929F921F
:102FA000AF92BF92CF92DF92EF92FF920F931F9357
:102FB000CF93DF93EC017B016A01322E202E5880E3
:102FC000552009F449C0402E822E912CA12CB12C01
:102FD000222049F0411006C05090390951FA552479
:102FE00050F83AC04A945FD640EA5FE060E070E093
:102FF000CE01C9DD64E971E180E090E00E94754C8A
:1030000040E050E0BA01CE01BEDD332021F0F601F0
:103010008081811108C0B701CE01F1DE8823C1F0A3
:1030200008EE13E011C095018401A601B701CE019D
:1030300035DFF4CF38D66AE070E080E090E00E949F
:10304000754C0150110921F08091390981FFF2CFAF
:103050008091390981FFBCCF852DDF91CF911F91E0
:103060000F91FF90EF90DF90CF90BF90AF909F9027
:103070008F905F904F903F902F900895DB01FC015F
:1030800080818823A1F08091390981FF10C080914F
:10309000390982FF0CC0FB0101900020E9F7BF0154
:1030A000615071096A1B7B0BCD010C94862580E071
:1030B00090E00895FC011382128248EE53E060E034
:1030C00070E0448355836683778384E093E0918343
:1030D0008083E15BFF4F4FEF5FEFBA014083518385
:1030E0006283738308950F931F93FC0113821282EE
:1030F00008EE13E020E030E0048315832683378355
:1031000084E093E091838083DF01A15BBF4F4D9307
:103110005D936D937C93139712971D921C92E45BC1
:10312000FF4F10821F910F9108954F925F926F92FF
:103130007F928F929F92AF92BF92CF92DF92EF9247
:10314000FF920F931F93CF93DF93CDB7DEB76097B6
:103150000FB6F894DEBF0FBECDBF5C01922E832E5A
:10316000742E652E502E412E16E0E12EF12C00E03B
:1031700010E021E030E040E050E062E070E080E00C
:1031800090E00E94E9246B017C016F3F2FEF7207F2
:103190008207920739F1FB01E65CF64F1082AE011F
:1031A0004F5F5F4F80E1FA0111928A95E9F782E063
:1031B00090E09A8389834B825C826D827E828F82CB
:1031C000988600E110E020E030E0C701B6010E94DF
:1031D000EE256F3F7F4F8F4F9F4F39F4C701B601E8
:1031E0000E943F25C50166DF04C0B701A601C501E5
:1031F0007ADFC50160960FB6F894DEBF0FBECDBF73
:10320000DF91CF911F910F91FF90EF90DF90CF90C2
:10321000BF90AF909F908F907F906F905F904F90F6
:1032200008958F929F92AF92BF92CF92DF92EF92CA
:10323000FF920F931F93FB014A01A12CB12C815BDC
:103240009F4FDC016D917D918D919C916801790179
:1032500095018401AF010E949B291F910F91FF905E
:10326000EF90DF90CF90BF90AF909F908F90089598
:103270000F931F9300E010E09801D3DF1F910F918F
:1032800008954F925F926F927F928F929F92AF922A
:10329000BF92CF92DF92EF92FF920F931F93CF9343
:1032A000DF93CDB7DEB7A0970FB6F894DEBF0FBEA1
:1032B000CDBF3C014B01A12CB12C00E02C018FE4CF
:1032C000480E511CF4018491882319F1E1E0F0E0EB
:1032D000EC0FFD1FE00FF11D80830F5F003220F423
:1032E000EFEF8E1A9E0AEECFF2016081718182812A
:1032F0009381C12CD12C760100E210E020E030E077
:10330000AE014F5F5F4F0E949B29A80EB91E00E0DF
:10331000E7CF0023A1F010E020E030E0F301E15B13
:10332000FF4F6081718182819381C12CD12C760104
:10333000AE014F5F5F4F0E949B29A80EB91EC501C9
:10334000A0960FB6F894DEBF0FBECDBFDF91CF9130
:103350001F910F91FF90EF90DF90CF90BF90AF90B3
:103360009F908F907F906F905F904F9008950F93F4
:103370001F93FB0101900020E9F7AF014150510973
:10338000461B570B29F000E010E098014ADF02C00D
:1033900080E090E01F910F9108958F929F92AF92DD
:1033A000BF92CF92DF92EF92FF920F931F93FB0198
:1033B0004A01A12CB12C815B9F4FDC016D917D9165
:1033C0008D919C916801790195018401AF010E9462
:1033D00075281F910F91FF90EF90DF90CF90BF90D5
:1033E000AF909F908F9008950F931F9300E010E08F
:1033F0009801D3DF1F910F9108950F931F93CF93DF
:10340000DF93EC01C15BDF4F688179818A819B8109
:103410000E943F250FEF1FEF9801088319832A832D
:103420003B83DF91CF911F910F910895E6CF4F928B
:103430005F926F927F928F929F92AF92BF92CF9244
:10344000DF92EF92FF920F931F93CF93DF93EC01E4
:103450004C012DE4820E911C5C018CE4A80EB11C81
:103460002E01ECE04E0E511C3E01FFE46F0E711C6C
:10347000F4012081318112161306ECF014D4F3010B
:103480006081718182819381C12CD12C760100E40D
:1034900010E020E030E0A2010E947528F401918341
:1034A0008083C99629F4CE01A8DF80E090E010C0A7
:1034B000F5011082DDCFF5014081842F90E02817BF
:1034C0003907E1F2C80FD91F8C854F5F408390E028
:1034D000DF91CF911F910F91FF90EF90DF90CF90F0
:1034E000BF90AF909F908F907F906F905F904F9024
:1034F00008954F925F926F927F928F929F92AF92B8
:10350000BF92CF92DF92EF92FF920F931F93CF93D0
:10351000DF93EC014C012DE4820E911C5C018CE4E4
:10352000A80EB11C2E01ECE04E0E511C3E01FFE432
:103530006F0E711CF4012081318112161306ECF01C
:10354000B2D3F3016081718182819381C12CD12C2E
:10355000760100E410E020E030E0A2010E9475282E
:10356000F40191838083C99629F4CE0146DF80E07F
:1035700090E00DC0F5011082DDCFF501808190E073
:1035800028173907E9F2C80FD91F8C8590E0DF9121
:10359000CF911F910F91FF90EF90DF90CF90BF9050
:1035A000AF909F908F907F906F905F904F90089515
:1035B0000F9300E020E040E060E084E799E00E94A3
:1035C0004B500F9108950F9300E020E040E060E041
:1035D0008AE799E00E944B500F9108952091350998
:1035E000222399F03FB7F89420913509213059F4FE
:1035F0002DB3209333094DB3209134092095242312
:103600002DBB3FBF02C0309333098CBD9DBD0895D3
:1036100080913509882361F09FB7F894209135098E
:1036200080913309213019F48DBB9FBF08958FBF5E
:103630000895CF93DF9310928E0A10928F0A109202
:10364000900A1092910AE5E0FAE023E8DF01C22F28
:103650001D92CA95E9F7A2E8B9E0ED0119922A9501
:10366000E9F79093890A8093880A10928B0A109246
:103670008A0A1092930A1092920AF093950AE093A4
:10368000940A10928D0A10928C0A8EED8093870A0C
:103690008093040AE091AC0AF091AD0ADF91CF91DA
:1036A000199461E0809171090E94624D60E08091FF
:1036B00071090E949B4D64EF71E080E090E00E94F0
:1036C000754C61E0809173090E94624D62E08091C7
:1036D00072090E94624D8CB58093960A8DB58170F7
:1036E0008093970A0E9434138CB5837F84608CBDCD
:1036F0008CB58F7D8CBD20916F099CB5822F837016
:103700009C7F892B8CBD8DB522FB222720F98E7FD3
:10371000822B8DBD8CB58093990A8DB58170809375
:10372000980A809170090E946A1361E08091730980
:103730000E949B4D8091960A8CBD8091970A8823A8
:1037400019F08DB5816002C08DB58E7F8DBD80E092
:1037500090E00895680F791F8617970751F0FC01D4
:103760002191CF012EBD00000DB407FEFDCF2EB577
:10377000F3CF08950F931F93CF93DF93EC018B0149
:103780008CB58093960A8DB581708093970A80914D
:10379000990A8CBD8091980A882319F08DB58160B3
:1037A00002C08DB58E7F8DBD84E591E017DF60E0AE
:1037B000809173090E949B4D61E070E080E090E091
:1037C0000E94754C64E070E0CE01C4DF61E070E0FF
:1037D00080E090E00E94754CB80164507109CE0100
:1037E0000496B8DF82E090E0A0E0B0E080938E0A1B
:1037F00090938F0AA093900AB093910A61E0809110
:1038000073090E949B4D04DF8091960A8CBD8091C4
:10381000970A882319F08DB5816002C08DB58E7F1F
:103820008DBD60E070E0CB01DF91CF911F910F91D2
:1038300008952CB5237F24602CBD680F791F23E0E9
:103840008617970751F02EBD00000DB407FEFDCF7F
:103850003EB5FC013193CF01F3CF08956AE070E0EB
:103860008091940A9091950AE4CF0F931F93CF9380
:10387000DF93C091940AD091950A8D81823019F01E
:103880008430D1F03BC063E070E0CE01059626D2D3
:103890009C01BC0180E090E020FD05C06F5F7F4F80
:1038A0008F4F9F4F05C0611571058105910531F15D
:1038B000CE010A96BEDF22C0688570E080E090E00D
:1038C0008B019C01015011092109310900FD02C041
:1038D000C901B801611571058105910519F0CE0185
:1038E0000A96A7DF88E090E0A0E0B0E080938E0A1F
:1038F00090938F0AA093900AB093910A60E070E0D1
:10390000CB01DF91CF911F910F9108951092800903
:10391000809170090C947D4A81E08093800942E097
:1039200050E06FEC7CE1809170090C940C4AEEDF62
:1039300061E0809173090E949B4D6ADE8091960A36
:103940008CBD8091970A882319F08DB5816002C0E3
:103950008DB58E7F8DBD8091940A9091950AFC0162
:10396000EE57FF4F20812E3D09F0FFCF42E050E09F
:1039700060E070E040938E0A50938F0A6093900A43
:103980007093910AE091880AF091890A059619943A
:103990006CDF672B682B692B09F4C9CF089581E090
:1039A0008093810980918E0A90918F0AA091900A4C
:1039B000B091910A0097A105B10569F481E090E00A
:1039C000A0E0B0E080938E0A90938F0AA093900AB3
:1039D000B093910A68C082309105A105B105B9F58F
:1039E00086E090E0A0E0B0E080938E0A90938F0A8A
:1039F000A093900AB093910A8CB58093960A8DB5E6
:103A000081708093970A8091990A8CBD8091980A61
:103A1000882319F08DB5816002C08DB58E7F8DBD74
:103A200084E591E0DBDD60E0809173090E949B4DAD
:103A300015DF88E090E0A0E0B0E080938E0A9093DC
:103A40008F0AA093900AB093910AA2DF2CC003972B
:103A5000A105B10541F560918A0A70918B0A8091A8
:103A6000920A9091930A76DE82E090E0A0E0B0E0C6
:103A700080938E0A90938F0AA093900AB093910A34
:103A800061E0809173090E949B4DC2DD8091960A8E
:103A90008CBD8091970A882319F08DB5816002C092
:103AA0008DB58E7F8DBD109281090895882311F008
:103AB00061E001C060E0809171090C949B4D8091A0
:103AC00072090E94D04DBC01882777FD8095982F00
:103AD000089581E08093800942E050E06FEC7CE142
:103AE000809170090C940C4A0F931F93CF93DF932E
:103AF000EC01CB018170992721E0822721E0288306
:103B00008C01060F171F19838170860F8A831B8211
:103B10001C828091040A8E3D09F0FFCF40918E0AED
:103B200050918F0A6091900A7091910A4115510548
:103B30006105710509F4FFCF0B5F1F4F413051053F
:103B40006105710521F4B801CE0114DE79C0E09160
:103B5000AE0AF091AF0A199580918E0A90918F0A62
:103B6000A091900AB091910A0297A105B10509F0C0
:103B7000FFCF43E050E060E070E040938E0A509346
:103B80008F0A6093900A7093910AD093930AC0931E
:103B9000920A10938B0A00938A0A8CB58093960A36
:103BA0008DB581708093970A8091990A8CBD809120
:103BB000980A882319F08DB5816002C08DB58E7F7B
:103BC0008DBD84E591E00ADD60E0809173090E947B
:103BD0009B4DE091AC0AF091AD0A1995E091AA0ACB
:103BE000F091AB0A1995672B682B692B49F5609109
:103BF0008A0A70918B0A8091920A9091930AAADDA9
:103C000082E090E0A0E0B0E080938E0A90938F0A6B
:103C1000A093900AB093910A61E0809173090E9489
:103C20009B4DF6DC8091960A8CBD8091970A882383
:103C300019F08DB5816002C08DB58E7F8DBD49DFD5
:103C400080918E0A90918F0AA091900AB091910A6A
:103C50000297A105B10509F0FFCF60E070E0CB014C
:103C6000DF91CF911F910F9108951092800980915B
:103C700070090C947D4AFC01108211821282138219
:103C800080E090E00895FC0110821182128213827C
:103C900080E090E00895FC0110821182128213826C
:103CA00080E090E00895809172090E94D04D892BA8
:103CB00041F480918109811104C0809180098111B2
:103CC0006ECE0895FC014083518362837383049612
:103CD0000895FC016083718302960895680F791F2F
:103CE000FB01818190E0982F88272081820F911D10
:103CF00008950F931F93FB01E80FF91F6381862F2F
:103D000090E0A0E0B0E0982F88277727662702810F
:103D100010E020E030E0980111270027600F711FAC
:103D2000821F931F2081620F711D811D911D0181D2
:103D300010E020E030E0322F212F102F0027600FFD
:103D4000711F821F931F1F910F910895CF93DF93CF
:103D500000D01F92CDB7DEB719821A821B821C8257
:103D6000FC018581823039F1833009F445C081300E
:103D700009F063C08091A40A9091A50A892B89F06B
:103D8000E091A40AF091A50ACE0101961995009739
:103D900041F06091A00A7091A10A29813A81AC0199
:103DA00008C06091A00A7091A10A20E030E040E0D4
:103DB00050E081E041C08091A20A9091A30A892B32
:103DC00089F0E091A20AF091A30ACE01019619951B
:103DD000009741F06091A00A7091A10A29813A816F
:103DE000AC0108C06091A00A7091A10A20E030E007
:103DF00040E050E082E020C08091A60A9091A70A9E
:103E0000892B89F0E091A60AF091A70ACE010196CC
:103E10001995009741F06091A00A7091A10A29813B
:103E20003A81AC0108C06091A00A7091A10A20E01B
:103E300030E040E050E083E029D50F900F900F90E4
:103E40000F90DF91CF9108954F925F926F927F9282
:103E50008F929F92AF92BF92CF92DF92EF92FF929A
:103E60006830710581059105A8F5223031054105BD
:103E7000510580F5E1E0F0E0062E02C0EE0FFF1FD5
:103E80000A94E2F7E095F0952F01662457FC6094C0
:103E9000762C8090060290900702A0900802B090C5
:103EA0000902482059206A207B2069017A0104C058
:103EB000CC0CDD1CEE1CFF1C6A95D2F74C285D284B
:103EC0006E287F28409206025092070260920802F4
:103ED00070920902FF90EF90DF90CF90BF90AF906B
:103EE0009F908F907F906F905F904F9008958F92EA
:103EF0009F92AF92BF92CF92DF92EF92FF920F9379
:103F00001F93CF93DF93CDB7DEB765970FB6F894C5
:103F1000DEBF0FBECDBF5C0161E070E0DFDE6C0193
:103F2000E12CF12C96FF68C0811521E4920709F07D
:103F300063C065E070E0C501D1DE4C0187E0A80EEA
:103F4000B11C00E010E0C12CD12C76010815190538
:103F500071F062E070E0C501C1DEC80ED91EE11C3F
:103F6000F11CE4E0AE0EB11C0F5F1F4FEFCF80914C
:103F7000B60A9091B70A8C0D9D1D9093B70A809355
:103F8000B60A8091C20A9091C30AA091C40AB09166
:103F9000C50A8C0D9D1DAE1DBF1D8093C20A909356
:103FA000C30AA093C40AB093C50A4091C20A5091B3
:103FB000C30A6091C40A7091C50A8091BE0A9091AB
:103FC000BF0AA091C00AB091C10A481759076A07F1
:103FD0007B0709F055C08091C60A882309F450C0B8
:103FE000E091A80AF091A90A20E040E050E069E9D8
:103FF00070E080E090E043C097FFD7C08034F0E8E5
:104000009F0709F487C0B0F48430E0E89E0741F1CF
:1040100030F481509048029708F01BC121C08031D4
:10402000904809F016C1D5011596CE010596FE01FE
:10403000319628C08115E4E89E0791F040F480385D
:1040400020E8920769F08115924851F002C181156C
:10405000F8E89F0709F499C08115994809F0F9C05B
:104060008091A80A9091A90A892B51F0E091A80AA1
:10407000F091A90A20E040E050E0C701B60119958F
:1040800061E0E8C02D912193E817F907D9F7F50110
:1040900081858D8382858E8383858F8384858887C0
:1040A000D5011D96FE01399681E090E08C0F9D1F91
:1040B0000C962D912193E817F907D9F7D501519660
:1040C000FE013D9681E090E08C0F9D1F40962D9162
:1040D0002193E817F907D9F7D5015596FE01719696
:1040E00081E090E08C0F9D1F44962D912193E8175D
:1040F000F907D9F7F50184818D8B8091A80A9091F9
:10410000A90A892B09F4BCCFE091A80AF091A90A69
:1041100025E137C0F5E0AF0EB11C60E070E0C501ED
:10412000E8DD69837A838B839C8364E070E0C5015A
:10413000E0DD6D837E838F83988768E070E0C50142
:10414000D8DD69877A878B879C876CE070E0C50132
:10415000D0DD6D877E878F87988B60E170E0C50129
:10416000C8DD698B7A8B8B8B9C8B8091A80A909190
:10417000A90A892B09F484CFE091A80AF091A90A31
:1041800024E1AE014F5F5F4F78CF8091A80A9091F4
:10419000A90A892B09F474CFE091A80AF091A90A21
:1041A000A5014B5F5F4F21E068CF23E0C21620E1FD
:1041B000D206E104F10421F08E509041029790F56F
:1041C00085010B5F1F4F64E070E0C80192DD673C22
:1041D0007F4F8F4F9F4F09F03CC0F501448150E065
:1041E00060E070E04093B20A5093B30A6093B40A5F
:1041F0007093B50A60E070E0C8017BDD6B017C0163
:1042000064E070E0C80175DD673C7F4F8F4F9F4FC2
:1042100009F036CF21E030E040E050E0C701B601C0
:1042200013DE2ECF80919A0A90919B0AA0E0B0E015
:10423000C816D906EA06FB0661F061E070E080E08E
:1042400090E0C11420E1D206E104F10431F460E011
:1042500004C060E070E080E090E065960FB6F894EE
:10426000DEBF0FBECDBFDF91CF911F910F91FF90A9
:10427000EF90DF90CF90BF90AF909F908F90089578
:1042800080919C0A90919D0A892B21F460E070E056
:10429000CB01089580919E0A90919F0AFC01208194
:1042A0002430A1F724DE613071058105910571F795
:1042B00010929D0A10929C0A2FDB61E070E080E072
:1042C00090E008954F925F926F927F928F929F92AB
:1042D000AF92BF92CF92DF92EF92FF920F931F9314
:1042E000CF93DF93EC014B015A0100E010E080E135
:1042F000482E96E2592ED7DC80919C0A90919D0A17
:10430000892BC9F3E0909E0AF0909F0AF701808103
:10431000843009F0DBC161E070E0C701DFDC8C01B3
:10432000C701E5DD672B682B692B09F0C3C1670165
:10433000F5E0CF0ED11C083080E1180708F061C00D
:104340000630E0E11E0708F0D8C00230F2E01F0797
:1043500009F4D3C0D0F40D30110568F4083011050C
:1043600008F0CBC00130110508F4A4C107301105D5
:1043700008F030C1C2C00D30110509F4BAC00130D7
:10438000E2E01E0709F4B5C095C10330F0E11F0754
:10439000D8F4013080E1180708F0AFC00530E2E042
:1043A0001E0708F4A6C00730F2E01F0709F082C11B
:1043B000F7018481899360E070E0C6019ADCAB016B
:1043C000BC01CE017FDC76C1043080E1180709F41E
:1043D000B7C008F4E1C060E070E0C6018ADC688321
:1043E00079838A839B8364E070E0C60182DC6C83FE
:1043F0007D838E839F832896F7013D96DE01842D71
:1044000012C10131F0E11F0709F473C008F03FC089
:104410000B30E0E11E0709F470C060F5093080E15F
:10442000180709F46AC008F0C9C060E070E0C6016E
:1044300060DC688379838A839B8364E070E0C601D3
:1044400058DC6C837D838E839F8368E070E0C601B7
:1044500050DC688779878A879B873E01FCE06F0E76
:10446000711C6CE070E0C60144DC6C877D878E8730
:104470009F871FC10F30F0E11F0709F48DC008F0BE
:1044800045C00D30E0E11E0709F45AC013C10530E4
:10449000F0E21F0709F4CCC050F40231E0E11E073E
:1044A00009F447C00130F0E21F0718F503C10A30D4
:1044B00080E2180748F40830E0E21E07D0F4063026
:1044C000F0E21F07B1F0F6C00B3080E4180709F0E6
:1044D000F1C0F701858190E09093B70A8093B60A06
:1044E00061E070E0C601FADB9093B90A8093B80AE4
:1044F000E1C0F70184818883DDC060E070E0C6011F
:10450000F8DB688379838A839B83D4C060E070E0A2
:10451000C601EFDBFE0161937193819391933F019B
:1045200064E070E0C601E5DB6C837D838E839F834E
:10453000C0C060E070E0C601D1DB99838883BAC057
:1045400060E070E0C601D5DB688379838A839B8352
:1045500064E070E0C601CDDB6C837D838E839F8336
:104560003E01F8E06F0E711C68E070E0C601C1DB2F
:10457000688779878A879B872C853D854E855F85EF
:10458000273C3F4F4F4F5F4F09F093C021E030E091
:1045900040E050E059DC8DC060E070E0C601A9DB6E
:1045A000688379838A839B8364E070E0C601A1DB22
:1045B0006C837D838E839F8328967CC0F7018481E2
:1045C0008C8385819681A781B08588839983AA830E
:1045D000BB8370C060E070E0C6018BDB68837983C9
:1045E0008A839B8364E070E0C60183DB6C837D83F8
:1045F0008E839F8368E070E0C60170DBA0E0B0E0CE
:1046000088879987AA87BB876AE070E0C60166DB66
:10461000A0E0B0E08A879B87AC87BD872C96F70126
:104620007196DE01852D01900D928A95E1F742C0C9
:10463000F601C7010996DE0121912D93E817F907CC
:10464000D9F7DF01FE013496CE0108962D91219312
:10465000E817F907D9F7D7011D96CE010C962D91D1
:104660002193E817F907D9F7D7015196CE01409663
:104670002D912193E817F907D9F7D7015596CE0167
:1046800044962D912193E817F907D9F7D701599648
:10469000CE014A962D912193E817F907D9F7D70152
:1046A0005F96CE01CA962D912193E817F907D9F7A5
:1046B00001C0E30180919A0A90919B0A081719079B
:1046C00089F510929B0A10929A0A2CC0F701728009
:1046D00063E070E0C70102DB6C018114910491F08A
:1046E00064E070E0C701059604DBF5016083718327
:1046F00082839383462F50E0B7016B5E7F4FC401E6
:104700000E94C958672D70E0A601461B570B6B5FCE
:104710007F4F6E0D7F1DCE010E94C9581092BD0AB9
:104720001092BC0A10929D0A10929C0AF5D8F701CB
:104730008081843031F40115F0E11F0711F4C701C5
:1047400005DB80919A0A90919B0A892B09F0D3CDC1
:104750008091BC0A9091BD0A892B09F0CCCD80E0F4
:1047600090E0DF91CF911F910F91FF90EF90DF903C
:10477000CF90BF90AF909F908F907F906F905F9001
:104780004F900895683071058105910518F541E055
:1047900050E002C0440F551F6A95E2F7662757FDA7
:1047A0006095762F8091060290910702A0910802F1
:1047B000B0910902482359236A237B2331E020E08A
:1047C00080E090E0452B462B472B09F430E0632F27
:1047D000722F089561E070E080E090E008959C0100
:1047E000CB0130939B0A20939A0A40E050E060E0AE
:1047F00070E068CD21E030E03093BD0A2093BC0A20
:1048000061CD0F931F93CF93DF931F92CDB7DEB788
:104810008B0121E0FB012583BC01C8010696498379
:1048200058DA4981FC014083642F70E06C5F7F4F50
:10483000C8015AD980E090E00F90DF91CF911F918D
:104840000F910895EF92FF920F931F93CF93DF93F1
:104850008B01E90192E0FB01958386834783CE0DAE
:10486000DF1DC40FD51FBE01C801089632DABE0194
:104870006B5F7F4FC80138D960E070E0CB01DF91FA
:10488000CF911F910F91FF90EF9008954F925F92FB
:104890006F927F928F929F92AF92BF92CF92DF9250
:1048A000EF92FF920F931F93CF93DF93EB016A0177
:1048B000890193E09D832B0197E0490E511C8E8363
:1048C000390182E0680E711CB301C20102DA7C0179
:1048D000CE010B965C01093E93E0190700F5B80183
:1048E000C701F7D9B801C701F4D9A801B601C501BC
:1048F0000E94C958B8016A5F7F4FCE01DF91CF9106
:104900001F910F91FF90EF90DF90CF90BF90AF90ED
:104910009F908F907F906F905F904F90E5C888EE4A
:10492000882E83E0982EC801B4010E945E56660F5F
:10493000771F660D771DC701CCD968EE73E0C701FC
:10494000C8D9F601D501C40101900D920197E1F794
:10495000085E134088E1C81A8CEFD80A6EEE73E047
:10496000CE01C2D85E0195E0A90EB11C9CD9093ECA
:1049700083E0180740F0780198EEE91A93E0F90A0D
:1049800008EE13E002C0E12CF12C1E830D83A80178
:10499000B601C2010E94C958C00ED11EB8016E5F97
:1049A0007F4FC501A1D8E114F10411F08701DECFDA
:1049B000DF91CF911F910F91FF90EF90DF90CF90FB
:1049C000BF90AF909F908F907F906F905F904F902F
:1049D00008958F929F92AF92BF92CF92DF92EF9203
:1049E000FF920F931F93CF93DF9300D01F92CDB709
:1049F000DEB749015A01670178010FEF1FEF9801F7
:104A000009831A832B833C830091A00A1091A10A89
:104A1000AB01BC01C801099655D9B501A40152D911
:104A2000B701A6014FD94CE0B80181E090E1E9DE81
:104A3000BE016F5F7F4F81E090E1D1DE69817A81B5
:104A40008B819C817093CD0B6093CC0B20E030E088
:104A5000A901FAD969817A818B819C810F900F908D
:104A60000F900F90DF91CF911F910F91FF90EF90DA
:104A7000DF90CF90BF90AF909F908F900895CF928E
:104A8000DF92EF92FF920F931F93CF93DF9300D0AB
:104A90001F92CDB7DEB76B017C018FEF9FEFDC017A
:104AA00089839A83AB83BC830091A00A1091A10AE9
:104AB000B701A601C801099605D944E0B8018BE009
:104AC00090E19FDEBE016F5F7F4F8BE090E187DE5C
:104AD00089819A819093CD0B8093CC0B21E030E0BB
:104AE00040E050E0C701B601AFD969817A818B817E
:104AF0009C810F900F900F900F90DF91CF911F919D
:104B00000F91FF90EF90DF90CF900895AF92BF92FA
:104B1000CF92DF92EF92FF920F931F93CF93DF9389
:104B2000CDB7DEB728970FB6F894DEBF0FBECDBF66
:104B30005C017B018A012FEF3FEF3093CD0B209377
:104B4000CC0B673E7105B8F5C090A00AD090A10AC1
:104B500048E050E060E070E0C6010996B3D8A701D4
:104B600060E070E0AFD8F50195012E0D3F1DE21712
:104B7000F30729F04191DC014D93CD01F8CF48E0D6
:104B80004E0DB60180E190E13CDEBE016F5F7F4FCC
:104B900080E190E124DE89819A818093CC0B90930F
:104BA000CD0B4D815E816F817885F8014083518303
:104BB0006283738302C08FEF9FEF28960FB6F8943D
:104BC000DEBF0FBECDBFDF91CF911F910F91FF9040
:104BD000EF90DF90CF90BF90AF900895EF92FF924B
:104BE0000F931F93CF93DF9300D01F92CDB7DEB703
:104BF0007A010FEF1FEF980109831A832B833C83FF
:104C00000091A00A1091A10AAB01BC01C80109964C
:104C100059D848E050E060E070E054D848E050E0F7
:104C200060E070E04FD8F70120E030E04191DC0116
:104C30004D93CD012F5F3F4F28303105B9F744E147
:104C4000B80187E090E1DDDDBE016F5F7F4F87E057
:104C500090E1C5DD69817A818B819C817093CD0B58
:104C60006093CC0B0F900F900F900F90DF91CF912E
:104C70001F910F91FF90EF9008954F925F926F9266
:104C80007F928F929F92AF92BF92CF92DF92EF92DC
:104C9000FF920F931F93CF93DF93CDB7DEB760974B
:104CA0000FB6F894DEBF0FBECDBF6A0159018090E8
:104CB000A00A9090A10AAB01BC01C401099602D8D8
:104CC00044E150E060E070E00E94621E44E150E088
:104CD00060E070E00E94621E44E150E060E070E03D
:104CE0000E94621E44E150E060E070E00E94621E9B
:104CF00041E050E060E070E0E114F10419F040E0C0
:104D000050E0BA010E94621EC114D10431F0F601D4
:104D1000408151816281738103C040E050E0BA015B
:104D20000E94621EA114B10431F0F501408151814D
:104D30006281738103C040E050E0BA010E94621EAC
:104D40000115110531F0F8014081518162817381B3
:104D500003C040E050E0BA010E94621EE114F10479
:104D600049F1F701408151816281738141155105FB
:104D700061057105B1F44480558066807780F8E85C
:104D80004F16F3E15F06610471045CF428E8422EDB
:104D900023E1522E612C712CF701448255826682E8
:104DA00077820E94621EF701448155816681778176
:104DB0000E94621E4CE2B40188E090E122DDBE0157
:104DC0006F5F7F4F88E090E10ADD89819A81AB8136
:104DD000BC81B7FD25C0C114D10449F04D815E816D
:104DE0006F817885F6014083518362837383A114B8
:104DF000B10449F049855A856B857C85F50140836E
:104E00005183628373830115110581F04D855E85A1
:104E10006F857889F801408351836283738306C06C
:104E20009093CD0B8093CC0B8FEF9FEF60960FB6D6
:104E3000F894DEBF0FBECDBFDF91CF911F910F91D0
:104E4000FF90EF90DF90CF90BF90AF909F908F90AA
:104E50007F906F905F904F9008954F925F926F9206
:104E60007F928F929F92AF92BF92CF92DF92EF92FA
:104E7000FF920F931F93CF93DF93CDB7DEB7649765
:104E80000FB6F894DEBF0FBECDBF8C010E94464C1A
:104E90002B013C01680135E0D694C7943A95E1F7BF
:104EA000C8018F719927812C912C5401839404C0DF
:104EB000880C991CAA1CBB1C8A95D2F7C801AA278A
:104EC00097FDA095BA2F8D879E87AF87B88BCC0CA6
:104ED000DD1CCC0CDD1CA1E0B0E0AC0FBD1FCA0E88
:104EE000DB1EB8E0CB0ED11C0F5F1F4FC801AA27F5
:104EF00097FDA095BA2F898B9A8BAB8BBC8B809139
:104F0000B20A9091B30AA091B40AB091B50A892B64
:104F10008A2B8B2BA9F08091B20A9091B30AA091B1
:104F2000B40AB091B50A9093CD0B8093CC0B10923C
:104F3000B20A1092B30A1092B40A1092B50A58C07D
:104F40006D857E858F8598891DDC672B682B692B85
:104F500009F049C00E94464C6419750986099709F1
:104F6000613375478105910508F040C08091B60A0C
:104F70009091B70A892B21F519861A861B861C8603
:104F8000F60180829182A282B38219821A821B82E8
:104F90001C8288E893E1A0E0B0E08D839E83AF831C
:104FA000B887DE0111967D0100E010E020E030E0DE
:104FB000AE01475F5F4F69897A898B899C895DDE85
:104FC0008091B60A9091B70A892B09F498CF809105
:104FD000B60A9091B70A01979093B70A8093B60AE0
:104FE00080E090E005C08FEF9FEF02C08DEF9FEF54
:104FF00064960FB6F894DEBF0FBECDBFDF91CF91A0
:105000001F910F91FF90EF90DF90CF90BF90AF90E6
:105010009F908F907F906F905F904F9008952F9208
:105020003F924F925F926F927F928F929F92AF9238
:10503000BF92CF92DF92EF92FF920F931F93CF9385
:10504000DF93CDB7DEB72C970FB6F894DEBF0FBE57
:10505000CDBF1A01280139010091A00A1091A10ABF
:10506000AB01BC01C80109960E94621EB301A201F6
:105070000E94621EB701A6010E94621E4CE0B801A8
:105080008AA19BA1BEDBBE016F5F7F4F8AA19BA15E
:10509000A6DB8D819E81AF81B885181619061A0688
:1050A0001B0624F4A401B501C101A4DB8D819E81FE
:1050B0009093CD0B8093CC0B2C960FB6F894DEBF5B
:1050C0000FBECDBFDF91CF911F910F91FF90EF9059
:1050D000DF90CF90BF90AF909F908F907F906F9018
:1050E0005F904F903F902F9008958F929F92AF9234
:1050F000BF92CF92DF92EF92FF920F931F931F9276
:105100001F92E0E1EF93E4E0EF93812C912CA12C2E
:10511000B12C85DF0F900F900F900F901F910F9182
:10512000FF90EF90DF90CF90BF90AF909F908F90C7
:1051300008952F923F924F925F926F927F928F923B
:105140009F92AF92BF92CF92DF92EF92FF920F9316
:105150001F93CF93DF93CDB7DEB767970FB6F89461
:10516000DEBF0FBECDBF6D877E878F87988B5A8B32
:10517000498B2801390145018D859E856EDE00979A
:1051800009F0C0C08091BE0A9091BF0AA091C00AE8
:10519000B091C10A0196A11DB11D8093BE0A9093E2
:1051A000BF0AA093C00AB093C10AA090A00AB09011
:1051B000A10A09A91AA92BA93CA9013811052105A1
:1051C0003105A9F0033811052105310509F098C012
:1051D000A3019201285F3F4F4F4F5F4F2B8B3C8BBA
:1051E0004D8B5E8B85010E5D1F4F28E10AC0850146
:1051F000065E1F4F20E11DA61EA61FA618AA812C21
:10520000912C4D855E856F857889C5010A962F8B17
:105210000E94621E2F89222E312CA1014450510977
:1052200060E070E00E94621EB301A2010E94621E53
:10523000B701A6010E94621E29A93AA94BA95CA93F
:10524000233831054105510561F44B895C896D892D
:105250007E890E94621E48E050E060E070E00E949B
:10526000621EF801A989BA89CD0149895A89841B2E
:10527000950BAC0160E070E04415550566057705B7
:105280001CF48D918193F0CF89A99AA9ABA9BCA9EF
:1052900083389105A105B105B9F0EDA4FEA4840100
:1052A0009201A101B50189A9CDDA09A91AA92BA9F1
:1052B0003CA90338110521053105D1F4BE016F5F0A
:1052C0007F4F8FE090E119C0DF01F401CF01881911
:1052D0009909AC0160E070E00DA51EA52FA538A9C5
:1052E0004017510762077307C4F681918D93EECF83
:1052F000BE016F5F7F4F83E090E171DAC20102C0AF
:105300008FEF9FEF67960FB6F894DEBF0FBECDBF4D
:10531000DF91CF911F910F91FF90EF90DF90CF9091
:10532000BF90AF909F908F907F906F905F904F90C5
:105330003F902F900895AF92BF92CF92DF92EF925D
:10534000FF920F931F931F921F921F92E1E8EF931A
:105350001F921F921F921F92A12CB12CEADE2DB733
:105360003EB7285F3F4F0FB6F8943EBF0FBE2DBF2C
:105370001F910F91FF90EF90DF90CF90BF90AF9073
:105380000895CF92DF92EF92FF920F931F93CF93E6
:10539000DF931F92CDB7DEB76B018A014132510511
:1053A00098F5E090A00AF090A10AAC0160E070E0EE
:1053B000C70109960E94621E48E050E060E070E07C
:1053C0000E94621EA80160E070E00E94621EF60169
:1053D0009601200F311FE217F30729F04191DC01FC
:1053E0004D93CD01F8CF4CE0400FB70181E190E142
:1053F00008DABE016F5F7F4F81E190E1F0D98981CA
:10540000992787FD909502C08FEF9FEF0F90DF9156
:10541000CF911F910F91FF90EF90DF90CF90089563
:1054200021E030E030939D0A20939C0A90939F0ADC
:1054300080939E0A0C944021AF92BF92CF92DF924C
:10544000EF92FF920F931F937093A30A6093A20AA7
:105450005093A50A4093A40A3093A70A2093A60A62
:105460001093AB0A0093AA0AF092AD0AE092AC0A3C
:10547000D092AF0AC092AE0AB092B10AA092B00A1E
:105480009093A90A8093A80A81E08093C60A1F918D
:105490000F91FF90EF90DF90CF90BF90AF90089565
:1054A000CF92DF92EF92FF92CF93DF93EC011092B5
:1054B000BE0A1092BF0A1092C00A1092C10A10923E
:1054C000C20A1092C30A1092C40A1092C50A10921E
:1054D0009B0A10929A0A1092B70A1092B60A10927A
:1054E000B90A1092B80A1092BB0A1092BA0A109226
:1054F000BD0A1092BC0A1092B20A1092B30A10921E
:10550000B40A1092B50A10929D0A10929C0A109249
:105510009F0A10929E0A82E899E09093A10A8093D4
:10552000A00A80E19AE20E94191BE091AA0AF09178
:10553000AB0A19956B017C01E091B00AF091B10AB8
:1055400081E01995CD28CE28CF2889F0E091AA0ACC
:10555000F091AB0A1995672B682B692BB9F760910D
:10556000A00A7091A10ACD2BA9F480E014C0E091AB
:10557000AA0AF091AB0A1995672B682B692BB9F32E
:10558000E091AA0AF091AB0A1995672B682B692B59
:10559000B9F7E5CF82E0FB01818741E080E090E44C
:1055A00030D960E070E080E090E419D96091A00A01
:1055B0007091A10A40E08BE090E423D960E070E0B4
:1055C0008BE090E4DF91CF91FF90EF90DF90CF9050
:1055D00006C92F923F924F925F926F927F928F9265
:1055E0009F92AF92BF92CF92DF92EF92FF920F9372
:1055F0001F93CF93DF93CDB7DEB760970FB6F894C4
:10560000DEBF0FBECDBF6B877C878D879E871A015B
:10561000280139019E012F5F3F4F86E0F901119269
:105620008A95E9F78FEF9FEFDC018F839887A98731
:10563000BA870091A00A1091A10A4CE150E060E005
:1056400070E0C80109962F87388B0E94621EB30153
:10565000A2010E94621E4B855C856D857E850E943D
:10566000621EB301A201405F5F4F6F4F7F4F0E94E8
:10567000621EB501A4010E94621E60E070E00E94FB
:10568000691E2F853889E114F10479F0D701FC01F6
:1056900020E030E04D9141932F5F3F4F26303105A0
:1056A000C9F70696DC01F1010BC0F901DC019E018E
:1056B000295F3F4F41914D93E217F307D9F7F1CF9F
:1056C000AF014219530960E070E0441555056605C5
:1056D00077051CF481918D93F3CF81149104A1047B
:1056E000B10471F54CE1480D440DB80181E090E042
:1056F00088D8BE01695F7F4F81E090E070D86F81EC
:10570000788589859A857093CD0B6093CC0B6096D4
:105710000FB6F894DEBF0FBECDBFDF91CF911F91C2
:105720000F91FF90EF90DF90CF90BF90AF909F9040
:105730008F907F906F905F904F903F902F90089543
:10574000C114D10479F2F601AF014C195D0960E092
:1057500070E0481559056A057B0524F681918D9303
:10576000F3CF8F929F92AF92BF92CF92DF92EF9240
:10577000FF920F931F93CF93DF9300D01F92CDB76B
:10578000DEB749015A01670178010FEF1FEF980159
:1057900009831A832B833C830091A00A1091A10AEC
:1057A000AB01BC01C80109960E94621EB501A401AB
:1057B0000E94621EB701A6010E94621E4CE0B80161
:1057C00084E090E01ED8BE016F5F7F4F84E090E0E0
:1057D00006D869817A818B819C810F900F900F9000
:1057E0000F90DF91CF911F910F91FF90EF90DF907D
:1057F000CF90BF90AF909F908F9008950F931F937D
:10580000CF93DF9300D01F92CDB7DEB7AB01BC01C1
:105810000091A00A1091A10AC80109960E94621E77
:105820008FEF9FEFDC0189839A83AB83BC8344E0D5
:10583000B80186E090E00E940124BE016F5F7F4FB7
:1058400086E090E00E94EF2369817A818B819C81C0
:105850000F900F900F900F90DF91CF911F910F91AC
:1058600008954F925F926F927F92AF92BF92CF92C4
:10587000DF92EF92FF920F931F93CF93DF93CDB7F9
:10588000DEB72C970FB6F894DEBF0FBECDBF2B014D
:105890003C012D833E834F835887E986FA860B8728
:1058A0001C87FEA4EFA40091A00A1091A10A44E273
:1058B00050E060E070E0C80109960E94621EB301EA
:1058C000A2010E94621E4D815E816F8178850E94D7
:1058D000621E49855A856B857C850E94621EB601D1
:1058E000A5010E94621E4E8D5F8D68A179A10E9464
:1058F000621E4AA15BA16CA17DA10E94621E4EA105
:105900005FA168A579A50E94621E4AA55BA56CA54A
:105910007DA50E94621EEF2DFE2D20E030E041911A
:10592000DC014D93CD012F5F3F4F20343105B9F796
:1059300044E6B80183E090E00E940124BE016F5F5D
:105940007F4F83E090E00E94EF2369817A818B8111
:105950009C812C960FB6F894DEBF0FBECDBFDF91B1
:10596000CF911F910F91FF90EF90DF90CF90BF905C
:10597000AF907F906F905F904F9008950F931F931B
:10598000CF93DF9300D01F92CDB7DEB7AB01BC0140
:10599000DB01CA0188709078AA27BB27883090481D
:1059A000A105B10571F41092C60A483080E8580785
:1059B0006105710551F1477F5F776627772750684A
:1059C00003C081E08093C60A8FEF9FEFDC018983DB
:1059D0009A83AB83BC830091A00A1091A10AC801ED
:1059E00009960E94621E44E0B80188E090E00E949F
:1059F0000124BE016F5F7F4F88E090E00E94EF239B
:105A000069817A818B819C8103C060E070E0CB0169
:105A10000F900F900F900F90DF91CF911F910F91EA
:105A200008952F923F924F925F926F927F928F9242
:105A30009F92AF92BF92CF92DF92EF92FF920F931D
:105A40001F93CF93DF9300D01F92CDB7DEB74C01E9
:105A50007C836B836A015901C8018701AC014C1931
:105A60005D0957FF03C051954195510995016B811F
:105A70007C81261B370B37FF03C0319521953109F7
:105A800022242394312C2417350714F0212C312C97
:105A90002114310459F03A2D2B2D5C01832F922FC4
:105AA0003B812C81DC82CB82C32ED22EAB81BC8188
:105AB000AA16BB065CF43C2D2D2D6C01832F922F72
:105AC0003B812C81BC82AB82A32EB22E2501EB81BF
:105AD000FC814E1A5F0A3C016C187D0877FE03C0FA
