:10000000ABC30000DAC30000D8C30000D6C30000B1
:10001000D4C30000D2C30000D0C30000CEC3000090
:10002000CCC30000CAC30000C8C30000C6C30000A0
:10003000C4C30000C2C30000C0C30000BEC30000B0
:10004000BCC30000BAC30000B8C30000B6C30000C0
:10005000B4C30000B2C30000B0C300000C940E1B78
:10006000ACC300000C94A91F0C94DF1FA6C30000B2
:10007000A4C30000A2C30000A0C300009EC30000F0
:100080009CC300009AC3000098C3000096C3000000
:1000900094C3000092C3000090C300007AC6000021
:1000A0008CC300008AC3000088C3000086C3000020
:1000B00084C3000082C3000080C300007EC3000030
:1000C0007CC300007AC3000078C3000076C3000040
:1000D00074C3000072C3000070C300006EC3000050
:1000E0006CC30000431C481C4D1C571C611CDA1CCF
:1000F0006B1C731C7B1C851C8F1C991CA81CB21CC0
:10010000DA1CBC1CC61CD01CFB1CFE1CED1CF11C0C
:10011000F71C351D021D061D0C1D101D141D1A1D7A
:100120001E1D221D351D281D2C1D301D0000000028
:10013000003E5B4F5B3E3E6B4F6B3E1C3E7C3E1C6D
:10014000183C7E3C181C577D571C1C5E7F5E1C00B3
:10015000183C1800FFE7C3E7FF0018241800FFE76A
:10016000DBE7FF30483A060E2629792926407F052D
:100170000507407F05253F5A3CE73C5A7F3E1C1C43
:1001800008081C1C3E7F14227F22145F5F005F5F03
:1001900006097F017F006689956A606060606094EF
:1001A000A2FFA29408047E040810207E20100808F4
:1001B0002A1C08081C2A08081E101010100C1E0CFF
:1001C0001E0C30383E3830060E3E0E060000000091
:1001D0000000005F00000007000700147F147F1478
:1001E000242A7F2A122313086462364956205000BD
:1001F00008070300001C2241000041221C002A1CA9
:100200007F1C2A08083E0808008070300008080893
:100210000808000060600020100804023E514945B3
:100220003E00427F400072494949462141494D33D1
:100230001814127F1027454545393C4A4949314138
:10024000211109073649494936464949291E000006
:10025000140000004034000000081422411414145B
:100260001414004122140802015909063E415D5947
:100270004E7C1211127C7F494949363E4141412250
:100280007F4141413E7F494949417F090909013E7A
:10029000414151737F0808087F00417F41002040A1
:1002A000413F017F081422417F404040407F021CB3
:1002B000027F7F0408107F3E4141413E7F090909CA
:1002C000063E4151215E7F09192946264949493296
:1002D00003017F01033F4040403F1F2040201F3F5C
:1002E0004038403F631408146303047804036159E1
:1002F000494D43007F414141020408102000414123
:10030000417F0402010204404040404000030708CE
:100310000020545478407F284444383844444428CA
:10032000384444287F385454541800087E09021871
:10033000A4A49C787F0804047800447D40002040F9
:10034000403D007F1028440000417F40007C04783D
:1003500004787C080404783844444438FC18242485
:100360001818242418FC7C08040408485454542405
:1003700004043F44243C4040207C1C2040201C3C82
:100380004030403C44281028444C9090907C446479
:10039000544C44000836410000007700000041360C
:1003A000080002010204023C2623263C1EA1A16192
:1003B000123A4040207A38545455592155557941C4
:1003C0002254547842215554784020545579400C99
:1003D0001E5272123955555559395454545939557C
:1003E0005454580000457C410002457D42000145BF
:1003F0007C407D1211127DF0282528F07C54554553
:10040000002054547C547C0A097F493249494932BE
:100410003A4444443A324A4848303A4141217A3ACF
:1004200042402078009DA0A07D3D4242423D3D409B
:1004300040403D3C24FF2424487E4943662B2FFC4A
:100440002F2BFF0929F620C0887E090320545479F8
:10045000410000447D413048484A32384040227AC9
:10046000007A0A0A727D0D19317D2629292F282646
:100470002929292630484D4020380808080808084E
:100480000808382F10C8ACBA2F102834FA00007BA7
:10049000000008142A142222142A140855005500BA
:1004A00055AA55AA55AAFF55FF55FF000000FF00A9
:1004B000101010FF00141414FF001010FF00FF10A4
:1004C00010F010F0141414FC001414F700FF0000D6
:1004D000FF00FF1414F404FC141417101F10101F55
:1004E000101F1414141F00101010F0000000001F43
:1004F000101010101F10101010F010000000FF104E
:100500001010101010101010FF10000000FF140049
:1005100000FF00FF00001F10170000FC04F414147B
:100520001710171414F404F40000FF00F714141447
:1005300014141414F700F7141414171410101F10C7
:100540001F141414F4141010F010F000001F101FEA
:100550000000001F14000000FC140000F010F01058
:1005600010FF10FF141414FF141010101F000000CF
:1005700000F010FFFFFFFFFFF0F0F0F0F0FFFFFFD3
:100580000000000000FFFF0F0F0F0F0F384444382A
:1005900044FC4A4A4A347E02020606027E027E0279
:1005A00063554941633844443C04407E201E200684
:1005B000027E020299A5E7A5991C2A492A1C4C72C1
:1005C00001724C304A4D4D303048784830BC625A48
:1005D000463D3E494949007E0101017E2A2A2A2AD8
:1005E0002A44445F444440514A444040444A5140B4
:1005F0000000FF0103E080FF000008086B6B083675
:1006000012362436060F090F0600001818000000E5
:100610001010003040FF0101001F01011E00191DD4
:100620001712003C3C3C3C000000000000000A0B9C
:1006300002090C0D0E080703040100000000000071
:1006400000000000000000000000000000000000AA
:100650000000000000000000121110000000000067
:10066000000000000000000000000000000000008A
:1006700000000102102020080810204010204080B7
:100680000201020108040201010204081020408056
:1006900080402010080402018004020180402010E4
:1006A000080402010804020101020408102040802D
:1006B000010204081020408005050505070508080B
:1006C0000808020202020A0A0808040404040101DC
:1006D00001010101010103030303030303030407F1
:1006E00007070C0C0C0C0C0C0C0C02020202060688
:1006F0000606060606060B0B0B0B0B0B0B0B00007E
:1007000020002300260029002C002F0032000001C9
:100710000000030106010901000022002500280055
:100720002B002E00310034000201000005010801F9
:100730000B0100002100240027002A002D003000BA
:10074000330001010000040107010A01BD04E005B6
:100750000B14CA17D41A112011241FBECFEFD1E2F7
:10076000DEBFCDBF00E00CBF14E0A0E0B2E0E2E4E9
:10077000F8E400E00BBF02C007900D92AC35B10762
:10078000D9F726E0ACE5B4E001C01D92AA34B20767
:10079000E1F717E0C8E5D7E000E006C022970109BD
:1007A000FE010BBF0E941724CC34D10780E008075C
:1007B000A9F70E9455200C941F2422CC40ED57E04D
:1007C00060E070E080E395E00E94CA1620E835E220
:1007D00040E050E06DEA75E080E395E00E94DC16B1
:1007E00080E395E00E94C8166CE172E0809161059B
:1007F000909162050E949F206AE070E080E090E0A6
:100800000E94871B41E060E080E395E00E9445176D
:1008100026E040E855E260E070E08DEA95E00E9455
:10082000491F6EE272E08DEA95E00E94AA208FE5F2
:1008300094E00E94DF1A10925E0410925D0460E062
:1008400070E08FE594E00C940419CF92DF92EF9260
:10085000FF920F931F930E94581B672B682B692BE5
:1008600041F40E94581B623071058105910508F41E
:1008700076C00E94581B6093620470936304809357
:1008800064049093650400916604109167042091BC
:10089000680430916904601771078207930740F478
:1008A000609366047093670480936804909369046E
:1008B00000916604109167042091680430916904E6
:1008C0006B017C01C01AD10AE20AF30A9701860182
:1008D0000A3F11052105310508F441C06093660403
:1008E00070936704809368049093690480E395E0B3
:1008F0000E94C8166EE372E08091610590916205D6
:100900000E949F2066E472E08091610590916205EB
:100910000E949F200E94581BAB01BC012AE030E0DE
:1009200080916105909162050E94642168E472E003
:1009300080916105909162050E949F2065E070E0C2
:1009400080E090E00E94871B6AE070E080E090E029
:100950000E94871B61E080E395E00E9408178FE505
:1009600094E00E94C8198CE594E01F910F91FF90CC
:10097000EF90DF90CF900C9478178FE594E00E9471
:10098000D3178CE594E00C945F1780919A0490E063
:1009900020919B04821B9109089520919B048091D2
:1009A0009A04281750F4E22FF0E0E456FB4F8081C0
:1009B00090E02F5F20939B0408958FEF9FEF0895A1
:1009C000E0919B0480919A04E81730F4F0E0E4563B
:1009D000FB4F808190E008958FEF9FEF0895089579
:1009E000CF92DF92EF92FF920F931F93CF93DF93FB
:1009F0007C01CB018A0120917604222389F0EB014E
:100A00006B01C40ED51ECC15DD0561F06991D701CF
:100A1000ED91FC910190F081E02DC7011995F3CF84
:100A2000642F8ED1C801DF91CF911F910F91FF905C
:100A3000EF90DF90CF900895CF93DF931F92CDB7C3
:100A4000DEB76983209176042223D1F020917704C8
:100A5000203240F021E030E0FC013383228380E04B
:100A600090E014C080917804E82FF0E0E758FB4F45
:100A7000998190838F5F809378048093770404C07A
:100A800061E0CE0101965CD181E090E00F90DF91B2
:100A9000CF910895FC011382128248EE53E060E08A
:100AA00070E0448355836683778385E592E0918384
:100AB0008083089510929B0410929A0410927804F7
:100AC0001092770480C081E080937604609399044B
:100AD000109278041092770408950F93062F21E066
:100AE0004091770469E774E080919904D2D0109224
:100AF000780410927704109276040F9108958F92E3
:100B00009F92AF92BF92CF92DF92EF92FF920F939C
:100B10001F93CF93DF93EC01F62ED42E4801590199
:100B2000EE2009F1D0DF1E2D143008F013E0115033
:100B3000B8F0E881F98128E0129FB0011124A501E5
:100B4000940104C056954795379527956A95D2F735
:100B5000CA01B9010190F081E02DCE011995E7CFCE
:100B600060E0CE01BADF4D2D413208F040E22C2D7D
:100B70006CE974E08F2D45D010929B0480939A0409
:100B8000DF91CF911F910F91FF90EF90DF90CF9069
:100B9000BF90AF909F908F900895CF92EF920F9358
:100BA0001F93C22EE12C00E010E09801A8DF1F91F6
:100BB0000F91EF90CF90089521E0EFCF61E08DCFBE
:100BC0008AE694E067CF1092290581E0809327059B
:100BD0001092260561E084E10E946F1D61E085E1CD
:100BE0000E946F1DE9EBF0E080818E7F8083808121
:100BF0008D7F808388E48093B80085E48093BC0077
:100C00000895413208F043C0909129059111FCCF1D
:100C100091E090932905209327052FEF2093BC04A2
:100C200010920105240F20930005909328059091C0
:100C30002805880F892B809328058091260581300F
:100C400061F410922605809128058093BB00809165
:100C5000BC0083FDF8CF85EC01C085EE8093BC001D
:100C6000809129058130E1F380910105841710F40A
:100C70004091010522E035E0FB01D9018A2F821B5A
:100C8000841718F48D918193F9CF842F089580E013
:100C900008950F93413208F04AC0909129059111AF
:100CA000FCCF92E090932905009327059FEF909346
:100CB000BC041092010540930005FB0162E075E061
:100CC000DB019A2F961B941718F491919D93F9CFFD
:100CD0001092280590912805880F892B809328056C
:100CE00080912605813061F41092260580912805B7
:100CF0008093BB008091BC0083FDF8CF85EC01C0E0
:100D000085EE8093BC00222321F08091290582305A
:100D1000E1F38091BC048F3F61F08091BC0480328C
:100D200051F08091BC04803341F483E007C081E03E
:100D300005C080E003C082E001C084E00F91089507
:100D4000613298F420912905243089F46093DE04FF
:100D5000FC0180EE94E0DC012A2F281B261718F4F2
:100D600021912D93F9CF80E0089581E0089582E0EC
:100D7000089585ED8093BC008091BC0084FDFCCF7C
:100D800010922905089585EC8093BC0010922905E6
:100D900008951F920F920FB60F9211240BB60F9267
:100DA0002F933F934F935F936F937F938F939F9373
:100DB000AF93BF93EF93FF938091B900887F803604
:100DC00009F49DC070F5883209F45CC090F480315C
:100DD00009F455C038F4882309F4F3C0883009F4C5
:100DE0004EC0F2C0883109F44DC0803209F45EC0B3
:100DF000EBC0803409F469C050F4803309F456C064
:100E0000883309F0E1C08093BC04BDDFDDC08035CC
:100E100009F44FC0883509F45DC0883409F0D4C0A6
:100E2000D2C0883909F4C3C0A8F4883709F467C070
:100E300038F4883609F463C0803709F460C0C4C050
:100E4000883809F4B4C0803909F45FC0803809F0EB
:100E5000BBC05BC0803B09F482C038F4803A09F41F
:100E600066C0883A09F47BC0AFC0803C09F4A3C0D7
:100E7000883C09F4A0C0883B09F486C0A5C08091D5
:100E8000280510C09091010580910005981770F514
:100E9000E091010581E08E0F80930105F0E0EE5FA7
:100EA000FA4F80818093BB0085EC82C08093BC04A4
:100EB0008AC0E091010581E08E0F80930105809149
:100EC000BB00F0E0EE5FFA4F8083909101058091C6
:100ED00000056AC0E091010581E08E0F8093010555
:100EE0008091BB00F0E0EE5FFA4F80838091270590
:100EF000811169C081E08093260584EA5DC083E0AA
:100F0000809329051092BD04CFCF8091BD0480321B
:100F100008F04DC0E091BD0481E08E0F8093BD04C8
:100F20008091BB00F0E0E254FB4F8083BDCF2BDF0C
:100F30008091BD04803230F4E091BD04F0E0E254D1
:100F4000FB4F10826091BD0470E0E0912205F091AA
:100F500023058EEB94E019951092BD0435C084E012
:100F6000809329051092DF041092DE04E09124059D
:100F7000F091250519958091DE04811105C081E06D
:100F80008093DE041092E004E091DF0481E08E0F94
:100F90008093DF04F0E0E052FB4F80818093BB0040
:100FA0009091DF048091DE04981708F47DCF85E8E6
:100FB0008093BC0009C085EC8093BC001092290589
:100FC00003C01092BC04D5DEFF91EF91BF91AF91A9
:100FD0009F918F917F916F915F914F913F912F9151
:100FE0000F900BBE0F900FBE0F901F901895CF93D0
:100FF000CFB7F89480912D05811127C0EDEEF6E072
:101000008491E7EAF6E09491E82FF0E0EE0FFF1FFD
:10101000EE5CF84FA591B4918C91892321F461E0A5
:1010200085E30E946F1D61E085E30E94361D8CB54B
:1010300080618CBD8CB580648CBD61E084E30E94CE
:10104000361D61E083E30E94361D80912D058F5F80
:1010500080932D05CFBFCF9108952F923F924F924D
:101060005F926F927F928F929F92AF92BF92CF9238
:10107000DF92EF92FF920F931F93CF93DF9300D0F5
:101080001F92CDB7DEB74C017C836B836A01590197
:10109000C8018701AC014C195D0957FF03C0519588
:1010A0004195510995016B817C81261B370B37FFD8
:1010B00003C031952195310922242394312C241722
:1010C000350714F0212C312C2114310459F03A2D1C
:1010D0002B2D5C01832F922F3B812C81DC82CB82D4
:1010E000C32ED22EAB81BC81AA16BB065CF43C2D6C
:1010F0002D2D6C01832F922F3B812C81BC82AB82E2
:10110000A32EB22E2501EB81FC814E1A5F0A3C0111
:101110006C187D0877FE03C07194619471087201A8
:1011200057FE03C0FFEFEF1AFF0AF594E794C816C5
:10113000D9062CF421E030E03A83298324C06FEFF4
:101140007FEF7A8369831FC0D401ED91FC91048005
:10115000F581E02D980121143104D9F04B815C8197
:10116000B601C4011995E618F708F7FE06C0E98133
:10117000FA81CE0EDF1EE40CF51C2B813C812F5F23
:101180003F4F3C832B836B817C81A616B706E4F628
:1011900004C0A6016B817C81E4CF0F900F900F906B
:1011A0000F90DF91CF911F910F91FF90EF90DF9003
:1011B000CF90BF90AF909F908F907F906F905F90F7
:1011C0004F903F902F9008956F927F928F929F92B1
:1011D000AF92BF92CF92DF92EF92FF920F931F9345
:1011E000CF93DF93EC015B016A0139014801E8818B
:1011F000F9810284F385E02D87011995E881F98151
:10120000A601480D591D415051090284F385E02D76
:101210009301B501CE011995E881F9810084F1852A
:10122000E02D9401A601B501CE011995E881F9815F
:10123000B501660D771D615071090084F185E02DBF
:101240009401A601CE011995DF91CF911F910F91C5
:10125000FF90EF90DF90CF90BF90AF909F908F90D6
:101260007F906F900895EF92FF920F931F93DC0190
:10127000ED91FC91240F351F215031090680F78133
:10128000E02D780189019B0119951F910F91FF9025
:10129000EF900895EF92FF920F931F93DC01ED9171
:1012A000FC91260F371F215031090680F781E02D70
:1012B00078018A0119951F910F91FF90EF90089581
:1012C0006F927F928F929F92AF92BF92CF92DF9256
:1012D000EF92FF920F931F93CF93DF935C014A012C
:1012E00069013801EB01C60ED71ECC15DD0574F47B
:1012F000D501ED91FC910084F185E02D87019301EA
:10130000A401BE01C50119952196EFCFDF91CF91C0
:101310001F910F91FF90EF90DF90CF90BF90AF9013
:101320009F908F907F906F900895EF92FF920F9310
:101330001F93DC01ED91FC9111971A960D911C9170
:101340001B9718962D913C9119970684F785E02DEF
:101350007B0140E050E060E070E019951F910F9133
:10136000FF90EF9008950895FC011382128285E6A4
:1013700092E091838083758364835783468371876A
:10138000608753874287158A1586148617861686C6
:1013900021E0248B8FEF9FEF938B828B918B808B3F
:1013A000268B178A118E108E08952F923F924F929E
:1013B0005F926F927F928F929F92AF92BF92CF92E5
:1013C000DF92EF92FF920F931F93CF93DF93CDB7EE
:1013D000DEB7AE970FB6F894DEBF0FBECDBF9887CD
:1013E0008F834B013A0129011EA70DA7B701DA82AD
:1013F000C982BE8AAD8A041715074CF4872D3801BF
:101400004DA78EA7982D892D4901492E582E2DA51F
:101410003EA549815A81421753075CF49DA58EA5CC
:101420005EA74DA799838A83942D852D2B01692F63
:10143000782F8DA59EA5861597055CF4962D872D92
:101440006DA47EA49DA78EA7982D892D4201492EBB
:10145000582EA981BA816A167B0619F548145904D9
:101460002CF0942D852D2401892E982E6415750558
:101470002CF0861697060CF44B01B201AF81B885AB
:10148000ED91FC9111979401261B370B2F5F3F4F75
:101490000284F385E02D0D891E89A301CD011995E4
:1014A00052C1C201881999092DA53EA526193709EF
:1014B000FB01E819F909FA87E98749815A81461938
:1014C00057095E874D87DB01A419B509BA8BA98B33
:1014D000E981FA814DA55EA5E41BF50BF88FEF8B32
:1014E00069817A814617570729F0415051095C8F6D
:1014F0004B8F04C0ADA5BEA5BC8FAB8F1301A12C33
:10150000B12C65011B821C821D821E82A9016627E7
:1015100057FD6095762F4D8F5E8F6F8F78A32D8549
:101520003E85442737FD4095542F29A33AA34BA36A
:101530005CA3AC01662757FD6095762F4DA35EA393
:101540006FA378A769857A85882777FD8095982F7E
:1015500069A77AA78BA79CA7EB8DFC8DE215F305F5
:101560000CF44EC06B817C818D819E812D8D3E8DD2
:101570004F8D58A10E94DC237401E20EF31EC601B8
:10158000B50129A13AA14BA15CA10E94DC23B401C1
:10159000620F731F8B819C81AD81BE812DA13EA105
:1015A0004FA158A5820F931FA41FB51F8B839C8347
:1015B000AD83BE8389A59AA5ABA5BCA5A80EB91E0F
:1015C000CA1EDB1E6E157F052CF0962F872FB701E4
:1015D000E92EF82EAF81B885ED91FC911197970116
:1015E000261B370B2F5F3F4F0284F385E02D0D89BB
:1015F0001E89A101CD011995BFEF2B1A3B0AACCF73
:1016000091014DA55EA5241B350B69897A89629FDE
:10161000C001639F900D729F900D11249C0144277F
:1016200037FD4095542F2B833C834D835E83C1014E
:101630008619970949855A85489F6001499FD00CB2
:10164000589FD00C1124EE24D7FCE094FE2C6F8917
:10165000788D882777FD8095982F6F8B788F898F6D
:101660009A8F8D859E85AA2797FDA095BA2F8D8785
:101670009E87AF87B88B29893A89442737FD4095E3
:10168000542F298B3A8B4B8B5C8B49855A85662767
:1016900057FD6095762F49875A876B877C87E9814C
:1016A000FA81E215F3050CF44EC06B817C818D81CB
:1016B0009E812F89388D498D5A8D0E94DC235201DD
:1016C000A20EB31EC701B6012D853E854F855889F0
:1016D0000E94DC23B401620F731F8B819C81AD815A
:1016E000BE8129893A894B895C89820F931FA41F87
:1016F000B51F8B839C83AD83BE8389859A85AB851B
:10170000BC85C80ED91EEA1EFB1E6A157B052CF08F
:10171000962F872FB501A92EB82EAF81B885ED91F0
:10172000FC9111979501261B370B2F5F3F4F0284C9
:10173000F385E02D0D891E89A101CD011995BFEF1B
:101740002B1A3B0AACCFAE960FB6F894DEBF0FBE95
:10175000CDBFDF91CF911F910F91FF90EF90DF9060
:10176000CF90BF90AF909F908F907F906F905F9041
:101770004F903F902F9008952F923F924F925F92FB
:101780006F927F928F929F92AF92BF92CF92DF9291
:10179000EF92FF920F931F93CF93DF93CDB7DEB7F6
:1017A0006A970FB6F894DEBF0FBECDBF1C015887F5
:1017B0004F831C870B87FA86E986CC82DC0158961A
:1017C0004D915C9159974115510509F0A6C01896A5
:1017D0008D919C911997681779070CF056C11A964C
:1017E0008D919C911B97EF81F885E817F9070CF014
:1017F0004CC1D12CCB013C81F6E03F9F800D911D67
:101800001124181619060CF040C1C60103E0880F18
:10181000991F0A95E1F74F815885840F951F181677
:1018200019060CF032C157968C91811103C0203BF0
:1018300008F02F5F7E876D874B0119821CE2A12E75
:1018400011E0B12EA61AB70A55E0259FA00CB11CD5
:1018500011248981853039F0ED85FE85EA0DFB1D67
:1018600094919A8301C01A826F8078842301A8E042
:10187000AD83BA81B0FF12C0D101ED91FC91BC8162
:10188000B13031F40480F581E02D2B853C8518C002
:101890000684F785E02DEB84FC841DC0E985FA857C
:1018A0002B853C85E217F307E1F0D101ED91FC9126
:1018B000BC81B13059F40480F581E02D29853A8549
:1018C000A2016D857E85C10119950BC00684F7853F
:1018D000E02DE984FA8486019601A301B401C101D7
:1018E0001995EA81E695EA83FD81F150FD836C0C40
:1018F0007D1C2FEF421A520AF111BBCF39813F5F95
:1019000039838C0C9D1C4D855E854F5F5F4F5E87D4
:101910004D87363009F09DCFB8C0FA013496349126
:10192000329785919491231BA7E02A9F800D911DEA
:101930001124FA0125913491398B288BFC014591B2
:1019400054915A8F498FFC013296549159873196A0
:10195000A491AF873196E491FC013596249131969C
:101960008491BC81B23050F0622E772467FC709471
:10197000E82FFF27E7FDF095FE87ED87FC81CF2E4E
:10198000D12C6C9C40016D9C900C7C9C900C112483
:10199000860E971EA12C1982DE8ACD8AAB01420FDA
:1019A000511D27FD5A955E834D83AF81B885A80FE1
:1019B000B11D87FDBA95B88FAF8B59818F855817A8
:1019C00008F063C0852F90E02D853E85280F391FD4
:1019D0002C9DD0012D9DB00D3C9DB00D1124EF81AB
:1019E000F885EA0FFB1FFB83EA836D807E8024016C
:1019F000FA2D2D81F21BFA8B4F89588D480F591FF4
:101A00005C8B4B8B9A89960D862D2D81821B398597
:101A10008317B0F5977061F4898D9A8D0196E889E6
:101A2000F989298D3A8DE20FF31FB4909A8F898F2F
:101A3000B7FE1DC0D101ED91FC91BC81B13059F4CC
:101A40000480F581E02D2B853C854B895C89B301B1
:101A5000C10119950CC00684F785E02DEB84FC8448
:101A6000860196014A815B81B201C1011995BB0CC7
:101A7000ED89FE894E0E5F1EFFEF6F1A7F0AC2CFFF
:101A8000A30E49814F5F498398CF6A960FB6F894A9
:101A9000DEBF0FBECDBFDF91CF911F910F91FF90A1
:101AA000EF90DF90CF90BF90AF909F908F907F90FE
:101AB0006F905F904F903F902F900895AF92BF929C
:101AC000CF92EF92FF920F931F93CF93DF93EC018E
:101AD000262F888D998D009709F041C06A3069F4EE
:101AE0002C898E859F8538E0239F800D911D1124C0
:101AF0009F878E871D861C86A9C06D3009F4A6C0FD
:101B00008E898823C1F03C898C859D8546E0349F71
:101B1000800D911D112448855985841795075CF027
:101B20001D861C868E859F85E8E03E9F800D911D59
:101B300011249F878E87EA88FB88088919894E853A
:101B40005F856C857D85CC88CE0116DE2C898C85E1
:101B50009D85F6E02F9F800D911D112441C06A30B4
:101B600079F41D861C864C89FC01369684912E855D
:101B70003F85489F200D311D11243F872E8766C069
:101B80006D3009F463C0AC014C5F5F4FFA013491D2
:101B9000631708F45BC03196E491E61708F456C069
:101BA000FA014491362F341BFC013296A590B49073
:101BB000F7E03F9FA00CB11C1124F5013296A491CF
:101BC0003196E491AA2311F0E1110DC0F50134968C
:101BD000A4902C898C859D85A29E800D911D112439
:101BE0009D878C8733C0F5013596E4913E89332378
:101BF00009F13C89B0E0AE0FB11DE7FDBA953A9FFF
:101C0000A0013B9F500D11246C857D85460F571F09
:101C100068857985461757076CF01D861C86FC0180
:101C2000369684914E855F85389F400D511D112455
:101C30005F874E87EA88FB88088919894E855F850A
:101C40006C857D85CC88CE0197DDC0CF81E090E0AA
:101C5000DF91CF911F910F91FF90EF90CF90BF90A8
:101C6000AF900895FC01758764875787468708956C
:101C7000611101C061E0FC01648B0895FC01738B6C
:101C8000628B718B608B0895FC01718B608B538B21
:101C9000428B0895FC01808591850895FC01828521
:101CA00093850895EF92FF920F931F93DC01ED91BE
:101CB000FC9111971A960D911C911B9718962D91D6
:101CC0003C9119970684F785E02D7B0140E050E0B8
:101CD00060E070E019951F910F91FF90EF900895CB
:101CE00020912C05222399F03FB7F89420912C05E0
:101CF000213059F42DB320932A054DB320912B05A3
:101D0000209524232DBB3FBF02C030932A058CBDF4
:101D10009DBD089580912C05882361F09FB7F894AC
:101D200020912C0580912A05213019F48DBB9FBF8D
:101D300008958FBF0895EF92FF920F931F93CF9353
:101D4000DF931F92CDB7DEB77C01062F142F40E43E
:101D500051E060EF70E0298307DB8DE792E0F70147
:101D60009183808307A310A7298121A781E0838F16
:101D700014A612A60F90DF91CF911F910F91FF90A3
:101D8000EF900895FC01838D811122C088E090E0DE
:101D900030E8A58DB68D25A5432F462321F04C9123
:101DA000422B4C9304C04C91209524232C93A78D57
:101DB000B0A12C9146A5242B2C93A78DB0A14C91BA
:101DC00026A5209524232C933695019711F7089585
:101DD0006EBD0DB407FEFDCF0895CF93DF93EC01E8
:101DE000E9A1FAA1908188A9809589238083EDA13A
:101DF000FEA190818FA5809589238083CE01C2DFCB
:101E0000EDA1FEA180819FA5892B8083DF91CF91D9
:101E100008950F931F93CF93DF931F92CDB7DEB733
:101E20008C01FC01838D882329F080E591E0698392
:101E300057DF6981662311F061E201C060E2C801E9
:101E4000CCDFF801838D882331F00F90DF91CF91A3
:101E50001F910F915FCF0F90DF91CF911F910F9145
:101E60000895CF93DF93EC01E9A1FAA1808198A9AD
:101E7000892B8083EDA1FEA190818FA58095892378
:101E80008083CE017FDFEDA1FEA180819FA5892BFC
:101E90008083DF91CF910895CF93DF93EC0189A5E3
:101EA00018163CF461E00E94361D60E089A50E948E
:101EB0006F1D61E088A50E94361D61E08FA10E9420
:101EC000361D8FA1992787FD9095FC01E854F94FA5
:101ED000E491F0E0EE0FFF1FE85EF84F259134919A
:101EE0003EA32DA3FC01EE58F94F84918FA788A53E
:101EF000992787FD9095FC01E854F94FE491F0E0B3
:101F0000EE0FFF1FE85EF84F259134913AA329A305
:101F1000FC01EE58F94F849188AB8B8D882311F02A
:101F200066D844C061E08CA50E94361D61E08AA598
:101F30000E94361D60E08BA50E94361D8CA5992756
:101F400087FD9095FC01E854F94FE491F0E0EE0F25
:101F5000FF1FE85EF84FA591B491B8A3AF8FFC01C5
:101F6000EE58F94F84918EA78AA5992787FD909501
:101F7000FC01E854F94FE491F0E0EE0FFF1FE85E3A
:101F8000F84F259134913E8F2D8FFC01EE58F94F7B
:101F900084918DA78C919EA5909589238C93ED8D2E
:101FA000FE8D90818DA580958923808389A5181643
:101FB000ECF461E00E946F1D65E070E080E090E06D
:101FC0000E94871B60E089A50E946F1D64E170E09C
:101FD00080E090E00E94871B61E089A50E946F1D50
:101FE00066E970E080E090E00E94871B8B8D88237B
:101FF00019F080E591E074DE6FEECE01EEDE63E075
:10200000CE012FDF60E8CE012CDF62E0CE0129DFB8
:102010006FECCE01E2DE60E0CE0123DF61ECCE01A9
:1020200020DF60E3CE011DDF6DEECE01D6DE64E67B
:10203000CE0117DF63E0CE0114DF62E1CE0111DFD4
:1020400061E8CE010EDF68EECE01C7DE65E8CE01A5
:1020500008DF60E0CE0105DF68E7CE0102DF6BEC50
:10206000CE01BBDE69E3CE01FCDE6CE2CE01F9DE1F
:1020700060E0CE01F6DE64E3CE01F3DE62E0CE0185
:10208000F0DE67EFCE01A9DE60E2CE01EADE6AEEA5
:10209000CE01A3DE60E0CE01E4DE60E0CE01E1DE51
:1020A00060ECCE019ADE63E2CE01DBDE61ECCE01B4
:1020B00094DE60E1CE01D5DE65ECCE018EDE6EE30E
:1020C000CE01CFDE68E2CE01CCDE67ECCE0185DE4C
:1020D00066E8CE01C6DE66E3CE017FDE68E4CE01AF
:1020E000C0DE6AE3CE0179DE65E5CE01BADE61EBE2
:1020F000CE0173DE60E0CE01B4DE68E1CE01B1DE78
:1021000066EBCE016ADE68E0CE01ABDE62E8CE01AE
:10211000A8DE67E2CE01A5DE62EFCE015EDE60E002
:10212000CE019FDE66E2CE0158DE61E0CE0199DE8F
:1021300060EECE0152DE6FE0CE0193DE61E3CE01B0
:1021400090DE6BE2CE018DDE6CE0CE018ADE6EE0C9
:10215000CE0187DE68E0CE0184DE6EE4CE0181DE52
:1021600061EFCE017EDE67E3CE017BDE67E0CE016C
:1021700078DE60E1CE0175DE63E0CE0172DE6EE0F6
:10218000CE016FDE69E0CE016CDE60E0CE0169DE7B
:1021900061EECE0122DE60E0CE0163DE6EE0CE01B4
:1021A00060DE64E1CE015DDE63E0CE015ADE61E116
:1021B000CE0157DE67E0CE0154DE61E3CE0151DE91
:1021C00061ECCE014EDE68E4CE014BDE68E0CE016C
:1021D00048DE6FE0CE0145DE6CE0CE0142DE61E319
:1021E000CE013FDE66E3CE013CDE6FE0CE0139DE9C
:1021F00061E1CE01F2DD8B8D81118CDD68E770E04D
:1022000080E090E00E94871B8B8D882319F080E589
:1022100091E066DD69E2CE01E0DD8B8D882319F067
:10222000DF91CF9177CDDF91CF910895CF92DF925B
:10223000FF920F931F93CF93DF9300D01F921F92B3
:10224000CDB7DEB76C01F62E6AE22B833A834D835D
:102250005C837983C2DD7981672FC60102DE6F2D31
:10226000C601FFDD3A81632FC601FBDD2B81622FA2
:10227000C601F7DD6BE2C601B0DD5C81652FC601EA
:10228000F0DD4D81642FC601ECDD612FC601E9DD73
:10229000602FC601E6DD6CE2C6010F900F900F9033
:1022A0000F900F90DF91CF911F910F91FF90DF90D2
:1022B000CF9093CDAF92BF92CF92DF92EF92FF92E9
:1022C0000F931F93CF93DF931F921F92CDB7DEB76B
:1022D0005C017B01D22EC32E77FD5EC0DC01189617
:1022E0008D919C911997681779070CF055C057FD8F
:1022F00053C01A968D919C911B97481759070CF063
:102300004BC05B968C91882339F080E591E049833E
:102310005A83E6DC5A8149818A010F5F1F4F97017A
:102320002F5F3F4FB701C50181DFD5019196ED9138
:10233000FC9192978081D0969C91D097892B808335
:102340009596ED91FC91969790819F968C918095B2
:10235000892380836C2DC50115DD6D2DC50112DD2E
:10236000D5019596ED91FC91969780819F969C91D1
:102370009F97892B80835B968C91882369F00F90BF
:102380000F90DF91CF911F910F91FF90EF90DF9011
:10239000CF90BF90AF90BECC0F900F90DF91CF91B8
:1023A0001F910F91FF90EF90DF90CF90BF90AF9073
:1023B00008958F929F92AF92BF92CF92DF92EF9249
:1023C000FF920F931F93CF93DF931F921F92CDB76E
:1023D000DEB74C016B017901B02EA12EDC011896FD
:1023E0008D919C911997681779070CF065C01A9622
:1023F0008D919C911B97481759070CF05DC09A016D
:102400002E0D3F1D821793071CF47C01E41AF50A78
:10241000F401838D882339F080E591E049835A8364
:102420005FDC5A8149818A010E0D1F1D015011097F
:102430009601B601C401FADED4019196ED91FC91AA
:1024400092978081D0969C91D097892B8083959686
:10245000ED91FC91969790819F968C918095892320
:102460008083E114F10451F06A2DC4018BDC6B2DE3
:10247000C40188DCB1E0EB1AF108F3CFD4019596E2
:10248000ED91FC91969780819F969C919F97892BC7
:1024900080835B968C91882379F00F900F90DF9169
:1024A000CF911F910F91FF90EF90DF90CF90BF9051
:1024B000AF909F908F902ECC0F900F90DF91CF9187
:1024C0001F910F91FF90EF90DF90CF90BF90AF9052
:1024D0009F908F9008958F929F92AF92BF92CF92CC
:1024E000DF92EF92FF920F931F93CF93DF931F9290
:1024F0001F92CDB7DEB74C017B016901B02EA12E32
:10250000DC0118968D919C911997681779070CF04A
:1025100065C01A962D913C911B97421753070CF0FA
:102520005DC09B012C0D3D1D821793071CF46C01AF
:10253000C61AD70AF401838D882339F080E591E02B
:1025400049835A83CDDB5A81498197012C0D3D1D6A
:10255000215031098A01B701C40168DED401919686
:10256000ED91FC9192978081D0969C91D097892B88
:1025700080839596ED91FC91969790819F968C9192
:10258000809589238083C114D10451F06A2DC40140
:10259000F9DB6B2DC401F6DBB1E0CB1AD108F3CF28
:1025A000D4019596ED91FC91969780819F969C9190
:1025B0009F97892B80835B968C91882379F00F906D
:1025C0000F90DF91CF911F910F91FF90EF90DF90CF
:1025D000CF90BF90AF909F908F909CCB0F900F901B
:1025E000DF91CF911F910F91FF90EF90DF90CF90EF
:1025F000BF90AF909F908F9008956F927F928F922F
:102600009F92AF92BF92CF92DF92EF92FF920F9381
:102610001F93CF93DF931F921F92CDB7DEB73C017C
:102620006B0159014801DC0118962D913C911997D5
:10263000621773070CF07BC01A968D919C911B97C3
:10264000481759070CF073C06A0D7B1D2617370712
:102650001CF45901AC18BD089A01280D391D8217C8
:1026600093071CF44C01841A950AF301838D882387
:1026700039F080E591E049835A8332DB5A81498100
:102680008A01080D191D0150110996012A0D3B1DE3
:1026900021503109B601C301C9DDD3019196ED91F5
:1026A000FC9192978081D0969C91D097892B8083C2
:1026B0009596ED91FC91969790819F968C9180953F
:1026C000892380831814190494F465011C141D04D3
:1026D00054F46F2DC30156DB6E2DC30153DBB1E003
:1026E000CB1AD108F3CFE1E08E1A9108EBCFD301DA
:1026F0009596ED91FC91969780819F969C919F97DE
:10270000892B80835B968C91882389F00F900F90A2
:10271000DF91CF911F910F91FF90EF90DF90CF90BD
:10272000BF90AF909F908F907F906F90F3CA0F9063
:102730000F90DF91CF911F910F91FF90EF90DF905D
:10274000CF90BF90AF909F908F907F906F900895A3
:102750001F93CF93DF93EC01162F8B8D882319F0F5
:1027600080E591E0BDDA66E3CE0137DB612F63706F
:102770006D8B623041F0633081F0613011F068E4BC
:1027800003C068E20BC068E8CE016BDB80EF90E02D
:102790009987888780E491E009C068EECE0161DB0B
:1027A00080E491E09987888780EF90E09B878A8713
:1027B0008B8D882321F0DF91CF911F91ABCADF91E0
:1027C000CF911F910895FC0160838FEF83838283F3
:1027D00081830895FC0163816F3F39F41EBC0000C2
:1027E0000DB407FEFDCF8EB5089541E0FC01828156
:1027F0000C94CC1D262FFC0163816F3F39F42EBD54
:1028000000000DB407FEFDCF8EB5089541E0FC0138
:1028100081810C94FD1D80E580932E0510922F057B
:1028200008950F931F93CF93DF93EC01062F142F7E
:1028300088818F3FB9F46C818AE694E00E94630539
:10284000602F8AE694E00E941C05612F8AE694E0DE
:102850000E941C058AE694E0DF91CF911F910F91B1
:102860000C94DE058B818F3F29F480912E05909189
:102870002F0536DA60E088810E946F1D602FCE013F
:10288000B9DF612FCE01B6DF61E088810E946F1D44
:102890008B818F3F29F4DF91CF911F910F913ACA1D
:1028A000DF91CF911F910F9108951F93CF93DF93E5
:1028B000EC01162F88818F3F19F56C818AE694E030
:1028C0000E946305612F8AE694E00E941C058AE657
:1028D00094E00E94DE056C818AE694E00E94630524
:1028E00041E06C818AE694E00E94DC058AE694E08F
:1028F0000E94CD04182F8AE694E00E94DE051EC0D7
:102900008B818F3F29F480912E0590912F05E8D976
:1029100060E088810E946F1D612F6068CE016ADFD0
:1029200060E0CE0167DFCE0155DF182F61E08881BE
:102930000E946F1D8B818F3F09F4ECD9812FDF91AD
:10294000CF911F91089560E4B0DF881F8827881F0A
:1029500008956BE4AADF85FB882780F908950F931B
:102960001F93CF93DF93EC0160E09FDF082F10E00F
:10297000102F002761E0CE0198DF9801282BC901B4
:10298000DF91CF911F910F910895EF92FF921F93C6
:10299000CF93DF931F92CDB7DEB77C01FC0190810E
:1029A0009F3F49F1838161E08F3F99F4892F0E9415
:1029B000361D61E0F70180810E946F1D0E94F707BC
:1029C00081E580932E0510922F05F701168215825E
:1029D0001AC00E94361D61E0F70180810E94361DF9
:1029E00061E0F70181810E94361D60E0F70182817C
:1029F0000E94361D08C08AE694E069830E945A0549
:102A00006981F7016483C701AADF8131984059F4D5
:102A100042E063E0C70105DF6AE070E080E090E03B
:102A200076D610E019C0F70180818F3F11F480E065
:102A30004EC0F70183818F3FD1F785E580932E0546
:102A400010922F0584E090E096838583C70187DF8D
:102A50008131984061F7DCCF612FC70126DF1F5F0E
:102A60001134D1F740E064E0C701DBDE41E060E40F
:102A7000C701D7DE41E06AE0C701D3DE40E660E28D
:102A8000C701CFDE42E061E2C701CBDE44EA61E488
:102A9000C701C7DE46E066E5C701C3DE41E06AE480
:102AA000C701BFDE41E06BE4C701BBDE40E06BE481
:102AB000C701B7DE41E068E5C701B3DE4FEF6BE069
:102AC000C701AFDE45E069E0C701ABDE81E00F90F2
:102AD000DF91CF911F91FF90EF9008956F927F92B9
:102AE0008F929F92AF92BF92CF92DF92EF92FF921E
:102AF0000F931F93CF93DF9300D01F92CDB7DEB714
:102B00008C014B015A016901CE0101967C013E0105
:102B100095E0690E711C67EDC801C7DED7018D9382
:102B20007D01A615B705B9F78A81E82FF0E094E09A
:102B3000F595E7959A95E1F72981B0E12B9F9001F2
:102B40001124E22BF32BD401ED93FC938F7090E0D2
:102B5000982F88272B81822BF501918380838C818C
:102B6000D6018C93C801F5DE8823B1F04FEF6BE0FE
:102B7000C8010F900F900F900F90DF91CF911F9190
:102B80000F91FF90EF90DF90CF90BF90AF909F900C
:102B90008F907F906F9045CE0F900F900F900F9079
:102BA000DF91CF911F910F91FF90EF90DF90CF9029
:102BB000BF90AF909F908F907F906F900895CF932C
:102BC000DF93CDB7DEB72B970FB6F894DEBF0FBEFD
:102BD000CDBF9E01255F3F4FAE01495F5F4FBE01F4
:102BE000675F7F4F7BDF6B8570E04F81888529852C
:102BF0009A8529839A834B838C837E836D83392FB7
:102C0000582F7E8180E090E02B960FB6F894DEBFBF
:102C10000FBECDBFDF91CF910895CF93DF93EC012D
:102C2000842F68834A83298361E020D761E088810B
:102C30001DD760E089811AD761E08A81DF91CF9149
:102C40004EC7DF92EF92FF920F931F93CF93DF93C4
:102C50008C01D12CC7E0D0E0EE24E394F12C60E0AD
:102C6000F80180813CD78FE99FE00197F1F700C020
:102C70000000F801818168D7892B39F097010C2E6B
:102C800001C0220F0A94EAF7D22A61E0F80180819C
:102C900026D78FE99FE00197F1F700C00000219748
:102CA000F0F68D2DDF91CF911F910F91FF90EF9056
:102CB000DF9008950F931F93CF93DF93EC0160E0B3
:102CC0008A810DD78FE99FE00197F1F700C00000DE
:102CD000CE01B7DF082F10E0102F0027CE01B1DFA3
:102CE000082B61E08A81FBD602FD11C0B80193E098
:102CF000769567959A95E1F780E090E00E94BA2278
:102D000020E030E040E85EE30E94482304C060E039
:102D100070E080EC9FE7DF91CF911F910F910895B4
:102D2000C9DF20E030E040E151E40E94482320E088
:102D300030E040EA50E40E94212220E030E040E010
:102D400052E40C94BD210F931F93CF93DF93EC01BA
:102D5000662351F0ADD469837A838B839C83DF91A2
:102D6000CF911F910F910895A3D409811A812B81CE
:102D70003C81601B710B820B930B623371058105E3
:102D8000910540F763E070E080E090E0C0D4ECCFC4
:102D900060E0D9CFFC0113AA14AA15AA16AA1182C1
:102DA000128213821482411551056105710519F0D3
:102DB000CB01BA01ACC40895FB01BA01A901DC0141
:102DC000D296FC93EE93D19726E0CF010C94491F45
:102DD0001F93CF93DF93EC01162F61E972E089A96D
:102DE0009AA90E949F204AE050E0612F89A99AA9E0
:102DF0000E94702168E972E089A99AA90E949F2027
:102E000062E370E080E090E0DF91CF911F917FC49A
:102E10001F93CF93DF93EC01162F8D81882381F1CF
:102E200089A99AA9DC01ED91FC910480F581E02D3E
:102E30001995892BA9F307C02637310511F12835DB
:102E4000310509F41D8289A99AA9DC01ED91FC9153
:102E50000480F581E02D1995181619068CF489A9BE
:102E60009AA9DC01ED91FC910680F781E02D19957E
:102E70009C01332723363105F9F6612FCE01A8DFF7
:102E800083E6DF91CF911F9108950F931F93CF9306
:102E9000DF931F92CDB7DEB78C01662341F081E04E
:102EA000F801858360E0C8014983B2DF4981F801F8
:102EB00045830F90DF91CF911F910F910895CF938C
:102EC000DF93CCE0D2E061E08881D0D561E08881F9
:102ED00006D6CAE0D2E061E08881C8D560E088818A
:102EE000FED564EF71E080E090E0DF91CF910FC4F8
:102EF000CF92DF92EF92FF92CF93DF9387E695E038
:102F00000FDF0E9489226B017C01EB0169EE72E008
:102F10008DEA95E00E949F204AE050E0B6018DEADC
:102F200095E00E944E2168EF72E08DEA95E00E94E4
:102F30009F204AE050E06AEF70E08DEA95E00E9441
:102F40004E218BEDC81681E0D80654F060E070E0A9
:102F500083E0DF91CF91FF90EF90DF90CF9070C42E
:102F6000CF3FD1053CF060E070E083E069D466E0DB
:102F700073E006C06FEF70E083E062D46FE173E04E
:102F80008DEA95E0DF91CF91FF90EF90DF90CF90A9
:102F90000C94AA20209112024091100260910E021E
:102FA00087E695E03ACE10926B0510926A05089577
:102FB000AF92BF92CF92DF92EF92FF920F931F9347
:102FC0004AE050E06CE370E08CE695E00E94320E3F
:102FD00060E070E08CE695E00E943E0E62E08CE6D8
:102FE00095E00E94380E63E473E08CE695E00E9461
:102FF000AA20A12CB12C8EE1C82ED12C99E1E92E6A
:10300000F12C0AE010E029E130E044E150E06AE010
:1030100070E08CE695E00E94D50940E550E066E45A
:1030200070E08CE695E00E94320E60E070E08CE685
:1030300095E00E943E0E62E08CE695E00E94380E1C
:1030400066E573E08CE695E00E94AA2044E650E035
:1030500066E470E08CE695E00E94320E60E070E07D
:103060008CE695E00E943E0E62E08CE695E00E94C0
:10307000380E60911A0270911B024AE050E08CE613
:1030800095E00E944E2140E550E068EC70E08CE64F
:1030900095E00E94320E60E070E08CE695E00E94C0
:1030A0003E0E62E08CE695E00E94380E6BE573E020
:1030B0008CE695E00E94AA2044E650E068EC70E0BF
:1030C0008CE695E00E94320E60E070E08CE695E0C0
:1030D0000E943E0E62E08CE695E00E94380E609100
:1030E0001602709117024AE050E08CE695E00E94CB
:1030F0004E214AEA50E066E470E08CE695E00E94DA
:10310000320E60E070E08CE695E00E943E0E62E0D8
:103110008CE695E00E94380E6091180270911902B9
:103120004AE050E08CE695E00E944E2129EBC22E49
:10313000D12C32E3E32EF12C0AEA10E02CE330E04C
:103140004AEA50E068E270E08CE695E00E94D5091A
:103150004AEAC42ED12C5BE7E52EF12C09EB10E0F6
:1031600025E830E049EB50E061E770E08CE695E05F
:103170000E94D5094AEA50E068EC70E08CE695E0E0
:103180000E94320E60E070E08CE695E00E943E0EF8
:1031900062E08CE695E00E94380E60911402709116
:1031A00015024AE050E08CE695E00E944E2169EB62
:1031B000C62ED12C74EBE72EF12C0AEA10E02EEB90
:1031C00030E04AEA50E06AEA70E08CE695E00E945E
:1031D000D509EAEACE2ED12CFDEFEF2EF12C09EB2A
:1031E00010E027E031E049EB50E063EF70E08CE65F
:1031F00095E00E94D5091F910F91FF90EF90DF900D
:10320000CF90BF90AF900895CF93DF9300D0CDB70C
:10321000DEB710926B0510926A056130710549F0B6
:103220006230710531F0672B41F4CE010196C0DEAA
:1032300004C070936B0560936A050F900F900F9018
:10324000DF91CF91089561307105B1F048F062309F
:10325000710509F455C06330710509F45FC0089524
:1032600080911802909119028936910514F0059702
:103270000FC084E690E00CC0809118029091190272
:10328000883221E0920714F4059602C08CE291E0A6
:10329000909319028093180280911802909119025C
:1032A0008D32914034F08CE291E09093190280933A
:1032B00018024AEA50E066E470E08CE695E00E946D
:1032C000320E4FEF5FEF60E070E08CE695E00E9419
:1032D000440E62E08CE695E00E94380E6091180280
:1032E000709119024AE050E08CE695E0D7D76091E2
:1032F0001802709119024AE050E08DEA95E047C04B
:1033000080911402909115028530910514F0059773
:1033100010C010921502109214020FC08091140276
:10332000909115028036910514F4059602C084E64A
:1033300090E0909315028093140280911402909172
:1033400015028536910534F084E690E090931502DD
:10335000809314024AEA50E068EC70E08CE695E055
:103360000E94320E4FEF5FEF60E070E08CE695E078
:103370000E94440E62E08CE695E00E94380E609157
:103380001402709115024AE050E08CE695E086C781
:103390002F923F924F925F926F927F928F929F9265
:1033A000AF92BF92CF92DF92EF92FF920F931F9353
:1033B000CF93DF9300D000D0CDB7DEB74C018DE9BD
:1033C00095E0C1DA882309F4D6C08DE995E0F7DBF2
:1033D00029833A834B835C8329803A806B807C808D
:1033E0008CE695E00E944E0E9C01B101882777FD86
:1033F0008095982F8901222717FD2095322F3F9322
:103400002F931F930F93A12CB12C650110EAE12E8D
:103410001FE0F12E00E010E022E830E040E050E054
:1034200065D71B012C018CE695E00E944A0E9C0199
:10343000B301882777FD8095982F8901222717FDF2
:103440002095322F3F932F931F930F9318EDE12E6A
:103450001EE0F12E00E010E026E930E040E050E010
:1034600045D76B017C018B018CE695E00E944E0EE6
:103470003C01621873080FB6F894DEBF0FBECDBFD3
:10348000003A110574F56FE573E08DEA95E062D6B8
:10349000C60184974D9768F4C301865A91094897ED
:1034A00040F462E773E08DEA95E054D660E070E0A6
:1034B00048C09DE6C91AD1088DE1C816D10408F0AC
:1034C0005AC096EA691A710888E16816710408F012
:1034D00052C063E973E08DEA95E03CD661E070E0AC
:1034E00030C0003A110509F446C062EB73E08DEA82
:1034F00095E030D6C601865A91094D9768F4C3010C
:10350000865A9109489740F466EC73E08DEA95E09D
:1035100021D662E070E015C09FEEC91AD1088DE196
:10352000C816D10440F596EA691A710888E1681650
:10353000710408F56FED73E08DEA95E00BD663E05A
:1035400070E0C40126960FB6F894DEBF0FBECDBF63
:10355000DF91CF911F910F91FF90EF90DF90CF906F
:10356000BF90AF909F908F907F906F905F904F90A3
:103570003F902F9068CE26960FB6F894DEBF0FBE10
:10358000CDBFDF91CF911F910F91FF90EF90DF9012
:10359000CF90BF90AF909F908F907F906F905F90F3
:1035A0004F903F902F90089568E08DE995E00BD9FA
:1035B0002FEF49E06AE08CE695E00C949B0ECF93E8
:1035C000DF93EC018CE695E00E944C0F61E48DE9FD
:1035D00095E0DBD9811103C066EF73E002C063E1BF
:1035E00074E08DEA95E0B6D56FEF7FEF8CE695E05D
:1035F0000E94520E61E08CE695E0AAD868E274E081
:103600008DEA95E0A7D560E070E0CE01FDDD68EBC6
:103610007BE080E090E0DF91CF9179C01F920F9224
:103620000FB60F9211242F933F938F939F93AF93D5
:10363000BF938091A5059091A605A091A705B09193
:10364000A8053091A40523E0230F2D3720F401961F
:10365000A11DB11D05C026E8230F0296A11DB11DB5
:103660002093A4058093A5059093A605A093A70594
:10367000B093A8058091A9059091AA05A091AB05EA
:10368000B091AC050196A11DB11D8093A905909341
:10369000AA05A093AB05B093AC05BF91AF919F91E4
:1036A0008F913F912F910F900FBE0F901F90189503
:1036B0002FB7F8946091A5057091A6058091A70594
:1036C0009091A8052FBF08953FB7F8948091A90560
:1036D0009091AA05A091AB05B091AC0526B5A89B29
:1036E00005C02F3F19F00196A11DB11D3FBF6627F0
:1036F000782F892F9A2F620F711D811D911D42E035
:10370000660F771F881F991F4A95D1F708958F92EA
:103710009F92AF92BF92CF92DF92EF92FF926B0196
:103720007C01D2DF4B015C01C114D104E104F1043E
:10373000E1F021D6C9DF681979098A099B09683E39
:1037400073408105910580F321E0C21AD108E10898
:10375000F10888EE880E83E0981EA11CB11CC114EC
:10376000D104E104F10431F7DFCFFF90EF90DF9057
:10377000CF90BF90AF909F908F900895789484B52C
:10378000826084BD84B5816084BD85B5826085BD5D
:1037900085B5816085BDEEE6F0E080818160808343
:1037A000E1E8F0E010828081826080838081816026
:1037B0008083E0E8F0E0808181608083E1EBF0E0ED
:1037C000808184608083E0EBF0E080818160808391
:1037D000E1E9F0E080818260808380818160808384
:1037E000E0E9F0E0808181608083E1EAF0E08081BF
:1037F00082608083808181608083E0EAF0E0808164
:1038000081608083E1E2F1E0808182608083808159
:1038100081608083E0E2F1E0808181608083EAE77B
:10382000F0E08081846080838081826080838081F9
:10383000816080838081806880831092C1000895B8
:103840001F93CF93DF93182FEB0161E00FD12097E7
:1038500011F460E004C0CF3FD10531F461E0812F65
:10386000DF91CF911F913BC1E12FF0E0E45DF94F73
:10387000449150E0FA013197E231F10508F09AC025
:10388000EE58FF4FB5C784B5806884BDC7BD97C0EB
:1038900084B5806284BDC8BD92C08091800080687C
:1038A00080938000D0938900C093880088C0809165
:1038B0008000806280938000D0938B00C0938A0048
:1038C0007EC080918000886080938000D0938D00BE
:1038D000C0938C0074C08091B00080688093B00069
:1038E000C093B3006CC08091B00080628093B00040
:1038F000C093B40064C08091900080688093900071
:10390000D0939900C09398005AC080919000806233
:1039100080939000D0939B00C0939A0050C08091F8
:103920009000886080939000D0939D00C0939C008D
:1039300046C08091A00080688093A0008091A00084
:103940008F7B8093A000D093A900C093A80037C0BC
:103950008091A00080628093A000D093AB00C093C0
:10396000AA002DC08091A00088608093A000D09311
:10397000AD00C093AC0023C080912001806880938B
:103980002001D0932901C093280119C08091200102
:10399000806280932001D0932B01C0932A010FC035
:1039A00080912001886080932001D0932D01C093E5
:1039B0002C0105C0C038D1050CF050CF4ACFDF91A3
:1039C000CF911F91089590E0FC013197E231F1050C
:1039D00008F04BC0EC57FF4F0BC7809180008F77EA
:1039E00003C0809180008F7D809380000895809136
:1039F0008000877FF9CF84B58F7702C084B58F7D33
:103A000084BD08958091B0008F7703C08091B0008D
:103A10008F7D8093B0000895809190008F7707C0CC
:103A2000809190008F7D03C080919000877F80936C
:103A3000900008958091A0008F7707C08091A0002A
:103A40008F7D03C08091A000877F8093A0000895A0
:103A5000809120018F7707C0809120018F7D03C066
:103A600080912001877F809320010895CF93DF9379
:103A700090E0FC01EE58F94F2491FC01E854F94F15
:103A80008491882349F190E0880F991FFC01EE5C36
:103A9000F84FA591B491885E984FFC01C591D491DF
:103AA0009FB7611108C0F8948C91209582238C9364
:103AB000888182230AC0623051F4F8948C91322FAD
:103AC000309583238C938881822B888304C0F8945B
:103AD0008C91822B8C939FBFDF91CF9108950F9390
:103AE0001F93CF93DF931F92CDB7DEB7282F30E01F
:103AF000F901E45DF94F8491F901EE58F94F149101
:103B0000F901E854F94F04910023C1F0882319F01A
:103B1000698359DF6981E02FF0E0EE0FFF1FE85E57
:103B2000F84FA591B4919FB7F8948C91611103C09F
:103B30001095812301C0812B8C939FBF0F90DF9143
:103B4000CF911F910F910895CF93DF93282F30E0ED
:103B5000F901E45DF94F8491F901EE58F94FD491E0
:103B6000F901E854F94FC491CC2389F081112BDF7E
:103B7000EC2FF0E0EE0FFF1FE250F94FA591B4914A
:103B80002C912D2381E090E021F480E002C080E0C0
:103B900090E0DF91CF910895CF92DF92EF92FF9264
:103BA0000F931F93CF93DF93D82EE62EC42EC7E03A
:103BB000D0E0F12C07E010E061E08E2D90DF8D2D3C
:103BC000C11005C0C1DF98012C1B3D0B02C0BCDF3A
:103BD0002C2F01C0880F2A95EAF7F82A60E08E2D75
:103BE0007EDF219748F78F2DDF91CF911F910F91A5
:103BF000FF90EF90DF90CF900895BF92CF92DF9229
:103C0000EF92FF920F931F93CF93DF93C82ED62E80
:103C1000B42EC7E0D0E0022F10E087E0E82EF12CB0
:103C2000B1100AC0F701EC1BFD0BB80102C075957D
:103C30006795EA95E2F707C0B8010C2E02C07595AA
:103C400067950A94E2F7617077278C2D48DF61E071
:103C50008D2D45DF60E08D2D42DF219708F7DF9144
:103C6000CF911F910F91FF90EF90DF90CF90BF9079
:103C70000895E1D5FC01818D228D90E0805C9F4FFD
:103C8000821B91098F7399270895FC01918D828D74
:103C9000981731F0828DE80FF11D858D90E0089521
:103CA0008FEF9FEF0895FC01918D828D981761F041
:103CB000828DDF01A80FB11D5D968C91928D9F5F63
:103CC0009F73928F90E008958FEF9FEF089588E0A3
:103CD00090E2892B39F080E090E0892B19F098D19F
:103CE000811125C080E090E0892B41F080E090E0D8
:103CF000892B21F00E94000081111CC080E090E01F
:103D0000892B41F080E090E0892B21F00E94000097
:103D1000811113C080E090E0892BA1F080E090E059
:103D2000892B81F00E94000081110AC008950E9431
:103D30000000D8CF0E940000E1CF0E940000EACF2F
:103D40000C9400000895FC01848DDF01A80FB11DC3
:103D5000A35ABF4F2C91848D90E001968F739927C1
:103D6000848FA689B7892C93A089B1898C918064AE
:103D70008C93938D848D981306C00288F389E02D6F
:103D800080818F7D80830895CF93DF93EC01888DB0
:103D90008823C1F0EA89FB89808185FD05C0A88957
:103DA000B9898C9186FD0EC00FB607FCF5CF8081D6
:103DB00085FFF2CFA889B9898C9185FFEDCFCE011F
:103DC000C2DFE8CFDF91CF910895CF92DF92FF92CB
:103DD0000F931F93CF93DF931F92CDB7DEB76C0184
:103DE00081E0D60158968C9358975B969C915B978F
:103DF0005C968C915C97981307C05096ED91FC915E
:103E00005197808185FD2DC0F601038D10E00F5F75
:103E10001F4F0F731127F02EF601848DF81210C07A
:103E20000FB607FCF9CFD6015096ED91FC91519752
:103E3000808185FFF1CFC601698385DF6981ECCF81
:103E4000838DE80FF11DE35AFF4F6083D6015B9627
:103E50000C935B975296ED91FC9153978081806211
:103E60000CC0D6015696ED91FC9157976083509601
:103E7000ED91FC91519780818064808381E090E096
:103E80000F90DF91CF911F910F91FF90DF90CF9016
:103E90000895BF92CF92DF92EF92FF92CF93DF937C
:103EA000EC016A017B01B22EE889F98982E0808306
:103EB000411581EE58076105710599F060E079E0E0
:103EC0008DE390E0A701960155D4215031094109B5
:103ED00051095695479537952795211580E1380763
:103EE00090F0E889F989108260E874E88EE190E04A
:103EF000A70196013FD42150310941095109569536
:103F0000479537952795EC85FD853083EE85FF85B0
:103F10002083188EEC89FD89B082EA89FB89808133
:103F200080618083EA89FB89808188608083EA8957
:103F3000FB89808180688083EA89FB8980818F7D0D
:103F40008083DF91CF91FF90EF90DF90CF90BF9073
:103F500008951F920F920FB60F9211240BB60F9275
:103F60002F938F939F93EF93FF93E091BD05F09173
:103F7000BE058081E091C305F091C40582FD12C0A9
:103F800090818091C6058F5F8F732091C70582173E
:103F900051F0E091C605F0E0E355FA4F958F80931C
:103FA000C60501C08081FF91EF919F918F912F9164
:103FB0000F900BBE0F900FBE0F901F9018951F9281
:103FC0000F920FB60F9211240BB60F922F933F93BF
:103FD0004F935F936F937F938F939F93AF93BF9311
:103FE000EF93FF938DEA95E0AEDEFF91EF91BF91E5
:103FF000AF919F918F917F916F915F914F913F9181
:104000002F910F900BBE0F900FBE0F901F90189521
:104010008DEA95E02FDE21E0892B09F420E0822F44
:1040200008951092B0051092AF0588EE93E0A0E0DD
:10403000B0E08093B1059093B205A093B305B0931F
:10404000B40584E494E09093AE058093AD0585ECCF
:1040500090E09093BA058093B90584EC90E090933A
:10406000BC058093BB0580EC90E09093BE058093E7
:10407000BD0581EC90E09093C0058093BF0582EC74
:1040800090E09093C2058093C10586EC90E09093F8
:10409000C4058093C3051092C6051092C7051092FF
:1040A000C8051092C9050895089568DBFDDF0E94D8
:1040B000DE03C7E6DEE10E9425042097E1F307DE78
:1040C000FACFCF92DF92EF92FF920F931F93CF938D
:1040D000DF937C016A01EB0100E010E00C151D0587
:1040E00071F06991D701ED91FC910190F081E02D83
:1040F000C7011995892B19F00F5F1F4FEFCFC8012A
:10410000DF91CF911F910F91FF90EF90DF90CF90B3
:1041100008956115710581F0DB010D900020E9F72C
:10412000AD0141505109461B570BDC01ED91FC914B
:104130000280F381E02D199480E090E00895E9CFAA
:10414000DC01ED91FC910190F081E02D19946EE974
:1041500072E0DFCF0F931F93CF93DF93EC01D9DF92
:104160008C01CE01F4DF800F911FDF91CF911F9161
:104170000F9108958F929F92AF92BF92DF92EF922C
:10418000FF920F931F93CF93DF93CDB7DEB7A19725
:104190000FB6F894DEBF0FBECDBF7C01F42FD52E35
:1041A000CB0119A2223008F42AE08E010F5D1F4FC7
:1041B000822E912CA12CB12C6F2F7D2DA501940165
:1041C000D9D2F22FD32ECA01015011096A3014F44A
:1041D000E0E301C0E7E3E60FD801EC93232B242BA7
:1041E000252B51F7B801C70194DFA1960FB6F894BB
:1041F000DEBF0FBECDBFDF91CF911F910F91FF901A
:10420000EF90DF90BF90AF909F908F900895CF92E6
:10421000DF92EF92FF920F931F93CF93DF93EC0106
:104220006A017B012115310579F4E881F98101905A
:10423000F081E02D642FDF91CF911F910F91FF90BE
:10424000EF90DF90CF9019942A303105D9F477FFA1
:1042500018C06DE275DF8C0144275527BA014C194F
:104260005D096E097F092AE0CE0184DF800F911F6E
:10427000DF91CF911F910F91FF90EF90DF90CF9042
:1042800008952AE0B701A601CE01DF91CF911F91D9
:104290000F91FF90EF90DF90CF906CCF0F931F9313
:1042A000CF93DF93EC019A01AB01662757FD609530
:1042B000762FADDF8C01CE014ADF800F911FDF9199
:1042C000CF911F910F9108952115310541F4DC0123
:1042D000ED91FC910190F081E02D642F19944ACF6B
:1042E0009A01462F50E060E070E0EECF4F925F926F
:1042F0006F927F92AF92BF92CF92DF92EF92FF9236
:104300000F931F93CF93DF93CDB7DEB729013A0107
:10431000621B730B840B950B2A893B894C895D8941
:104320002A193B094C095D092A8B3B8B4C8B5D8B11
:104330009B01AC016A897B898C899D890CD2E41828
:10434000F50806091709A801970136D22A0D3B1D69
:104350004C1D5D1DCA01B901DF91CF911F910F91D5
:10436000FF90EF90DF90CF90BF90AF907F906F90D5
:104370005F904F90089508955058BB27AA270ED0FC
:104380004DC13ED130F043D120F031F49F3F11F4C4
:104390001EF433C10EF4E095E7FB29C1E92F4FD19C
:1043A00080F3BA17620773078407950718F071F452
:1043B0009EF567C10EF4E0950B2EBA2FA02D0B01D0
:1043C000B90190010C01CA01A0011124FF27591B5A
:1043D00099F0593F50F4503E68F11A16F040A22F60
:1043E000232F342F4427585FF3CF469537952795D1
:1043F000A795F0405395C9F77EF41F16BA0B620BD0
:10440000730B840BBAF09150A1F0FF0FBB1F661F16
:10441000771F881FC2F70EC0BA0F621F731F841F59
:1044200048F4879577956795B795F7959E3F08F07F
:10443000B3CF9395880F08F09927EE0F979587953E
:1044400008950CD0EBC0E3D040F0DAD030F021F486
:104450005F3F19F0CCC0511115C1CFC0F0D098F317
:104460009923C9F35523B1F3951B550BBB27AA27F5
:1044700062177307840738F09F5F5F4F220F331F67
:10448000441FAA1FA9F333D00E2E3AF0E0E830D033
:1044900091505040E695001CCAF729D0FE2F27D036
:1044A000660F771F881FBB1F261737074807AB0704
:1044B000B0E809F0BB0B802DBF01FF2793585F4F79
:1044C0002AF09E3F510568F092C0DCC05F3FECF3DC
:1044D000983EDCF3869577956795B795F7959F5F3E
:1044E000C9F7880F911D9695879597F90895E1E092
:1044F000660F771F881FBB1F621773078407BA07F1
:1045000020F0621B730B840BBA0BEE1F88F7E0954B
:10451000089504D06894B111B5C0089598D088F07A
:104520009F5790F0B92F9927B751A0F0D1F0660F9F
:10453000771F881F991F1AF0BA95C9F712C0B130BA
:1045400081F09FD0B1E008959CC0672F782F882715
:10455000B85F39F0B93FCCF3869577956795B395F9
:10456000D9F73EF490958095709561957F4F8F4F68
:104570009F4F0895E89409C097FB3EF4909580956D
:10458000709561957F4F8F4F9F4F9923A9F0F92F19
:1045900096E9BB279395F695879577956795B79597
:1045A000F111F8CFFAF4BB0F11F460FF1BC06F5F7D
:1045B0007F4F8F4F9F4F16C0882311F096E911C08F
:1045C000772321F09EE8872F762F05C0662371F0B0
:1045D00096E8862F70E060E02AF09A95660F771FC4
:1045E000881FDAF7880F9695879597F9089597F9B8
:1045F0009F6780E870E060E008959FEF80EC089589
:1046000000240A94161617061806090608950024B1
:104610000A9412161306140605060895092E03942B
:10462000000C11F4882352F0BB0F40F4BF2B11F49F
:1046300060FF04C06F5F7F4F8F4F9F4F089557FDFE
:104640009058440F551F59F05F3F71F04795880F00
:1046500097FB991F61F09F3F79F087950895121697
:1046600013061406551FF2CF4695F1DF08C0161643
:1046700017061806991FF1CF8695710561050894F4
:104680000895E894BB2766277727CB0197F908950B
:104690000BD0C4CFB5DF28F0BADF18F0952309F0AE
:1046A000A6CFABCF1124EECFCADFA0F3959FD1F3F5
:1046B000950F50E0551F629FF001729FBB27F00DD0
:1046C000B11D639FAA27F00DB11DAA1F649F662725
:1046D000B00DA11D661F829F2227B00DA11D621F74
:1046E000739FB00DA11D621F839FA00D611D221F2E
:1046F000749F3327A00D611D231F849F600D211D12
:10470000822F762F6A2F11249F5750408AF0E1F0B4
:1047100088234AF0EE0FFF1FBB1F661F771F881FFD
:1047200091505040A9F79E3F510570F060CFAACF3D
:104730005F3FECF3983EDCF3869577956795B795E8
:10474000F795E7959F5FC1F7FE2B880F911D969512
:10475000879597F90895DB018F939F935ED0BF9162
:10476000AF91A29F800D911DA39F900DB29F900DC0
:1047700011240895A1E21A2EAA1BBB1BFD010DC036
:10478000AA1FBB1FEE1FFF1FA217B307E407F50701
:1047900020F0A21BB30BE40BF50B661F771F881FDD
:1047A000991F1A9469F760957095809590959B0173
:1047B000AC01BD01CF010895052E97FB16F40094BE
:1047C0000FD057FD05D0D6DF07FC02D046F408C055
:1047D00050954095309521953F4F4F4F5F4F08952D
:1047E00090958095709561957F4F8F4F9F4F08955D
:1047F000EE0FFF1F0590F491E02D1994A29FB001D8
:10480000B39FC001A39F700D811D1124911DB29F04
:10481000700D811D1124911D0895F0DFA59F900D4D
:10482000B49F900DA49F800D911D112408950790B1
:10483000F691E02D199481E090E0F89400C0F8948E
:02484000FFCFA8
:1048420000004A068000010000000200030006008A
:10485200050004002D002300C8009600564D445068
:10486200565F317C315F564D4450560D0A004E65FD
:104872007720546573742C2048656C6C6F00564D1C
:104882004450455F31007C005F564D4450450D0A4F
:1048920000000000001C05F004C504CD04E004EF94
:1048A20004000000005E0D6120391E2D0833094A04
:1048B20009E40860099509B309000000005E0D6172
:1048C200205A112D08D9116B12E408FD12520E095B
:1048D2000F564D4450435F005F564D4450430D0AFE
:1048E200004572726F723A20417474656D70742063
:1048F200746F20736574206120726561642D6F6E20
:104902006C79207661726961626C65206F722064D5
:104912006174612074797065206E6F742073757094
:10492200706F727465640D0A0043757272656E74FD
:104932002074656D703A200054617267657420744A
:10494200656D703A20005365742068656174696E04
:104952006720656C656D656E74206F666621004820
:10496200656174696E6720656C656D656E7420683B
:104972006173206265656E207475726E6564206F66
:104982006E21004C69766520526F61737420436F0B
:104992006E74726F6C0054656D700046616E004CEF
:1049A200656674207369646520746F7563686564F5
:1049B20021005475726E20646F776E2074656D707D
:1049C2006572617475726520707265737365642EA9
:1049D2002E2E005475726E2075702074656D706590
:1049E20072617475726520707265737365642E2EC0
:1049F2002E005269676874207369646520746F754C
:104A02006368656421005475726E20646F776E204E
:104A120066616E20707265737365642E2E2E00546B
:104A220075726E2075702066616E20707265737388
:104A320065642E2E2E00556E61626C6520746F20A7
:104A4200737461727420746F7563687363726565E1
:104A52006E2E00546F75636873637265656E2073A2
:104A62007461727465642E0052756E6E696E672091
:104A72006C697665526F617374566965772829008F
:104A820000000000E51E61203A1E531E451EC41E92
:0C4A92006E616E00696E66006F76660053
:00000001FF
